:020000022000DC
:1060000000000120756302005D6302005F6302000F
:106010006163020063630200656302000000000028
:1060200000000000000000000000000067630200A4
:1060300069630200000000006B6302006D630200F0
:1060400051A302006F63020055A702006F630200B4
:106050006F6302006F63020009A602006F63020013
:106060006F6302006F6302006F6302006F630200E0
:106070006F63020071B302006F6302006F6302007E
:106080006F630200597B02006F6302006F630200BE
:106090006F6302006F6302008D2303006F630200D1
:1060A0006F6302006F6302006F6302006F630200A0
:1060B0006F6302006F630200000000000000000038
:1060C0006F6302006F6302006F6302006F63020080
:1060D0006F6302006F6302006F6302000000000044
:1060E00000000000000000000000000000000000B0
:1060F00000000000000000000000000000000000A0
:10610000000000000000000000000000000000008F
:10611000000000000000000000000000000000007F
:10612000000000000000000000000000000000006F
:10613000000000000000000000000000000000005F
:10614000000000000000000000000000000000004F
:10615000000000000000000000000000000000003F
:10616000000000000000000000000000000000002F
:10617000000000000000000000000000000000001F
:10618000000000000000000000000000000000000F
:1061900000000000000000000000000000000000FF
:1061A00000000000000000000000000000000000EF
:1061B00000000000000000000000000000000000DF
:1061C00000000000000000000000000000000000CF
:1061D00000000000000000000000000000000000BF
:1061E00000000000000000000000000000000000AF
:1061F000000000000000000000000000000000009F
:10620000354936480A1A02D0072291438D4634494F
:1062100034480A1A06D00722914381F309880222E2
:1062200082F3148830483149314A00F044F831484B
:106230003149324A00F03FF831483249324A00F0E1
:106240003AF832483249334A00F035F83248334997
:10625000334A00F030F833483349344A00F02BF821
:1062600033483449344A00F026F83448344900228F
:1062700000F02CF833483449002200F027F8334866
:106280003349091A082902DB002202604160314AC1
:1062900090471F481F49884205D00268043003B464
:1062A000904703BCF7E700208646EC46002000211B
:1062B000294A9047FEE7884207D0521A05D0037852
:1062C00001300B700131013AF9D17047884202D098
:1062D00002700130FAE770470000012000E0002062
:1062E000000001200000012028CC030074310020B0
:1062F0005C380020D0630200D0630200E480030019
:1063000028CC030074310020743100200483030082
:106310000483030004830300048303000483030055
:1063200004830300048303000483030028CC0300D8
:1063300010D303005C3800205C3800205C3800205B
:1063400010740020107400201074002010740020BD
:10635000109400209D63020095BF0200FEE7FEE757
:10636000FEE7FEE7FEE7FEE7FEE7FEE7FEE7FEE705
:1063700000F002B8FFF7FCBF0F484FF00701884359
:1063800085460E4880470E48016841F4700101605F
:10639000BFF34F8FBFF36F8FFFF732BF09480A4932
:1063A0000A4A884207D0521A05D0037801300B7090
:1063B0000131013AF9D1704700000120E99C020047
:1063C00088ED00E0F082030060310020743100208D
:1063D0007047000007B5044B0093044A402300F0C7
:1063E00032F803B05DF804FBF16302005D38002071
:1063F0002DE9F84388461446B2B10F4B0F4E0325E2
:10640000002743F00109224608EB0701002005F0B0
:1064100055FF0744241A48B933782BB14FF47A401A
:10642000C847013D02D13570BDE8F88301233370C0
:10643000002CE8D1F8E700BF108303005C3800208F
:10644000704705F06BBFF0B595B01D46164608467F
:106450000C4601F0A7FF1A9B0D93CDE908650025B6
:106460002B46082205A920460A958DF82C500C953C
:1064700001F0B4FF079B0293069B03939DF8143031
:106480008DF8115003F00302012A1DD1BDF814202C
:10649000059DC3F3C203C2F383168DF81030B2001A
:1064A00008230EA9204601F099FFC5F3952508ABF6
:1064B0000093324602AB0EA9284600F0C9FB2046E5
:1064C00001F074FF15B0F0BD022AF8D1BDF81650E6
:1064D000C3F3C203C5F389158DF810300827082DC2
:1064E0002E4628BF08263B4632460EA9204601F01C
:1064F00075FFAD1B08AB02AA31460EA8374400F069
:106500000BFC002DEBD1DAE708B5FFF79AFF044842
:10651000042100F007FB034B01225A7108BD00BFA4
:10652000E082030074310020037813F0040216D0D7
:1065300003F00303012B03D0022B09D00120704785
:106540000A6800880232C0F3831002440A60F5E74B
:106550000B684288023303EB92130B60EEE71046A0
:10656000704700002DE9F04FDFF81CA187B00F46FF
:1065700000230446861C0DF1070015468DF80730F0
:1065800001F07CF9DAF804203A60DAF8083003F513
:1065900080739B1A0AF21C470AF583690AF21448B1
:1065A000B3421AD30020002D69D004F00F039B01E1
:1065B00043F0050363F30F00DAF80430DAB2033274
:1065C00033444AF822009DF80700CAF8043001F06D
:1065D00079F9012007B0BDE8F08F0121384601F0BC
:1065E0000DFC484601F025FC404601F022FCDAF89B
:1065F00008000290C0B203300AEB800002A9FFF746
:1066000093FF029B30BBDAB20AEB8202D16803919E
:106610009A1C0133DBB20AEB83030292D3F80CB06D
:1066200001F00303012B22D0022B15D083464046F4
:1066300001F002FC10B1029BCAF8083059463846F6
:1066400001F0DCFBDAF80830DAF8042003F5807397
:106650009B1AA5E7D8B2CEE7BDF80E30C3F3891375
:1066600003334FEA1B4B02EB93030293DFE7BDF8C2
:106670000C30C3F383134FEA1B4B1344F5E7A40517
:1066800044F0060098E700BF70390020064B074829
:1066900010B500221A7001F03EFE044610B90448FD
:1066A00001F03EFF204610BD70390020A08103009C
:1066B0004C83030030B50A4C71B10A4A0A49121BD7
:1066C000D20800239A4201D1002030BD31F8235076
:1066D000854202D00133F5E7034654F83300F4E76E
:1066E000D0810300E082030074310020094B01399E
:1066F00003EBC000032909D8DFE801F00A02040611
:106700000420704700797047407970470020704737
:1067100002207047D081030070470000034BD3E98B
:106720000130C31A58425841704700BF70390020E9
:106730002DE9F04186B0FFF7F1FF0546002840F053
:10674000ED80774CC4F81804BFF34F8FA368029311
:10675000DBB2033304EB830002A9FFF7E5FE029BE3
:1067600018B1D4F81824002A5AD0DAB2991C01338F
:1067700004EB8202DBB204EB8303D268DB68049390
:1067800002F00303022B0392029154D1BDF80E30A4
:106790006448C3F38917502F3E4628BF502606F1A0
:1067A000080166F38F13C1F30901ADF80E3001F053
:1067B000CAFD0546002800F09C8001F0F3FD00238F
:1067C000082203A9284601F0FFFD0299CB43DBB262
:1067D0000133C9B20331B6EB830F4FEA830204EBF6
:1067E000810125D95FFA82F80823A6EB080628461E
:1067F00001F0EAFDF6B208F108034B4903F0FC038F
:106800003246284601F0E0FD029B033703EB970771
:106810000297D4F81834002B43D1D4F8106453E015
:1068200062689A4294D8A260284606B0BDE8F0811A
:1068300008233246E5E7012B5BD1BDF80C3039481F
:10684000C3F38311062928BF062161F3891302319E
:1068500001F00F018900ADF80C3001F074FD054620
:10686000002846D001F09EFD0023082203A92846F7
:1068700001F0AAFD0026BDF80C20C2F38312B3007C
:10688000964203F10803C4D202994A1CC9B20331EB
:10689000029204EB81010422284601F095FD0136A5
:1068A000E9E7284601F082FDFFF738FF80F001009C
:1068B000C5B2B9E7F3685B7923B1336829461B6831
:1068C00030469847F3681E68002EF3D1284601F041
:1068D0006DFD0DF107008DF8076000F0CFFFD4F8D3
:1068E00018340BB9029BA3609DF8070000F0EAFF83
:1068F000DAE7D4F8104454B90C4B0D480D49C01ACE
:10690000C008000440F0020000F05EF8CCE7236805
:1069100020469B689847E3681C68ECE7002583E7FE
:1069200070390020A08103007C390020D081030051
:1069300000820300348303002DE9F34704460E462A
:10694000924601A9012218469946FFF70BFE1C4FFB
:1069500010B3019D4FF00008AA1CC84508EB0201C6
:1069600025D11848002101F002FA80F3100000043C
:1069700040EA1440E4006B1C04F03804DBB2EDB2D2
:1069800044F0010407EB8303033544EA881444EA26
:106990008624D86047F825403B781BB1FFF7C8FE36
:1069A0000028FBD1FFF7B8FE02B0BDE8F087C9B2FE
:1069B00007EB81015AF82830CB6008F10108CCE7D9
:1069C000703900208C3D002000231A46FFF7B4BF29
:1069D00007B50123019201AAFFF7AEFF03B05DF8EE
:1069E00004FB07B5CDE9002302236A46FFF7A4FFA5
:1069F00003B05DF804FB1FB5CDE90123069B0393AB
:106A000001AA0323FFF798FF05B05DF804FB1FB54B
:106A1000CDE90023069B0293079B03936A46042358
:106A2000FFF78AFF05B05DF804FB7FB5CDE90123D0
:106A3000089B0393099B04930A9B059301AA0523D2
:106A4000FFF77AFF07B05DF804FB7FB5CDE90023BF
:106A5000089B0293099B03930A9B04930B9B05934A
:106A60006A460623FFF768FF07B05DF804FB0000E5
:106A70002DE9F7430446D01C8846164601A900229A
:106A80008008FFF76FFD254D80B3019FB81C019072
:106A9000C0B2C0F58073B6EB830F00F103004FEA7C
:106AA000830905EB800028D8324641460DF088FA6C
:106AB0001B48002101F05BF980F310007B1CDBB266
:106AC000FFB2220C05EB8303033742EA0040E400E7
:106AD000D86004F0380455F8273044F0020444EA42
:106AE000865203F47C131A4345F827202B787BB990
:106AF000FFF712FE03B0BDE8F0834A4641460DF0B1
:106B00005FFAA6EB090208EB090105F10C00CDE7DD
:106B1000FFF70EFE0028FBD1EAE700BF7039002026
:106B20008C3D002030B50F4CD4F8102403460020D3
:106B3000114631B9D96808714AB9C4F810340A60ED
:106B400030BDC9680D79854206D00968F1E7D26881
:106B500014680C601360F3E701300A28E8D14FF0A5
:106B6000FF30EDE77039002038B5084B0125D3F828
:106B700010441D7004B938BDE3685D712368204678
:106B80005B689847E3681C68F4E700BF7039002031
:106B900030B5C38885B004460D4633B1144A00921F
:106BA0001449154A284601F0AAF9217A05291DD071
:106BB000637A4BB1A088FFF799FD104B104953F849
:106BC0002020284601F09BF9227A0E4BA08853F82A
:106BD000222003920021FFF76DFD039A0A49034624
:106BE000284605B0BDE8304001F089B905B030BD98
:106BF000788303006083030058830300E883030065
:106C000038A903000C8403007D83030007B5034605
:106C10000846197A052911D05B7A2BB1094A0A492D
:106C2000019001F06CF901980849019001F067F9B1
:106C3000019803B05DF804EB01F056B9002AF8D0D2
:106C4000F2E700BF7883030038A9030075830300CF
:106C50002DE9F04385B01F460C9D002395F80C905C
:106C60002B7306460C46904629463846FFF790FFA0
:106C7000B8F1060F09D8DFE808F00412181F28330E
:106C800040003146284601F03AF9002229463846AC
:106C9000FFF7BCFF85F80C9005B0BDE8F0832268D3
:106CA0003146284601F02BF9EFE7D4E900233146BD
:106CB000284601F024F9E8E7A36800933146D4E9B7
:106CC0000023284601F01BF9DFE7E3680193A3687E
:106CD00000933146D4E90023284601F010F9D4E7A7
:106CE00023690293E3680193A36800933146D4E9D2
:106CF0000023284601F003F9C7E76369039323697A
:106D00000293E3680193A36800933146D4E900231A
:106D1000284601F0F4F8B8E708292DE9F74F804636
:106D20000E4617461C463DD800251B7B2573214681
:106D300010460193FFF72CFFDFF88CA0DFF88CB032
:106D4000AE4232D918F805205946204601F0D7F84E
:106D50000135082DF4D11B49DFF874A0DFF874B0B9
:106D6000204601F0CCF84FF000094E4524D918F820
:106D700009507E2D1ED828460DF09CF8002814BF1F
:106D80002A462E225946204601F0B9F809F1010998
:106D9000B9F1080FE9D1012221463846FFF736FF45
:106DA000019B237303B0BDE8F08F5146204601F0EC
:106DB000A6F8CDE72E22E5E75146204601F09FF8E0
:106DC000E4E700BF918303008D8303008783030002
:106DD0008F83030093830300C30710B507D4F02308
:106DE000054A4008145C23401943115410BD0901A1
:106DF000C9B20F23F4E700BF383E002030B5094B7D
:106E00001C78094B196800239C4202DC00221046C2
:106E100030BD11F83350854201EBC302F7D0013386
:106E2000F2E700BF283E0020483E002013B504468C
:106E30000191FFF7E3FF38B143682BB10199204678
:106E400002B0BDE81040184702B010BD034B044823
:106E500019680022490800F0C7BA00BF2C3E002084
:106E60008031002010B5C0B2FFF7C8FF044600789B
:106E700003F0C0FB63785A1E53425341834208D14A
:106E8000044BD3E90023134303D1BDE81040FFF7BF
:106E9000DDBF10BD303E002037B54308374AD35C14
:106EA000C2074CBF1B0903F00F0304460D46042B19
:106EB00025D8DFE803F003262F3C4000F9B101217B
:106EC000FFF78AFF00230DF107008DF8073000F06F
:106ED000D5FC0120A4F12003C4F12001284A20FAA6
:106EE00001F100FA03F30B43A040D2E90041204333
:106EF0000B43C2E900039DF8070000F0E3FC03B078
:106F000030BD002918BF0221204603B0BDE8304043
:106F1000FFF762BF49B10321FFF75EFF0121204661
:106F200003B0BDE83040FFF781BF0121ECE7002945
:106F3000E5D10421E8E709B10321E5E7FFF74CFFBC
:106F400029462046FFF772FF0DF107008DF8075024
:106F500000F094FC0120A4F12003C4F12001084AB0
:106F600020FA01F100FA03F30B43A040D2E90041FB
:106F700024EA000021EA0303BBE700BF383E0020FB
:106F8000303E00202DE9F041124E134F002433789B
:106F9000A34208DC114BD3E90023134318D0BDE80A
:106FA000F041FFF753BF3D6805EBC40815F8340006
:106FB00003F020FB98F801305A1E53425341181A2F
:106FC0004142414115F83400FFF766FF0134DEE726
:106FD000BDE8F081283E0020483E0020303E0020E1
:106FE000092AF7B505460C4616463ED903F03AFA8B
:106FF000E8B11F4B1F481D601F4B204F1C70204BDA
:10700000002110221E600DF004F81E4B002000210C
:10701000C3E90001013CE4B20326FF2C0DD11A4A5A
:107020001A48002103B0BDE8F04000F0CBB903F0EE
:10703000E1F90028DDD003B0F0BD9DF8063015F869
:1070400034008DF8046005EBC40223F007038DF8CB
:10705000063001A993788DF805303A4603F00CFA12
:10706000013CE4B20028D8D0E5E70720E3E700BF01
:10707000483E0020383E0020283E0020656E020079
:107080002C3E0020303E0020856F02002C8403003F
:1070900070B5084D084E00242B789C4201D3002087
:1070A00070BD3368012113F8340003F05DFA013438
:1070B000F2E700BF283E0020483E00201FB5002117
:1070C000039001AA44F20100CDE9011100F004F897
:1070D00005B05DF804FB00002DE9F041074686B0DD
:1070E0008846154672B6FFF73FFDFFF721FB0028E3
:1070F000FBD1294B294CE41AE40844F2010324048F
:107100009F4244F0010634D00BD8012F14D041F235
:1071100001039F422BD0224942463046FFF758FCDC
:107120000EE044F202039F42F5D1D5E900321D4939
:107130003046FFF756FC03E01B493046FFF744FC9E
:107140001A4DD5F8F030DB0700D500BE184944F0E1
:107150000200FFF739FCBFF34F8FEA68154B02F4CA
:10716000E0621343EB60BFF34F8F00BFFDE71249AE
:10717000E3E7AA680592104601F036FACDF80880D8
:10718000296801916968009103460C49059A3046C7
:10719000FFF74BFC0A49D0E7D081030000820300CF
:1071A000C38403006F8403003084030000ED00E01B
:1071B000DB8403000400FA054D8403008984030086
:1071C000AF84030049B152B1531E1A4007D1826007
:1071D00001608380C260104670470E20704709200E
:1071E000704710B58468C2688388121B934208D325
:1071F000C26813400268D154C3680133C3600020E1
:1072000010BD0420FCE78268C3689A420AD08268F5
:10721000838813400268D35C0B70836801338360FA
:10722000002070470520704710B5D0E90243D1E92E
:107230000202A04272EB03032CBF0120002010BD0C
:1072400008B50A4800F071FC094AD2E90031C018BB
:10725000084BD3E9002341F10001904271EB030395
:1072600003D210F1807041F1000108BDA03100206F
:10727000503E0020C83E002037B505460C460A485F
:1072800001A900F0A8FC60B10570446001A906489E
:1072900000F0CBFC18B1054800F04CFC002003B016
:1072A00030BD0420FBE700BFB43E0020A031002029
:1072B000294B73B51E7804461EB90026304602B02D
:1072C00070BD0028F9D0FFF7BBFFD4E9022390423C
:1072D000994139D300230DF107008DF8073000F0F4
:1072E000CDFA23692BB94FF0FF324FF0FF33C4E9D9
:1072F00002239DF8070000F0E5FAD4E9053098472D
:1073000000250DF107008DF8075000F0B7FA23694A
:10731000C3B1D4E90212B2F1FF3F08BFB1F1FF3FA0
:1073200005D05B1842F10002C4E9023235469DF8EF
:10733000070000F0C7FA002DBFD00848214601F031
:107340000EF9BBE71D46F2E7B3F1FF3F08BFB2F10C
:10735000FF3FB2D0F1E700BF583E0020F8840300A1
:1073600013B5114B11491868019008231048582291
:1073700000F0FCFB044698B90E4A0F4801A900F042
:10738000C5FA044660B90C48012100F0B1FB0123A5
:107390000A4A0948194600F013FB094B01221A70EA
:1073A000204602B010BD00BFF28403005C3E002006
:1073B000B43E0020A9740200A0310020FFFF7F002E
:1073C000583E002030B56AB103684FF0FF344FF0EB
:1073D000FF355A614A1E5142C3E9024551411961C4
:1073E000002030BD0720FCE7F7B5044600250DF16D
:1073F000070017460E468DF8075000F03FFAD4E913
:107400000223B3F1FF3F08BFB2F1FF3F07D1FFF7FF
:1074100017FF301841F10001C4E9020101259DF870
:10742000070000F04FFA55B12369A76103B1266147
:107430002146002003B0BDE8F040FFF71DBF2846FD
:1074400003B0F0BD37B5054600240DF107008DF8F7
:10745000074000F013FAD5E90223B3F1FF3F08BF5C
:10746000B2F1FF3F1FBF4FF0FF324FF0FF33C5E9CE
:10747000022301249DF8070000F024FA34B12946C4
:10748000012003B0BDE83040FFF7F6BE204603B050
:1074900030BD401A20F07F4070470000014800F0E6
:1074A00044BB00BFA03100202DE9F743064600F0A1
:1074B00027FB40B1624AD2E9003113F1807341F1F8
:1074C0000001C2E900310021304600F028FB38B14C
:1074D0005C4C236823B12068FFF7EAFE0023236099
:1074E0000121304600F01BFB20B1FFF7A9FE564BEF
:1074F000C3E900015548534C01A900F0A6FB4FF029
:10750000FF384FF0FF39A0B9DFF844814D4D4046B8
:1075100001F03BF8002800F08580D0E90223B3F1A8
:10752000FF3F08BFB2F1FF3F32D1404601F027F8DC
:10753000EDE70378012B20D0022B08D1444D2846DB
:1075400001F01DF8002877D0C0E90289F7E75BB9A0
:107550004168D1E90223B3F1FF3F08BFB2F1FF3F19
:1075600002D03B4800F0FBFF01A9384800F098FB2F
:1075700001A9364800F069FBC5E7416823689942D4
:1075800002D100232360EFE7314801F001F8EBE777
:10759000296891B12968D1E9020182428B412FD239
:1075A0002B68D3E90223B3F1FF3F08BFB2F1FF3FDD
:1075B00003D02968404600F0D2FF404600F0DFFFCC
:1075C000D0E902490746FFF73BFE201A69EB0109A3
:1075D000012879F1000318DBB0F5350F13D3FFF75D
:1075E0005DFF1C4A02441C484FF49603002100F042
:1075F00007FA90B92B6813B9304600F0D9F92F601B
:1076000003B0BDE8F0832246EDE71348002100F007
:107610007CFA3846FFF74CFE01E00D28F9D0002334
:107620002B6074E7074B1B68002BE9D1304603B091
:10763000BDE8F04300F0C0B9084B01221A7093E78F
:10764000503E0020D03E0020C83E0020B43E002026
:10765000F8840300FFFFB400A0310020583E002052
:107660000648074A03780749D35C012213B1043066
:1076700003F0D0BC0C3003F093BA00BFA831002057
:107680001C410020FC3E00200648074A03780749B9
:10769000D35C012213B1043003F06EBC0C3003F054
:1076A0002FBA00BFA83100201C410020FD3E002061
:1076B00037B50578012D0DD0022D30D075B91F4991
:1076C0001F48FFF7A0FD002834D103B0BDE83040CB
:1076D000FFF7DABF037A1BB9FFF7C2FF03B030BD73
:1076E0004368184C19782046FFF77BFD80B18DF870
:1076F00000500190144B68461B689847A168E368E6
:10770000A2885B1A9A42E7D2104B01221A70E5E771
:10771000A268E3689A42F1D08DF80000EAE7C368F6
:107720008DF800500193FFF79BFF074B68461B68DD
:107730009847D3E703238DF80030F6E7FD3E00209D
:10774000EC3E0020D83E0020D43E0020E83E002041
:10775000F0B51F46234B89B004461A600D46002938
:107760003DD08A8820480968FFF72CFD002834D1D5
:10777000AA89A9681D48FFF725FD00282DD11C4EB8
:107780000FCE6D460FC596E80F0085E80F006369C0
:107790000693237C174A18488DF81C70003B18BFCD
:1077A00001238DF81430637C002B14BF0E230023BB
:1077B0008DF81530E3680293A3680393236801935F
:1077C00069466368009302F04BFD30B90B4B1870AB
:1077D0002368013301D0FFF743FF09B0F0BD072054
:1077E000FBE700BFD43E0020D83E0020EC3E002046
:1077F00004850300B1760200A8310020E83E002095
:1078000070B5084D014608482E78FFF7FCFC044689
:1078100036B100232B70FFF723FF08B1FFF74EFCB2
:10782000204670BDE83E0020D83E002010B501463D
:107830000E48FFF7D6FC0446A8B90D480D4A037858
:10784000D35C63B1043003F08BFB60B90A4907488D
:10785000FFF7D9FC38B9BDE81040FFF715BF0C3071
:1078600003F042F9F1E7204610BD00BFEC3E0020D6
:10787000A83100201C410020FD3E002070B5EFF330
:10788000108672B60C4A946801239CB993600B4B26
:107890000B4DD3F8801029401160C3F88050D3F805
:1078A000841051604FF0FF32C3F88420047006B991
:1078B00062B670BD0370FAE7003F002000E100E00F
:1078C000FC06FFBD084B9A6810B55AB150B9EFF3EA
:1078D000108172B6054A1C6814605C685460986038
:1078E00001B962B610BD00BF003F002000E100E01A
:1078F000435882B03BB10023435043580193019B4E
:10790000012002B070471846FBE70000F8B5204B95
:107910004479204E43F824201F4A204B06EBC40430
:107920009B1A2279DB081B0432B143F002001C4988
:10793000FFF74AF80820F8BD02680C88C2F808452D
:1079400090F904508A7804795201002DD2B219DBE3
:1079500014494F1987F8002301226D0904F01F0410
:1079600002FA04F441F82540427906EBC2010124F1
:1079700046F832000C7143F003000B49FFF724F87E
:107980000020D8E7094904F00F040A55ECE700BFCE
:10799000143F00200C3F0020D08103001082030020
:1079A0002485030000E100E04685030014ED00E0BB
:1079B000036801221A607047036801225A60704709
:1079C00073B501F15005AD000068ADB24FF48034DD
:1079D0008C400026C0F80843C0F84843465101F5E2
:1079E000A8714559019522F07F42019D40F8212060
:1079F000C0F844430BB1C0F8044302B070BD0000AE
:107A00002DE9F74F0D4622F07F4402684FF480378E
:107A100005F150068F408046B60002EB8500C2F8A3
:107A20004873B6B2C2F80873D2F8041599464FF0FD
:107A3000000BD0F84035C0F8401542F806B05B1A8C
:107A40009259009223F07F43012B009A4FEA850A56
:107A50000CD1264B4FF4806043F001039847D8F8CF
:107A6000003043F806B09B590193019BD8F80010F1
:107A7000D1F80465C1F84473A31B23F07F43012BA5
:107A80001CD11A4B05F5A875013443F0010341F8E8
:107A900025404FF480609847D8F80030D3F804357B
:107AA0009E4209D1D8F800300020C3F84473C3F8CF
:107AB000047303B0BDE8F08F0D20FAE78A44C9F1E2
:107AC000FF13CAF84045D1F80405221A013A22F002
:107AD0007F4203F57F439342EED3002AE2D1013483
:107AE000CAF84045D1F804359842DAE760850300CA
:107AF00003680222C3F8442309B1C3F80423704782
:107B000000684FF48271FFF7F3BE4FF4803303FA3D
:107B100001F10368C3F84813C3F8081370475031E4
:107B20008900006889B2FFF7E3BE0368D3F8040553
:107B30007047000090F90430002B09DB5A0901213D
:107B400003F01F0301FA03F34032024941F82230E7
:107B5000704700BF00E100E0024B034A1B68106859
:107B6000184700BF143F00200C3F002010B561B142
:107B7000B2FBF3F403FB1424A4B244B9C0E900142B
:107B800084608281C381204610BD0E20FCE709205D
:107B9000FAE782B050E8022FC188B2EB324F4FF0C3
:107BA000000317BF92B241EA014142EA014104E0F9
:107BB0004268B2EB324F08BF012340E80212002AAC
:107BC000E8D18DF807309DF80730002B0CBF11204D
:107BD000002002B0704737B550E8013F9DB2C4891C
:107BE00025448489A54228BF2D1B0489A54202BFD4
:107BF000BFF32F8F002207E0C5EA030540E80154D8
:107C0000002CE9D14FF001028DF803200193019A75
:107C10000A609DF8031001F0FF0321B1006810FA1B
:107C200082F003B030BD1846FBE70A884B889A42C1
:107C300009D150E8012FC2EA024240E80123002B9B
:107C4000F7D1012070470020704737B550E8023F58
:107C50001FFAA3F5C488A54202BFBFF32F8F0022ED
:107C60000DE0C48925448489A54228BF2D1BC3EAA1
:107C7000054540E80254002CE8D14FF001028DF890
:107C800003200193019A0A609DF8031001F0FF039D
:107C900021B1006800EB124003B030BD1846FBE78D
:107CA0000A884B889A4209D150E8022FC2EA224240
:107CB00040E80223002BF7D10120704700207047D5
:107CC00001F01F024B090121914000EB830000F0FD
:107CD00065B84B0910B501F01F040121A14000EB6C
:107CE000830000F04FF8E04000F0010010BD01F00B
:107CF0001F0301229A404B0900EB8300D14300F09F
:107D000065B84B0901F01F0150F82300C84000F08E
:107D1000010070472DE9F0474F1E7F0980460E464F
:107D20000137002558F8254008EB8509E44394FA0B
:107D3000A4F4B4FA84F44FEA451A202C06D1013594
:107D4000AF42EFD834462046BDE8F0875444A642FF
:107D5000F5D921464046FFF7BCFF0028F3D0D9F8FB
:107D60000040E44394FAA4F4B4FA84F4E5E710B5CF
:107D7000034653E8000F0A4643E8002494F0000F3E
:107D8000F7D110BD10B5034653E8000F40EA0102D9
:107D900043E8002494F0000FF6D110BD10B503465F
:107DA00053E8002F42EA010043E8000494F0000F7A
:107DB000F6D110BD10B5034653E8000F00EA0102EA
:107DC00043E8002494F0000FF6D110BD10B503462F
:107DD00053E8002F02EA010043E8000494F0000F8A
:107DE000F6D110BD10B5034653E8000F00EB0102B9
:107DF00043E8002494F0000FF6D110BD10B50346FF
:107E000053E8002F02EB010043E8000494F0000F58
:107E1000F6D110BD10B5034653E8002FA2EB0100C8
:107E200043E8000494F0000FF6D110BD0121FFF7E4
:107E3000A9BF0121FFF7B2BF0021FFF7BBBF10B5FB
:107E400090B1D0E9012301689B1ADBB20A60013BC3
:107E5000DBB2FF2B026802D10020107110BD116847
:107E60004C1C14600B70F2E70E20F7E737B505469F
:107E700000240DF107008DF80740FFF7FFFC2A688A
:107E80006B68116899420ED9481E106011F8013CC8
:107E9000EC68298A01FB0344AB6811791B1ADBB239
:107EA000994238BF13719DF80700FFF70BFD20467C
:107EB00003B030BD37B5054600230DF107000C4671
:107EC0008DF80730FFF7DAFC2A681368591C116037
:107ED000E968641A298AB4FBF1F41C709DF8070064
:107EE000FFF7F0FC03B030BD826810B504462AB13C
:107EF00043690168006998470023A36010BD0EB470
:107F000003B5039921B104AB01AA019300F076F8FF
:107F100002B05DF804EB03B070470A2938B5044697
:107F20000D4602D10D21FFF7F8FFA3682268591C06
:107F3000A160D554D4E901329A4204D32046BDE869
:107F40003840FFF7D1BF38BD2DE9F84F9846DDE93D
:107F50000A43154682460F460A464FF00109AA42D7
:107F60000FD2C14538BFC14613F0010B01D16CB926
:107F700000240126B8F1010F1BD908F1FF386E4328
:107F8000F8E709F10109B2FBF5F2E8E79B070ED526
:107F9000B8F1000F0CBF30262026A145E9D2013CE4
:107FA00031465046FFF7B9FF002CF6D1E0E7202616
:107FB000F3E7B7FBF6F39D42E1D9DFF83C80B7FB6E
:107FC000F6F3504618F8031006FB1377FFF7A5FFEA
:107FD0003346AB42B6FBF5F6F1D2BBF1000F02D04F
:107FE0000CB1A14501D3BDE8F88F20215046013CDA
:107FF000FFF793FFF4E700BF668503002DE9F74F15
:10800000054617468846002900F03E8118F8011BF6
:1080100049B92B7B002B00F03781284603B0BDE81F
:10802000F04FFFF761BF252940F0B780002698F890
:1080300000302D2B424608F1010823D0302B24D0EC
:108040002B2B25D000242A2B02F1010123D13B68E0
:108050001A1D1B683A601C440A4613782E2B26D141
:1080600001324FF0000A104610F8011BA1F1300C4C
:10807000BCF1090F1DD80A2303FB0A13A3F1300A30
:108080000246F0E746F00106D1E746F00206CEE7E9
:1080900046F00406CBE711F8013CA3F130000928B3
:1080A000DBD80A2202FB0434303C0A46CBE74FF00F
:1080B000000A12F8011B01F0FB0068289046F8D076
:1080C000782909D86F290CD8632962D022D82529AC
:1080D00063D0582900F0888098F80030002B95D1A3
:1080E00097E770390829F7D801A353F821F000BFAA
:1080F00063820200D9800200D9800200F981020067
:10810000D9800200D7810200D9800200D980020004
:10811000E9810200642901D06929DDD13A68D2F8E9
:108120000090111D89EAE9723960A2EBE9724FF003
:10813000010B092A35DCD34538BFD3462CB1B9F140
:10814000000F01DB720700D5013CB30702D5BAF17D
:10815000000F03D0F00701D44CBB0024B9F1000F8D
:108160002DDAC9F100092D212846FFF7D6FE06F0C9
:108170000302022A04D1BAF1000F01D11CBB002472
:10818000CDE9004653460A2249462846FFF7DCFE61
:10819000A2E73B681A1D19783A602846FFF7BDFE32
:1081A0009AE70A230BF1010BB2FBF3F2C1E7A345F7
:1081B000D4D220212846013CFFF7AFFECCE771075F
:1081C000D5D52B21D0E7A345DAD230212846013C72
:1081D000FFF7A3FED2E73968CDE900460A1D3A60F1
:1081E00053460A220968D0E739680A1D3A60CDE98A
:1081F000004653461022F5E73B681A1D3A6016F018
:108200000106D3F8009024D1B9F1000F03D04846FD
:108210000BF054FF0646B4421DD809F1FF3919F896
:10822000011F00293FF458AF2846FFF776FEF6E716
:1082300028460136FFF771FE19F806100029F7D11C
:10824000A642BFF449AF20212846013CFFF765FE56
:10825000F6E70026F0E720212846013CFFF75DFE07
:10826000D9E73B681A1D3A60302128461C68FFF7A1
:1082700054FE78212846FFF750FE00220823CDE95E
:1082800000322146102280E703B0BDE8F08F00BF26
:108290002DE9F84FB0F806A04579D2F800B09DF866
:1082A00028900AFB05F5043D88460BEB0301A94223
:1082B00003F1040488BFA5EB030BB4FBFAF60746F1
:1082C0000AFB1644C2F800B04EB9AAEB04055D459E
:1082D00028BF5D46BBF1000F04D1BDE8F88F3F68B1
:1082E000013EF1E7043408EB06003C442A46B9F1AC
:1082F000000F0DD02146ABEB050B0BF061FEDA450C
:108300002E443F6855464FF0000428BF5D46E1E724
:1083100001462046EFE7FFF792BDF8B546790146E2
:10832000721E0546002393422D6803D30024A64203
:1083300002D8F8BD0133F6E70F682846FFF7BAFD0B
:1083400001343946F3E72DE9F843068ACD1C074688
:10835000FFF78CFD043E35440446B5FBF6F5F0B15D
:108360004FF48073EDB28380C680013D0760814683
:108370004FF00008A84512D23846FFF777FD0646B1
:1083800048B163790133637108F10108C9F800004D
:1083900007608146EEE72046FFF7BFFF34462046E0
:1083A000BDE8F88301210430FFF728BD10B5012195
:1083B00004460430FFF72EFDC0B220B92046BDE8C8
:1083C0001040FFF7AABF10BD1FB503920022009214
:1083D00003AAFFF75DFF05B05DF804FB1FB503922C
:1083E0000122009203AAFFF753FF05B05DF804FBDA
:1083F00033DF704741DF7047064B10B500241C7017
:10840000054B1C60BFF35F8F0449054800F091F8ED
:10841000204610BD213F0020243F0020808503001E
:10842000183F002007B500230DF107008DF8073035
:10843000FFF724FAF1EE103A23F09F03E1EE103A31
:10844000BFF35F8F0A4B4022C3F884219DF80700D9
:10845000FFF738FA09F080FF20B103B05DF804EBB4
:10846000FFF7C8BF20BF40BF20BF03B05DF804FBCB
:1084700000E100E070B5244D044601212846FFF7D5
:1084800076FCBFF35F8F38B9042C0AD01F4B1A78E3
:108490001AB1BFF35F8F286070BD1D4A14700122AE
:1084A0001A701C4C1A4E6368BBB9FEF75DFBFEF7F1
:1084B0003FF90028FBD1164B1B78023B012B15D846
:1084C000BFF34F8F1449154BCA6802F4E06213439F
:1084D000CB60BFF34F8F00BFFDE71B683078984734
:1084E0000028D6D0204600F02EF8DCE709F034FF53
:1084F00008B1FFF77DFF4FF080430122C3F800254C
:10850000BFF34F8F20BFFDE7243F0020213F002015
:10851000203F0020183F002000ED00E00400FA0595
:10852000836800225A60C3E904229A60DA601A6004
:1085300070470B684A684360934208BF002301609C
:1085400008BF43607047436843B10268916852684E
:108550000B449342436004BF00234360704770B5EF
:10856000446806460D46206818B1B3682946984706
:1085700018B923682B60256070BD2468F3E7436851
:10858000186808B102681A60704743681868704735
:108590004368186800B97047884203D102681A60BE
:1085A0000120704703460068F4E7000010B50D494C
:1085B000A1F59472914201D800200FE08C1AE30FCC
:1085C00003EBE4035B1002EBC30452F83330834245
:1085D00005D802D204F10802ECE7606810BD21461C
:1085E000E8E700BF8C8A030008B5FFF7DFFF024B06
:1085F000002808BF184608BD4F89030010B504467F
:10860000C0B2FFF713F9204610BD000070B5064D4B
:108610000646002455F8043B0BB130469847013418
:10862000042CF7D170BD00BF343F002043880333D2
:1086300000EB830399420BD382884FF6FF739A4273
:1086400008D0038833B18068431C584258417047B2
:108650000220704701207047033080B240F2FE33A1
:10866000984230B51FD8134B1A783AB91C895D89E6
:108670002C440444A4B2B4F5806F0AD91A7DAAB977
:108680009A8BDC8B2244024492B2B2F5806F0DD8F3
:1086900001220A801446142202FB04335A89104432
:1086A0005881002030BD48F20860FBE748F20660C0
:1086B000F8E700BF683F00200B4A0C49538814209C
:1086C00000FB0311CB6833B9042049681070012204
:1086D000074800F0D1BF07490523137002238B80A0
:1086E000012209680023F3E74C3F0020683F002087
:1086F000603100203040002007B500230549009379
:10870000054A09680548082300F01CFF03B05DF81E
:1087100004FB00BF30400020988A03006031002035
:1087200007B5002301460093034A0448082300F0DC
:1087300009FF03B05DF804FB908A0300603100205C
:1087400013B500230C4600930146084A0848042349
:1087500000F0F8FE38B9074B142101FB0431012366
:108760000B7402B010BD48F20D60FAE78C8A03006A
:1087700060310020683F002037B50A480A4B426844
:108780009C88196853880325033305709BB2002029
:1087900000909B0001EB8401044800F0D3FE03B07D
:1087A00030BD00BF4C3F0020304000206031002031
:1087B00010B501460448FFF70EFA1C2204460021BA
:1087C0000BF027FC204610BD1C40002068B1026859
:1087D000084B9A4209D14068074B984207D00133B1
:1087E000984214BF032001207047032070470020E7
:1087F000704700BFDEC0ADDEFE011EF12DE9F04185
:108800000D460223154F2B80164600F5805100F1CE
:1088100008044FF001088C420ED2236801330BD0BC
:108820002046FFF703FF48B10EB186F8008002280A
:1088300009D14FF480632B80BDE8F081A3683A68CA
:10884000934200D93B602B886288033313442B800A
:108850006388033304EB8304DDE700BF603F00203F
:1088600038B5144B14220D4602FB00302B684468C7
:1088700004F58051A3B15C88033403EB84048C427B
:1088800015D22368013312D02046FFF7CFFE01280E
:1088900008D002280BD00028F1D12C60012038BD6F
:1088A0000834ECE76388033304EB8304E7E7002034
:1088B000F5E700BF683F0020426873B504460D46E7
:1088C0006AB3234BD9688A4229D31B699A4226D8B6
:1088D00012F0030323D11F490089098988421ED160
:1088E0002068916888421AD11B4841688A4203D99E
:1088F00001F580518A420DD381698A420CD901F574
:1089000080518A4208D201222A80B3FA83F04009BA
:1089100002B070BD1A46F7E748F20963F5E7002692
:108920002E800196288801A9FFF79AFF30B92B887D
:1089300001339BB2012B2B80F3D9E9E7019B22681D
:1089400099689142EED16360024B1B892381DFE776
:10895000603100204C3F0020683F00202DE9F843A3
:108960001C461D4B1B7806460F46154673B382B353
:108970007CB3DFF86C804FF01409A388012B02D977
:1089800048F2096020E009FB03F318F803302BB923
:10899000A0882146FFF764FF20B92060A388013337
:1089A000A380EAE723681EB1998832889142EFD10B
:1089B0001FB119883A889142EAD19A68C5E9002323
:1089C000064B1B892B810020BDE8F88348F201602B
:1089D000FAE748F20460F7E7443F00204C3F0020EC
:1089E000683F002008B5074B5888191DFFF738FF6E
:1089F00018B1BDE80840FFF7BFBEBDE80840FFF76B
:108A00005BBE00BF4C3F00202DE9F0479F4FDFF8D1
:108A1000A08288B006463B6823B99D484146FFF7CF
:108A200014F938603D6829784B1E052B07D8DFE81C
:108A300013F0200074007400060106015D0148F285
:108A40000E641422002103A80BF0E3FA41F61D5333
:108A50009C4208BF00243B6804941A78023A042A16
:108A600000F2FC81DFE812F0DD01E9010B021302E4
:108A70001A022EB1874B00225A604FF40644E0E7F9
:108A80002B79032B1CD8DFE803F014022A35824A25
:108A90001378022B1AD0137D022B4FF0010317D14C
:108AA00014214B43D1180020D0544868FFF738FEFA
:108AB00003E001232B71FFF71FFE002800F0B980AF
:108AC000744B00225A6048F20D64BAE70023E7E7CE
:108AD000704A13700023536041F61D54B1E76F498B
:108AE0006F48002302222B718A800968012200F05E
:108AF000C3FDE2E76B4B684C5B88684A14214B432B
:108B0000E11800262E714D68106815609588486040
:108B10000D810221E6549180C8E7B5F814A0AA7D22
:108B2000DFF87491AEB1022AEB8806D9142101FB5B
:108B30000A91DA1C088902440A81142202FB0A996C
:108B4000C3F57F43B9F80A20FD331344A9F80A306E
:108B500093E7142303FB0A9318895C6804EB8004F1
:108B6000062A69D8DFE802F0274E36441D5A040071
:108B700041F61D54AA7DEB88022A06D9142101FB77
:108B80000A91DA1C088902440A81142202FB0A991C
:108B9000C3F57F43B9F80A20FD331344A9F80A301E
:108BA0004FE74148414900234360AB690360FFF749
:108BB00083FE00285BD00223AB75002300930423BF
:108BC000EA182146364800F0BDFC002831D048F2B2
:108BD0000D64CFE72B69002B14BF03230123AB7572
:108BE0000023009305F10C02042304F10801E9E7D6
:108BF0000123AB750022EB8800922A699B0004F1E7
:108C00000C01DFE703290CBF05230623AB75002306
:108C10000093042305F10802E118D3E70623AB759E
:108C2000224B1988204B5868FFF78AFD044600281C
:108C3000A0D108B0BDE8F08748F20E649AE7002E94
:108C40007FF41BAF2B79012B34D0022B3FF444AFC0
:108C5000002B7FF4F4AE02232B710DF10A01EB68B7
:108C6000039303A8CDE90466FFF726FE10B948F286
:108C70000964E6E60498BDF80A108388EB8003884F
:108C80002B81FFF75DFD044629E000BF643F002013
:108C90001C400020443F0020683F0020304000205E
:108CA000603100204C3F0020283F00203C40002045
:108CB0005C3F0020DFF8009203AA4B463146A81D16
:108CC000FFF74CFE044670B9B9F804100498FFF79A
:108CD00037FD044648F209639C423FF4FDAE002C88
:108CE0007FF4AFAEA5E7C9E90066F3E7002E7FF495
:108CF000C4AE6C4B1A7BBAB11E731A78013A062ABD
:108D00003FF69DAE01A151F822F000BFB78D0200E1
:108D1000DD8D0200FB8D0200018E02003F8A020001
:108D2000078E0200198E02001A78072AE5D801A1E1
:108D300051F822F0558D0200FB8C0200FB8C0200E2
:108D40007B8D02008F8D0200B38D0200B38D020077
:108D5000778D02001A89544901321A8100225A8003
:108D60001A730A78B2FA82F252099A720A7DB2FA3A
:108D700082F25209DA72012207E04C4958688A8867
:108D80004088033202448A8002221A70B5E75C8868
:108D9000454A4649142505FB04220868546850607A
:108DA0008888108102200C608880002111740622BE
:108DB000EBE70722E9E79A7A32B9DA7A8AB9002230
:108DC0001A705A805A6087E6374900229A72CA6838
:108DD000002AF2D1097C0029EFD05A80FFF702FE69
:108DE00051E70022DA72304A116A0029E7D192F87D
:108DF0002420002AE3D00122EFE7FFF7BDFC42E781
:108E0000FFF75AFC3FE75A88274B142101FB023336
:108E10005868FFF785FC36E700225A60FFF76CFCC4
:108E200031E701228DF80C201A89ADF818209A88B4
:108E3000DB68ADF81A20059310E002228DF80C20B3
:108E40001A89ADF818209A88ADF81A20DA689B7D47
:108E500005929A1F534253418DF81C3003A8FFF727
:108E6000D5FB0026414612483E60FEF719FF114827
:108E70000121FEF7CFFF00287FF4CDADD9E6032214
:108E80008DF80C20DA88ADF818201A89D0E7042272
:108E90008DF80C20DB88ADF81830DFE705238DF85E
:108EA0000C30DBE74C3F0020683F002030400020C2
:108EB0001C4000202C400020404000204068FFF76C
:108EC000A3BD000008B505480121FEF78BFF18B9C6
:108ED000BDE80840FFF798BD08BD00BF2C4000204A
:108EE0002DE9F3419846374B1B7806460D46002B7B
:108EF0005CD000295DD009884FF6FF7399425BD0A2
:108F00006B88002B58D06B689B0758D14AB92F89C2
:108F10000DF102013846FFF79FFB30B102B0BDE80A
:108F2000F08113885788ADF8023001A8FFF740FCA4
:108F3000044660B9BDF80220234B142101FB023323
:108F400058890338C01B588148F20760E6E780F86B
:108F5000008000238375BDF8023083826B68036153
:108F600001211A48FEF74AFF2B882381B8F1030F2D
:108F70006B88A38004BF0423A3754FF0000508BFCE
:108F80003368E06008BFA3611148E780658101A9EB
:108F9000FEF74BFE36B1E36833600E4B75601B89FC
:108FA000B5723381FFF78EFF0020B7E748F201600A
:108FB000B4E748F20460B1E748F20360AEE748F274
:108FC0000260ABE7443F0020683F0020603F002084
:108FD0001C4000204C3F002008B5034607480268AB
:108FE000042A08D00168064A42F821300121FEF720
:108FF00005FF002008BD48F20B60FBE73840002069
:10900000343F00202DE9F04FDFF8208289B0142290
:10901000002103A80AF0FDFF98F8003003F0FF02DA
:1090200000923BB103A8FFF7F1FA0027384609B0D8
:10903000BDE8F08F08F10400FEF7F8FE0028F4D137
:10904000009BDFF8ECA1D3F8F83F5C1C08BF4FF0A1
:1090500010234FF0805208BF5B6911695269581C98
:1090600008BF02FB01F3CAF810306949A3F5405369
:1090700000225046CAF80C3000F032FA07460028A9
:10908000D4D11C2363496448DFF8A8B18C22FEF7D1
:109090006DFD0323B9463D4601933C46DAF80C606A
:1090A0004E443046FFF792FB012867D0032817D0C3
:1090B00000283DD159494FF0140C0CFB04FC01EB86
:1090C0000C0201F80C0056600CF110020CF1080CB7
:1090D0000A4430466144FFF791FB45F002054AE03F
:1090E0003268531C02D04E4B9A4239D1321D06F5DC
:1090F00080511068013033D104329142F9D1DBF84C
:1091000000203AB902220123CBF80060ABF804201A
:1091100000930BE014226243404B022099189854AC
:10912000404A4E60548001340881A4B245F00105E4
:1091300009F58059B9F5405FB0D1019B012B98BF6B
:109140000025EDB2022D03D0062D36D0002D3ED1E4
:10915000002388F8003048F20A67C8F8043065E751
:10916000019B2E495A1E93B2142262438818019320
:109170004660032088540134A4B2D9E7009B6BB148
:10918000264B14226243991802209854DBF80020E1
:109190004A60244A088154800134A4B20022224942
:1091A000CBF800603046FFF729FBBBF80420022A09
:1091B0000CBF042208221543BAE7012388F80030C7
:1091C00003A80023C8F80430FFF720FA2EE702A80E
:1091D000FFF7EEFAC8B10123013D03700A2D09D84B
:1091E000DFE805F006080608070807080F110F005A
:1091F0000023037102A90848FEF717FDFFF762FE7E
:1092000014E70323F5E70223F3E748F207670DE7C6
:109210007C8C0300903F00201C400020683F002011
:10922000DEC0ADDE4C3F002034400020443F002033
:10923000603100203040002073B50D460446C8B1AF
:10924000C1B10DF10601FFF737FBB0B1BDF8063033
:109250000B486668142202FB030001210C30FEF764
:10926000CDFD63682E600C336B600123A372002078
:1092700002B070BD48F20460FAE748F20960F7E70F
:10928000683F002013B50446A8B10DF10601FFF7B1
:1092900013FB98B1BDF806200B4B142101FB0233E0
:1092A000DA6872B1A27A62B1DA680020013ADA6053
:1092B000A07202B010BD48F20460FAE748F20960FB
:1092C000F7E748F20560F4E7683F00200223002238
:1092D000FFF706BE18B103230022FFF701BE48F2D4
:1092E00004607047114B1B7813B50446ABB14FF6C1
:1092F000FF73984214D001A8FFF75AFA98B10523DA
:10930000037001230371C48001A90948FEF78DFC95
:10931000FFF7D8FD002002B010BD48F20160FAE767
:1093200048F20360F7E748F20760F4E7443F0020A3
:109330001C4000200F4B1B7807B5A3B101A8FFF715
:1093400037FA98B10623037001A90B48FEF76DFCAC
:109350000A4B1A780AB101221A73FFF7B3FD0020F5
:1093600003B05DF804FB48F20160F9E748F20760DA
:10937000F6E700BF443F00201C4000204C3F002087
:1093800007B5ADF80600ADF804100DF1060001A90F
:10939000FFF7E4FA03B05DF804FB07B51346ADF838
:1093A00006000A4600200DF10601FFF7D7FA03B0C8
:1093B0005DF804FB07B51346ADF806000A460DF14B
:1093C00006000021FFF7CAFA03B05DF804FB20B1E4
:1093D00019B103680B600020704748F204607047C1
:1093E0002DE9F84F3C4B1B780446002B6DD000282C
:1093F0006ED0DFF8E890122200210AF00AFE032363
:1094000023804FF0000A4F4614264FF00108D9F888
:109410000410B9F80AB0B9F808500846FFF7D6F9B1
:10942000032808BF2388628804BF03F1FF33238029
:1094300006FB0A735D44DB681344638023899B4405
:109440006389A4F808B0ADB22B446381C5F580658B
:10945000A389ADB2AB4238BFA58101F1080501F582
:109460008051A94229D92B68013326D02846FFF71D
:10947000DDF801280AD0022815D00028F1D1A388F0
:109480000133A3800AE04FF0010AC0E7E38801330B
:10949000E380E3896A8803331344E3816B880333F1
:1094A00005EB8305DDE7E38884F810804D1BE18937
:1094B000013301EBA501E380E18109F11409BAF15F
:1094C000000FE0D00020BDE8F88F48F20160FAE715
:1094D00048F20460F7E700BF443F0020683F0020E7
:1094E00013B50B46114680B9104B1148114AC01AEA
:1094F0000E23C0080093104B0004104940F00100F7
:10950000FDF779FA0E2002B010BD4BB9074B0848A1
:109510000B4AC01AC0080E2300930004064BECE768
:1095200003601B6802B0BDE810401847D0810300FB
:1095300058820300A08A03005C8C0300A58A030004
:10954000D48A03002DE9F743DDF8288088B93E4B23
:109550003E483F4AC01AC0080E243E4B0094000407
:109560003D4940F00100FDF746FA204603B0BDE852
:10957000F0834AB9344B3548384AC01AC0080E2423
:10958000344B00940004EBE7D0F800E0BEF1000F8C
:1095900009D12D4B2D48324AC01AC00808242D4B42
:1095A00000940004DCE74BB9274B28482D4AC01A29
:1095B000C0080924274B00940004D1E74568D5F87A
:1095C0000490B3FBF9F509FB15354DB11E4B1F484F
:1095D000254AC01AC00809241E4B00940004BFE7A6
:1095E0008D0709D0184B1948204AC01AC00810240A
:1095F000184B00940004B3E712F0030F09D0124B8C
:1096000012481B4AC01AC0081024124B00940004D0
:10961000A6E7C568A9420DD34D1EEC180569AC42FA
:1096200008D8CDF82880DEF80C40A44603B0BDE889
:10963000F0436047044B05480E4AC01AC008102486
:10964000044B009400048BE7D08103005882030090
:10965000A08A0300498C0300A58A0300228B030023
:10966000CE8A0300E18A0300288B0300528B03009B
:109670006A8B03008D8B0300F7B580B92A4B2B480A
:109680002B4AC01AC0080E242A4B009400042A4911
:1096900040F00100FDF7AFF9204603B0F0BDD0F86F
:1096A00000C0BCF1000F09D11F4B2048234AC01A4B
:1096B000C00808241F4B00940004E8E74AB91A4B7D
:1096C0001A481F4AC01AC00809241A4B0094000403
:1096D000DDE74568D5F800E00EF1FF350D4209D011
:1096E000114B1248174AC01AC0081024114B00949D
:1096F0000004CCE7C568A9420CD34D1E0EFB0254F2
:109700000569AC4206D8DCF81040A44603B0BDE8B9
:10971000F0406047044B05480B4AC01AC0081024AB
:10972000044B00940004B2E7D08103005882030088
:10973000A08A0300368C0300A58A0300CE8A0300AA
:10974000E18A0300B48B0300DA8B030029DF704742
:1097500028DF704770B503689E6886B004460D46E2
:109760006EB11422002168460AF053FCA3680593E9
:10977000237901952BB1012B0DD06846B04706B077
:1097800070BD01238DF8003023690293E3680393D1
:1097900063690493F1E702238DF80030E3681B034B
:1097A0000293F5E70846704700207047024B187A8D
:1097B000003818BF01207047E4400020034B187A9E
:1097C0000122B0FA80F05A7440097047E44000204A
:1097D00008B510461A460AF0F3FB002008BD000049
:1097E00008B51422002104480AF013FC0348FEF7D0
:1097F000D0F9002008BD00BFE4400020D440002084
:1098000010B5094C094B43602046FEF70FFB40B9E9
:1098100008F0A2FD064920741C2306488C22FEF79E
:10982000A5F9002010BD00BFE4400020708C0300AB
:1098300048400020D440002038B5234D234C2B7ADB
:109840003BB923492348FEF700FA206008B9686055
:1098500038BD022324682B72237973B1012B24D0E5
:1098600020460321FFF776FF00232B726B60184917
:109870001848BDE83840FEF713BAD4E90523D21AD8
:10988000B2F5805FD4E9031028BF4FF480529208EC
:10989000012A38BF012219441844FFF757FF50B17D
:1098A0001128DDD101232B72D2E7D4E90303184438
:1098B000FFF74EFFF3E72B7C002BC9D1BDE8384002
:1098C000022000F009B800BFE4400020FC40002066
:1098D000F8400020D440002038B5234C237A002BD8
:1098E00041D0022B09D1032830D0204B00221B6825
:1098F000E2601A793AB1012A22D0637C7BBBBDE8D1
:109900003840FFF799BFD3E905128D1AB5F5805F8E
:1099100094BF521902F580529A619142EDD102280A
:109920004FF0000308BF19462372104B18BF0D21DA
:109930001868FFF70FFF0E490E48FEF7B1F9DCE794
:109940001A6901321A615B699A42E7E7E3680133F9
:10995000082B01D8E360D0E70023E360DFE7BDE830
:10996000384008F0E9BC38BDE4400020FC4000204D
:10997000F8400020D4400020831E012B01D8FFF7BF
:10998000ABBF704700F0FD03012B08D1044B002250
:109990005A74421E504250411874FFF74DBF704731
:1099A000E440002010B5064C201DFEF73FFA28B910
:1099B000637C1BB9BDE81040FFF73EBF10BD00BF80
:1099C000E44000202DE9F34180460D46104801A9EE
:1099D00016461F46FEF7FFF80446B0B118220021D4
:1099E00004300AF016FB2D0B0123237101A908484E
:1099F000C4F80080A760E5606661FEF716F9FFF71E
:109A0000D1FF002002B0BDE8F0810420FAE700BFDA
:109A1000D44000202DE9F34180460F460F4801A9AC
:109A200016461D46FEF7D7F80446A8B118220021B5
:109A300004300AF0EEFA089BA36001A9C4E90367A9
:109A40000648C4F800806561FEF7EFF8FFF7AAFF4B
:109A5000002002B0BDE8F0810420FAE7D4400020E5
:109A6000026813685268934291BFD01A806801302F
:109A7000801888BFC01A7047F8B515460268176885
:109A800016685268964284BF82680132961B0B4664
:109A9000C2684168B542044607FB02110BD86A430D
:109AA00018460AF08DFAA3683D449D4288BF002500
:109AB00023681D60F8BD06FB02F73A4618460AF017
:109AC0007FFAE2686168AD1B6A4338440AF078FAAD
:109AD000EEE7036881681A685B688B4234BF013324
:109AE0000023D31A58425841704773B500230446E7
:109AF0000DF107000D468DF80730FDF7BFFE20463B
:109B0000FFF7E7FF10B1237C002B3BD12368A1684E
:109B10005E685A688A4234BF013200225A6028B116
:109B20001A688A4234BF013200221A60E268636810
:109B3000511E072920D8DFE801F004101F141F1F51
:109B40001F182A789A552046FFF78AFF23689A68DB
:109B5000824200D29860002415E02A8823F816205B
:109B6000F1E72A6843F82620EDE7D5E9000103EB89
:109B7000C603C3E90001E6E7294602FB06300AF006
:109B80001FFAE0E704249DF80700FDF79BFE20463E
:109B900002B070BD7FB5054601911446AAB10DF122
:109BA0000F0000268DF80F60FDF768FE2846FFF7CE
:109BB00057FFA04201990BD322462846FFF75CFFCE
:109BC00034469DF80F00FDF77DFE204604B070BDC1
:109BD0000524F6E737B5054600240DF107008DF89A
:109BE0000740FDF74BFE2B681C609DF807005C608A
:109BF0009C60FDF767FE03B030BD036818685B68C2
:109C0000C31A58425841704773B5002305460DF1F9
:109C100007000C4616468DF80730FDF72FFE284644
:109C2000FFF7EBFF002832D12B6819682EB91A68AC
:109C3000A868824238BF561C1E60EA686B68501ED6
:109C400007281ED8DFE800F0040E1D121D1D1D168A
:109C50005B5C237000249DF80700FDF733FE20466F
:109C600002B070BD33F811302380F3E753F8213090
:109C70002360EFE703EBC103D3E90023C4E900232A
:109C8000E8E701FB023120460AF09AF9E2E70524F1
:109C9000E1E74FF08053D3F83001421C04BF4FF08E
:109CA000704393F8E00F831F5842584170470000FB
:109CB0004FF0704393F8E02F062A09D1D3F8E83F1C
:109CC000C3F30313033B042B02D8024AD05C704752
:109CD00000207047AB8C0300024AD2F80034002BFE
:109CE000FBD0704700E0014010B5FFF7D2FF40B154
:109CF0004FF08053944AD3F82433C3F30423C2F8BB
:109D00004035FFF7D5FF10B1904B914A5A67FFF7E6
:109D1000C0FF48B14FF080534FF08042D3F8443237
:109D2000C3F34233C2F83C35FFF7C2FF30B1894A72
:109D3000D2F8FC3023F08073C2F8FC30FFF7A9FFA3
:109D400040B14FF080430022C3F80C21C3F810212A
:109D5000C3F83825FFF7ACFF20B14FF08043032252
:109D6000C3F8A025FFF7A4FF60B17B4B0522C3F821
:109D700010260122C3F888260022C3F818263F22A5
:109D8000C3F814264FF08053D3F83021511C09BF7B
:109D90004FF07043D3F8343193F8E02FD3F8E83F15
:109DA00008BFC3F30313062A4DD1033B042B03D88A
:109DB0006A4AD35C002B46D04FF08052684BD2F8F1
:109DC0000414C3F82015D2F80814C3F82415D2F8E7
:109DD0000C14C3F82815D2F81014C3F82C15D2F8B7
:109DE0001414C3F83015D2F81814C3F83415D2F887
:109DF0001C14C3F84015D2F82014C3F84415D2F847
:109E00002414C3F84815D2F82814C3F84C15D2F816
:109E10002C14C3F85015D2F83014C3F85415D2F8E6
:109E20003414C3F86015D2F83814C3F86415D2F8A6
:109E30003C14C3F86815D2F84014C3F86C15D2F876
:109E40004424C3F87025FFF724FF48B14FF0805336
:109E50004FF08042D3F8583203F04F03C2F8E43E8B
:109E6000FFF717FF48B14FF08043D3F80024D20723
:109E700044BF6FF00102C3F800244FF08053D3F8C1
:109E80003021062A0ED1D3F83431033B042B02D8FB
:109E9000344AD35C33B1344AD2F83C3743F480635C
:109EA000C2F83C372B4AD2F8883043F47003C2F82A
:109EB0008830BFF34F8FBFF36F8F4FF08053D3F8CD
:109EC0003021062A0FD1D3F83431033B042B02D8BA
:109ED000264AD35C3BB14FF01023D3F808224FF051
:109EE0008043C3F858254FF01023D3F80022002AEE
:109EF00003DBD3F80432002B22DA1D4901234FF093
:109F00001020C1F804351524FFF7E6FEC0F8004222
:109F1000FFF7E2FEC0F80442FFF7DEFE0023C1F8BF
:109F20000435FFF7D9FEBFF34F8F0A49114BCA68BA
:109F300002F4E0621343CB60BFF34F8F00BFFDE735
:109F40000D4B0E4A1A6010BD0030014000C00740A2
:109F50000DF0ADBA00ED00E0005000409C8C030015
:109F600000C00040A18C030000100040A68C03003C
:109F700000E001400400FA05BC3100200090D0034D
:109F8000054A4FF0A043105CD3F8043523FA00F0E3
:109F9000C04300F001007047B48C0300044B1A5C0E
:109FA000012393404FF0A042C2F80C35704700BF28
:109FB000B48C0300044B1A5C012393404FF0A04281
:109FC000C2F80835704700BFB48C030008B5002004
:109FD000FFF7F0FF0120FFF7EDFF0220FFF7EAFF98
:109FE000BDE808400320FFF7E5BF08B50020FFF7F4
:109FF000D5FF0120FFF7D2FF0220FFF7CFFFBDE81A
:10A0000008400320FFF7CABF074A4FF0A041105C89
:10A01000D1F804350122824022EA03001340C1F83E
:10A020000805C1F80C357047B48C0300054A4FF0A1
:10A03000A043105CD3F8103523FA00F0C04300F0C1
:10A0400001007047B08C03000D2809D00E2809D0FC
:10A050000F2809D010280CBF03204FF0FF307047A5
:10A06000002070470120704702207047014B185CA8
:10A07000704700BFB08C0300C20708B501460CD57D
:10A080004FF0A0430322C3F84427C3F84827C3F87E
:10A090004C27C3F85027FFF799FF8B070AD54FF0DD
:10A0A000A0430C22C3F83427C3F83827C3F83C2751
:10A0B000C3F8402708BD000038B5074C051E04F161
:10A0C000080318BF1C4623682BB11A6822605B681E
:10A0D00028469847F7E738BD0841002020B9054BCE
:10A0E00001225A70FFF7E8BF012802D1014A90709F
:10A0F000F8E770470041002020B9034B01225A7055
:10A10000FFF7DABF704700BF0041002038B50E4CA2
:10A110002378B3B90D486360A3602361E36000F066
:10A12000E7F8054608F018F908B900F0EDF8012342
:10A130002370074BD3F800340BB10123A3702846DA
:10A1400038BD8525F5E700BF00410020DDA00200F5
:10A150000000014037B50D4C00230DF107008DF8CC
:10A160000730FDF78BFBE368013BE360E36833B93D
:10A17000074BD3F8005415B900F0D8F8A5709DF836
:10A180000700FDF79FFB03B030BD00BF004100207A
:10A1900000000140012813B50CD0032820D038B9A5
:10A1A000134B0122C3F88020BFF34F8FBFF36F8F93
:10A1B00002B010BD0F4C00230DF107008DF80730E1
:10A1C000FDF75CFB23780BB9FFF7A0FFE3689DF870
:10A1D00007000133E3600123A370FDF773FBE7E79A
:10A1E00000F092F802B0BDE81040FFF7B3BF00BF27
:10A1F00000E100E0004100201FB503788DF8003039
:10A200004368019383688DF80830C368054A039357
:10A21000054B684653F8213052F82110984705B095
:10A220005DF804FB14410020184100201FB503789D
:10A230008DF800304368019383688DF80830C36857
:10A24000054A0393054B684653F8213052F8211014
:10A25000984705B05DF804FB144100201841002028
:10A26000F0B5194B90F800C091F81DE043F82C2090
:10A27000164B16460A6943F82C20154B03F80CE0E0
:10A280000C4607460FCC89B06D460FC594E80F0009
:10A2900085E80F00CDF810C0BEF1000F09D0002EE8
:10A2A0000C4A694608BF3246381D00F097FD09B0D8
:10A2B000F0BD002E084A694608BF324607F10C007F
:10A2C00000F05EFBF3E700BF1841002014410020BE
:10A2D0001C410020F9A102002DA2020000F18040E3
:10A2E000002382B0036003680193019B02B07047B2
:10A2F000044A137923B901211060918018467047F0
:10A300008520704720410020074B1A68D20704D4EB
:10A31000C02283F8002301221A604FF080430122FB
:10A32000C3F81825704700BF00E100E04FF08042FD
:10A3300008B50223C2F808334FF48270FFF7CEFF4E
:10A340000123D360D2F81834DB03FBD408BD00002E
:10A350004FF0804110B5D1F8003163B14FF48070F7
:10A36000FFF7BCFF0D4B58790122C1F8082310B943
:10A370005A711B6898474FF08042D2F8043163B19C
:10A380004FF48270FFF7AAFF0223C2F80833034B91
:10A39000BDE810401B680120184710BD2041002077
:10A3A00000F1804000F5C040002382B003600368E4
:10A3B0000193019B02B07047800000F1A040D0F8EB
:10A3C000002722F44032C0F80027D0F8003743EAD3
:10A3D0000141C0F800177047054B4FF0FF320728C6
:10A3E00043F8202084BFC01880F84820704700BF81
:10A3F0002841002010B5184991F8583053BB4FF050
:10A40000FF3222FA03F0C00748BFC81803F1010366
:10A4100048BF80F83020202BF3D10024E0B2013473
:10A42000FFF7DAFF0C2CF9D10C4B0022C0204A6553
:10A4300083F80603402018604FF4BE70FFF7B0FFAA
:10A44000074B4FF00040C3F80403012381F8583054
:10A45000104610BD0820FCE72841002000E100E084
:10A4600000600040034B93F85800003818BF0120EB
:10A47000704700BF28410020F0B5394E331893F9DA
:10A480003030002B69DA8D78C5F34005002D0BBF05
:10A49000082300230C240824A34201D10420F0BD8A
:10A4A00056F82370013743D137185CB246F82320A1
:10A4B00087F8304015B9F21882F848008A785507B5
:10A4C00016D4D70736D5820002F1A042D2F8005741
:10A4D00025F00205C2F80057224FC50800F0070C0E
:10A4E000012202FA0CF217F805C042EA0C027A5572
:10A4F0008A780D7812F0020225D09B0003F1804388
:10A5000003F5C0430002D3F8102522F4473222F4A9
:10A510004072C3F810252D04D3F8102500F4F8502C
:10A5200005F4403528431043C3F810050020B6E772
:10A530000133B1E74D7800F5E0724FF0A047AD0070
:10A5400047F82250C8E7083C46FA84F494F85000D3
:10A5500040EA851584F85050E8E708209FE700BFDF
:10A56000284100207C41002038B5204C251895F961
:10A570003020072A18DD083A44FA82F494F8503063
:10A580009B09032B0BD14FF0A043D3F81015C1400A
:10A5900001F001010231BDE83840FFF70DBF012B8A
:10A5A0000CBF02210321F6E7D3B2072B1DD893007D
:10A5B00003F1804303F5C043D3F8100540F00100D8
:10A5C000C3F8100502F1400040B2800080B2FFF7EE
:10A5D000E7FE51B195F9303054F823302BB1012307
:10A5E00003FA02F2024BC3F8042338BD28410020CD
:10A5F000006000404FF0A043D3F8103523FA00F07C
:10A6000000F00100704700002DE9F74F00244E4D87
:10A6100001944FF48072012102F1804303F5C0439D
:10A6200090B21B68012B06D1D5F804330B4202D03F
:10A63000FFF7B6FE0C430432B2F5907F4FEA4101BA
:10A64000EAD1414BD3F87C31012B0CD14FF4BE70D1
:10A65000FFF7A6FE4FF0A04344F00044D3F82025B6
:10A660000192C3F82025E3B2D3B1384F002501266B
:10A67000344210D0AB0003F1804303F5C043D3F85C
:10A680001005D3F8101557F8253023B1C1F3014157
:10A69000C0F3042098470135082D4FEA4606E7D15C
:10A6A000002C48DA294D4FF0A048294E4FF0000900
:10A6B000012716F9013B5A1C31D0C3F3C2020832FC
:10A6C0006A44DCB212F8042C03F03F0A03F00703DB
:10A6D00007FA03F31A4222D00AF5E073504658F8FD
:10A6E0002330C3F3014BBBF1020F0CBF0321022146
:10A6F000FFF762FE07FA0AF3C8F8203505EB0A03F4
:10A7000093F9303055F823304BB1A109032904D017
:10A71000BBF1020F12D1012901D15046984709F12E
:10A720000109B9F1040FC4D1D8F820350193C8F854
:10A730002035002BB9D103B0BDE8F08FBBF1030F7A
:10A74000EDD10229E8E700BF006000402841002069
:10A7500078410020014B1B68184700BF844100204E
:10A760000E4B984237B50C4602D0002003B030BDE6
:10A7700000230DF107008DF80730FDF77FF8084B37
:10A780001D7915B901221C601A719DF80700FDF7AB
:10A7900099F8002DE9D01120E8E700BF0020004023
:10A7A000844100200023435082B043580193019B11
:10A7B00002B070470A4610B54FF48E71FFF7F2FFF2
:10A7C000136A9168C95C136A01331362C0F81C15DF
:10A7D00010BD024608B500684FF49271FFF7E2FF22
:10A7E00010684FF48471FFF7DDFF136801221A60CF
:10A7F00008BD8B690A4610B54FF4847123B9FFF781
:10A80000D1FFD0F8183510BDFFF7CCFF536AD168DF
:10A81000D0F81805C854536A01335362F3E70000B7
:10A820001FB501238DF80030044BCDE90110D3E9A9
:10A8300000126846904705B05DF804FB8C4100208B
:10A8400030B54D4DD5F804339A0585B051D5D5F8BE
:10A850002431002B4DD04FF492712846FFF7A2FF10
:10A860004FF40173C5F80833444B93F829200AB913
:10A8700001226A60404902228DF80020D1F880242C
:10A88000C1F8802403929A690292DA680192002248
:10A89000C3E906226846D3E9001290473648D0F84B
:10A8A0001C315BB1354A5169136A99424DD992F80E
:10A8B0002830002B49D11146FFF77CFF2E48D0F8F5
:10A8C0004431002B56D04FF4A271FFF76BFF2B4B96
:10A8D00093F829200AB1012202609A69002A49D01E
:10A8E000586AD96800229A6105B0BDE83040FFF788
:10A8F00097BFD5F804335B07D0D5D5F80831002BC6
:10A90000CCD01E4C1C482146FFF773FF636AA26936
:10A910009A42C3D1E369E1684BB1A3612369E36063
:10A920000023606AE3616362FFF77AFFB6E794F899
:10A9300029300BB901236B600F4B4FF40172C3F840
:10A9400008230023606AA361EEE70B484FF48E7181
:10A95000FFF728FF5369002BB0D051690291002303
:10A9600091688DF80030019153616846D2E9001377
:10A970009847A3E705B030BD002000408C4100207F
:10A980002DE9F843534D90F804802C2303FB085322
:10A99000064693F82A300C469146002B40F09680EC
:10A9A0004D490068FFF7DCFE0746002840F0908024
:10A9B00022683068511C0BD04FF0A0410123934016
:10A9C000C1F8083502F5E0734FF0030C41F823C0DD
:10A9D00061684B1C1FBF01F5E0734FF0A04C4FF0B6
:10A9E0000C0E4CF823E0A369C0F8243594F814C089
:10A9F000637DBCF1010F4CEA0303C0F86C35C0F86D
:10AA00001415C0F80C251DD1A268531C1FBF02F5F8
:10AA1000E0734FF0A0414FF0000C41F823C0E36811
:10AA2000591C0BD04FF0A04C01219940CCF80815CF
:10AA300003F5E0714FF0030E4CF821E0C0F8083543
:10AA4000C0F810252C2202FB08F2AB18C3F80490C2
:10AA50002369AB50B9F1000F20D04FF48E71247FE1
:10AA6000FFF7A0FE4FF4A2713068FFF79BFE32683B
:10AA70001A4BC2F80433130B42F307326101002A68
:10AA8000C9B21EDB1648841884F80013012152094C
:10AA900003F01F0301FA03F340F822303368042265
:10AAA000C3F800252C2303FB08530022C3E9062228
:10AAB00083F829205A61012283F82A203846BDE80C
:10AAC000F883084A03F00F03D154E7E70827F5E7B6
:10AAD0001127F3E78C41002041A80200800002000A
:10AAE00000E100E014ED00E00279044B2C2101FBB1
:10AAF00002335869003818BF012070478C4100208C
:10AB00002DE9F84F064690F8048089469246FFF7F3
:10AB1000EBFF044600283CD1204F2C2508FB057B89
:10AB20004FF48E71CBF814A0CBF80890CBF820002E
:10AB30008BF828003068FFF735FE3068012383600A
:10AB40005946FFF737FEDBF804305D461BBB306823
:10AB5000DBF814402B6A9C4211D83368D3F81C21CF
:10AB6000002AFBD00122DA6000202C2303FB0877A7
:10AB700000237B61BDE8F88F95F828303BB9D0F809
:10AB80001C31002BF8D05946FFF714FEE2E70F20E6
:10AB9000EBE71120EEE72046ECE700BF8C410020F8
:10ABA0002DE9F0473A4D07792C2303FB075306465E
:10ABB0005C6824B103684FF40170C3F808032C23C8
:10ABC00003FB0753986950B1D869002841D024B1DC
:10ABD00033684FF40172C3F80423112436E09A61FC
:10ABE000D9605862D8612C2303FB075393F82930AE
:10ABF0001BB910B93046FFF7ECFD4FF02C0808FBED
:10AC0000075A3068DAF80430002B37D14FF4A271BC
:10AC1000D046FFF7C7FD3068D0F82491D0F808314E
:10AC2000D0F84441CBB914B9B9F1000FF3D02C23BB
:10AC300003FB07550023AB61B9F1000F24D12CBBF6
:10AC400095F8291033680122B1B11A602046BDE899
:10AC5000F0871961DA610120C5E7B9F1000FE6D18B
:10AC6000002CE4D14146FFF7C4FDDAF82430DAF8CD
:10AC700018209A42CFD8DAE75A60E7E74FF4017319
:10AC8000C0F804330024E1E70324DFE70F24DDE705
:10AC90008C4100200023435082B043580193019B14
:10ACA00002B070471FB501238DF80030044BCDE989
:10ACB0000110D3E900126846904705B05DF804FB27
:10ACC000B84100207FB5434AD2F82461002E60D0FD
:10ACD00010464FF49271FFF7DDFF02238DF800302C
:10ACE000D2F88034C2F880340393D2F83C35029312
:10ACF000394BDA6801920022C3E906226846D3E99B
:10AD0000001290473348D0F8443173B14FF4A27128
:10AD1000FFF7C0FF304B9A693AB10022C3E906221F
:10AD2000D968D0F83C05FFF7BDFF2A48D0F820319C
:10AD3000ABB14FF49071FFF7ADFF0123C360264B19
:10AD40005A6962B1D0F84C150291002299688DF8C9
:10AD5000002001915A616846D3E9001290471D48CE
:10AD6000D0F858319BB14FF4AC71FFF793FF1A4BF9
:10AD70005A6962B1D0F84C150291002299688DF899
:10AD8000002001915A616846D3E90012904704B04F
:10AD900070BDD2F81031002BB4D04FF4887110463A
:10ADA000FFF778FF0C4BD2F83C0599698842A9D18E
:10ADB000DC69D96864B1D2F8005225F02005C2F8E8
:10ADC00000521A699C61DA60DE61FFF76BFF99E758
:10ADD0009C61FAE700200040B84100202DE9F843CB
:10ADE0005A4E90F80480242303FB0863044693F82A
:10ADF00020300D469146002B40F0A3805449006856
:10AE0000FFF7AEFC0746002840F09D802A682068C6
:10AE1000511C0BD04FF0A04101239340C1F80835DD
:10AE200002F5E0734FF0030C41F823C069684B1C36
:10AE30001FBF01F5E0734FF0A04C4FF00C0E4CF823
:10AE400023E0AB69C0F8243595F814C06B7DBCF1E4
:10AE5000010F4CEA0303C0F86C35C0F80C25C0F8AC
:10AE600014151DD1AA68531C1FBF02F5E0734FF0E3
:10AE7000A0414FF0000C41F823C0EB68591C0BD0E7
:10AE80004FF0A04C01219940CCF8081503F5E07172
:10AE90004FF0030E4CF821E0C0F80835C0F810253B
:10AEA000242202FB08F2B318C3F804902B69B350B4
:10AEB000B9F1000F2FD04FF488712A7FFFF7EAFE17
:10AEC00020684FF49071FFF7E5FE20684FF492710F
:10AED000FFF7E0FE20684FF4A271FFF7DBFE4FF4AE
:10AEE000AC712068FFF7D6FE23681A49C3F8041333
:10AEF000190B43F307335201002BD2B21CDB164867
:10AF0000C51885F8002301225B0901F01F0102FA30
:10AF100001F140F8231023680822C3F800252423F8
:10AF200003FB08660023C6E906337361012386F834
:10AF300020303846BDE8F883084B01F00F015A5421
:10AF4000E9E70827F5E71127F3E700BFB84100203C
:10AF5000C5AC02001003420000E100E014ED00E087
:10AF60000279044B242101FB02335869003818BFD1
:10AF700001207047B841002001F06043B3F1005F49
:10AF80002DE9F0470646884692463BD190F804905A
:10AF9000FFF7E6FF0446002836D11D4F3068242510
:10AFA00005FB09754FF49071C5F814A0C5F8088029
:10AFB000FFF770FE4FF4AC713068FFF76BFE33683B
:10AFC0006A69A968C3F84415C3F8482501229A6044
:10AFD0006A68DAB9D3F82021D3F858011AB90028E1
:10AFE000F8D00F2007E00028FBD10122DA60D3F867
:10AFF0005821002AFBD0242303FB097700237B611F
:10B00000BDE8F0871020FBE71120F9E72046F7E7BD
:10B01000B8410020F8B501F06043B3F1005F044689
:10B020000F465ED10379304D242101FB035149685D
:10B0300021B100684FF40476C0F80863242000FBB7
:10B0400003539E6956B1D869002839D021B12368CD
:10B050004FF40472C3F80423112030E09A61DF60DA
:10B06000DE6120684FF48871FFF714FE20684FF40A
:10B07000A271FFF70FFE2368C3F83475C3F83825B3
:10B0800016BB01221A602479242202FB0452526862
:10B090000ABBD3F81011D3F84421D3F8240111438B
:10B0A00002D10028F5D00A46242303FB04550023CF
:10B0B000984218BF03209A42AB6118BF0F20F8BD19
:10B0C0001F61DA610126CCE7D3F8002242F02002AA
:10B0D000C3F80022D7E74FF40472C3F8042300201A
:10B0E000EDE71020EBE700BFB841002031DF7047EB
:10B0F0001FB500238DF807000DF10F008DF80F30FC
:10B10000FCF7BCFB07F028F950B909480DF107011D
:10B11000FEF7EBFC0648FEF7DCFC08B100F008F98E
:10B120009DF80F00FCF7CEFB05B05DF804FB00BFF7
:10B130007881030007B520B103280DD003B05DF876
:10B1400004FB104B1B78012BF8D100F0F1F803B091
:10B150005DF804EB00F0F4B800230DF107008DF862
:10B160000730FCF78BFB07480378012B05D1064914
:10B17000013000F09DF800F0C9F89DF80700FCF7D9
:10B18000A1FBDBE72C420020F1B0020013B5124C0A
:10B190002378FBB9114A8DF80730002808BF104604
:10B1A0000288A4F801200DF10700FCF767FB07F007
:10B1B000D3F830B90A49601C00F07AF840B900F0C1
:10B1C000A5F89DF8070001232370FCF77BFB002006
:10B1D00002B010BD8520FBE72C420020DE8C03006E
:10B1E000F1B0020007B500230DF107008DF807301C
:10B1F000FCF744FB07F0B0F818B900F099F800F03C
:10B200009FF89DF80700FCF75DFB0448FEF7E2FCA1
:10B21000034B00221A7003B05DF804FB7881030031
:10B220002C4200202DE9F7430024DFF85890054612
:10B230000E46A0460DF107008DF80780FCF71EFBB7
:10B2400007F08AF8074638B9324629464846FEF7DD
:10B25000A1FC044600F05AF89DF80700FCF732FB09
:10B2600047B131462846FFF741FF42F207039842B3
:10B27000044605D0022CDDD0204603B0BDE8F083A3
:10B280000524F9E778810300F8B505460C4604B9B2
:10B29000F8BD402C264628BF4026F7B2394628463E
:10B2A000FFF7C0FF0028F9D1A41B3544EFE70000E9
:10B2B00010B5124C2378FBB9114B1960037813F0C9
:10B2C000010F104B1EBFD3F8042542F00102C3F852
:10B2D0000425D3F8002222F00102C3F800224378AB
:10B2E000094A5B01DBB282F80D334FF4005313605F
:10B2F00001232370002010BD8520FCE7344200208C
:10B300003042002000D0004000E100E0074B002266
:10B31000C3F8002182B0D3F800210192019A0122E2
:10B32000C3F804231A6002B0704700BF00D0004089
:10B33000024B0122C3F808235A60704700D0004036
:10B34000084B0122C3F808235A60074B4FF4005200
:10B35000C3F88020BFF34F8FBFF36F8F034B0022E2
:10B360001A70704700D0004000E100E03442002035
:10B37000074B0022C3F8002182B0D3F800210192CC
:10B38000019AD3F80805034B1B68C0B202B01847F6
:10B3900000D00040304200200220FEF735BE000001
:10B3A0002DE9F04780460D46FEF74EFE0328044681
:10B3B00010D8012D10D0022D30D05DB91A48FCF7FD
:10B3C00041F81A4B04EB440213449D78184B1B5D63
:10B3D000AB4219D0BDE8F087144E00EB4003F218E1
:10B3E000F55C5378470053B1DFF84C900E484A465D
:10B3F0004FF48041FBF7F8FF08B989F80080274433
:10B400003E440B4BB2781A55002DE3D0094B1B6814
:10B41000002BDFD02846BDE8F047184700EB40047A
:10B42000024804446578EFE7E0310020374200200D
:10B43000514200204C420020354200200078022179
:10B44000FFF7AEBF08B5094B1B7853B10020FEF7DC
:10B45000B1FD0120FEF7AEFDBDE808400320FEF778
:10B46000A9BDBDE80840FEF7B1BD00BF36420020CF
:10B47000F8B57A4C237805461BB100232370FFF7FB
:10B48000E1FF172D00F28780DFE805F00C17174267
:10B490005364757F878C878C949999999999C3C8BF
:10B4A000D0D8E3E3FFF7CEFF6D48FBF7CBFF6D4B42
:10B4B000002204461A702046F8BD0020FEF760FD09
:10B4C000F0B10020FEF776FD022D0CBF4FF4E164D1
:10B4D0004FF47A64634B1D7000254FF400464FF41F
:10B4E0007A7029464FF4FA620023E4FB060108F063
:10B4F000B6FB2A460146BDE8F8405948FBF774BF41
:10B50000FEF74CFD022D0CBFC8244FF4C874E1E7D0
:10B510000020FEF735FD40B10020FEF74BFD4FF453
:10B520004874504B03221A70D6E7FEF737FDC82443
:10B53000F7E70020FEF724FD38B10020FEF73AFDC2
:10B540004FF47A64474B0422EDE7FEF727FD4FF4F2
:10B55000C874F7E70020FEF713FD48B10020FEF79E
:10B5600029FD404B05221A7040F6CD410022C2E76A
:10B57000FEF714FDF5E70020FEF746FD394B0622E5
:10B580001A70002240F26661B5E70020FEF706FD62
:10B59000344B07221A7000248DE701202070FEF73B
:10B5A00033FDEEE701202070FEF72EFD00224FF460
:10B5B0000051A0E7FEF719FD2A4B0C22EAE72A48C2
:10B5C0002A4EFBF73FFFD5F1110504461CD0D8B930
:10B5D000012D13D0C820454321464FF400474FF4B6
:10B5E0007A704FF4FA620023C5FB070108F037FBBD
:10B5F000224601461C48FBF7F7FE04460220FEF7F0
:10B60000CDFC0123337056E70220FEF7D3FC002364
:10B61000F8E7FFF717FF134B1222BBE7FFF712FF04
:10B620000020FEF7BBFC0F4B1322B3E7FFF70AFF26
:10B630000120FEF7B3FC0B4B1422ABE7FFF702FF30
:10B640000020FEF7ABFC0120FEF7A8FC054B1522FD
:10B65000A0E7FEF7CAFC034B1D709CE748420020A0
:10B660000032002050420020C0310020364200202D
:10B67000044B1B68DB0703D5034B1878FFF7F8BEB4
:10B68000704700BF444200205042002010B50029FE
:10B6900014BF03240024FEF7E9FC800000F1A04061
:10B6A000D0F8002722F44032C0F80027D0F8003745
:10B6B00043EA0443C0F80037002010BD032801D836
:10B6C000FEF7B4BC00207047044B1B6813F0010365
:10B6D00001D0FFF7CDBE1846704700BF444200209E
:10B6E00038B51C4B18601C4B10F00204054619605D
:10B6F0001AD01A4B1A480E221A700F22DA70102232
:10B700009A7111225A72042140F23332FBF768FC1D
:10B71000044648B9FBF7BCFC044628B90146114A67
:10B720001148FBF74FFE0446EB0711D50120FEF749
:10B73000A3FC6CB921460D4A0D48FBF743FE0446B5
:10B7400030B9BDE838400B4A0B480121FBF73ABE3F
:10B75000204638BD444200204C42002037420020A1
:10B76000E48C03003DB40200088D030071B60200B2
:10B770000C8D030099B30200048D0300032811D837
:10B78000012A0AD101290FD100F10E02D2B20D4BCC
:10B7900000EB40001A54002070470129F7D002291D
:10B7A00004D049B1072070470022F8E7054B00EBB1
:10B7B000400018444270EEE7024B00EB4000184492
:10B7C0008270E8E737420020032802D80121FFF702
:10B7D0005DBF0620704708B5012202210020FFF757
:10B7E000CDFF08B1072810D1072202210120FFF761
:10B7F000C5FF08B1072808D100210A220846FFF733
:10B80000BDFF10B1072808BF002008BD0388102B1A
:10B8100010B502D0112B1ED010BD1A4C2168B1B941
:10B8200001220846FFF7AAFF08B1072824D1072202
:10B8300002210120FFF7A2FF08B107281CD1042232
:10B8400002210020FFF79AFF08B1072814D12368CE
:10B8500001332360E0E70B4A1368013B1360002BC0
:10B86000DAD1FFF7B8FF0028D6D0074B1B68002BB2
:10B87000D2D0BDE810401847034B1B68002BE6D020
:10B880009847E4E75C4200205842002008B50020B9
:10B89000FFF79AFF08B1062806D10120FFF794FFB1
:10B8A00010B1062808BF002008BD00000D4B10B5E0
:10B8B00018600C4629B10120FFF700FF40B10223B8
:10B8C0002370094B1B6853B9BDE81040FFF783BFD5
:10B8D000FFF7F4FE08B10B23F2E72070F1E7002038
:10B8E00010BD00BF584200205C4200206DDF704751
:10B8F00075DF704776DF70478FDF704773B5037869
:10B90000012B04464AD0022B38D0002B34D1274CCF
:10B91000274D20882844FBF773FF238801339BB20F
:10B920001D44238015F8012C0A2A05D00D2A03D0C6
:10B93000204A12889A421FD81F4B204820491C4D8C
:10B94000204EC01AC008000440F004000190FBF72C
:10B950003BF8228816490198FBF78AF82288294685
:10B96000304606F0BDFB082804D01328F6D008B1F5
:10B97000FBF7A4FB0023238002B070BD0F4B0E48E1
:10B9800011491B1ADB081B0443F00100FBF71CF8EC
:10B99000606802B0BDE87040FBF790BB074B0648FB
:10B9A0000A491B1ADB081B04EEE700BF54430020C2
:10B9B0006042002036320020D08103000082030064
:10B9C000108D0300E4440020308D0300628D0300DD
:10B9D000FBF774BB08B5074806F03CF908B1FBF764
:10B9E0006DFB0120FFF770FE18B1BDE80840FBF7C2
:10B9F00065BB08BD1845002010B50388212B88B011
:10BA000004460FD80F2B12D9103B112B0FD8DFE8AB
:10BA100003F010300E4A0E0E0E575E9FBB3E0E0E08
:10BA20000E650E713B2B7DD0562B00F08A8008B03E
:10BA300010BD5F4B5F486049C01AC008000440F069
:10BA40000300FAF7C1FFA1885C4805F02BFB08B1A1
:10BA5000FBF734FB0720FFF737FE08B1FBF72EFB9F
:10BA600000F0C4FE0028E2D108B0BDE81040FFF7A6
:10BA7000B1BF4F4B4F48A2885149C01AC0080004BB
:10BA800040F00300237AFAF7ACFF0020E3E7037AE3
:10BA9000022BCCD14748464B4A49C01AC008000483
:10BAA00040F0030007E04348414B4749C01AC00833
:10BAB000000440F0040008B0BDE81040FAF784BF6D
:10BAC0003C483B4B4149C01AC0080004E8E73948EC
:10BAD000374B3F49C01AC0080004E1E700F10801F4
:10BAE0008088FFF705FF0028A1D008B0BDE810400E
:10BAF000FBF7E4BA2E4B2F483649C01AC0080004A1
:10BB000040F00400FAF760FF0023A0888DF81C3095
:10BB100007A98DF81D30FFF7EFFE002887D0FBF74F
:10BB2000CDFA84E72348224B2B49C01AC0080004F1
:10BB300040F00400FAF748FFA0881321FFF7DAFE6F
:10BB4000D1E71C481A4B2549C01AC0080004EFE78A
:10BB5000174B18482249C01AC008000440F00300DF
:10BB60000590FAF731FF627B0292227B0192A27A62
:10BB7000637A1C490598C2F340020092C3F3800324
:10BB8000227AFAF752FF52E7094B0A481649C01ABF
:10BB9000C008000440F003000590FAF715FF227A70
:10BBA00012490598120908B0BDE81040FAF710BF15
:10BBB000D0810300008203008E8D03003832002004
:10BBC000998D0300C78D0300E58D0300048E0300EB
:10BBD000218E0300408E0300548E0300698E030003
:10BBE0007E8E0300968E0300EC8E0300088F030008
:10BBF00010B5044604F0B2F8204604F0D3F820460D
:10BC000003F006FE23780D2B03D1BDE81040FFF7AB
:10BC1000E1BE10BD0146014806F072B9E4440020BF
:10BC20002DE9F3470B78012B06460D4624D0022B55
:10BC30006ED0002B7BD13F4B3F4C4049E41AE408C7
:10BC4000240444F003042046FAF7BEFE698805F197
:10BC50000E02304606F092FA08B1FBF72FFA304692
:10BC600006F00AFA08B1FBF729FA3549204602B076
:10BC7000BDE8F047FAF7A8BE2E4B2F4C8F68B1F8FD
:10BC80000C803049DFF8CCA0E41AE408240444F026
:10BC900004000190FAF798FE019842463946FAF7F7
:10BCA000E7FE002544F0010945450AD307EB0803E8
:10BCB00013F8013C0D2B15D10A20FBF7B7FD112815
:10BCC000F9E7785DFBF7B2FD064648B11128F8D0D8
:10BCD00048462A465146FAF77BFE3046FBF7EEF916
:10BCE0000135E1E7184E42463946304606F0F8F98C
:10BCF0000546E0B11128F6D00246144944F001008F
:10BD0000FAF766FE284602B0BDE8F047FBF7D6B961
:10BD1000084B09480E49C01AC008000440F003004F
:10BD2000FAF752FE02B0BDE8F047FFF753BE02B08B
:10BD3000BDE8F087D0810300008203001A8F030062
:10BD40002E8F03005C8F0300E4440020928F0300D9
:10BD5000BB8F03006C8F030010B504460020FFF773
:10BD6000B3FC08B1FBF7AAF924B9FFF78FFD08B1BE
:10BD7000FBF7A4F9012010BD0A8840F677239A4208
:10BD800013B50C4617D10D4B0D480E49C01AC0080B
:10BD9000000440F003000190FAF716FEA3880A4A57
:10BDA0000A490198033B9BB213801A4602B0BDE8D2
:10BDB0001040FAF716BE02B010BD00BFD0810300DC
:10BDC00000820300C98F030036320020E58F030094
:10BDD000042808B506D00A2810D1BDE80840002084
:10BDE000FCF748BB064B13215888FFF783FD30F062
:10BDF000080303D0BDE80840FBF760B908BD00BFE9
:10BE0000E444002070B50378013BB8B0052B47D857
:10BE1000DFE803F00346466E5058382200210AA896
:10BE200008F0F7F88022002118A808F0F2F808239B
:10BE300010224FF6FF7106A8CDE9043308F0E9F8A7
:10BE40004FF6FF7003F044FA06AD00244FF6FF767C
:10BE5000B04227D1214606A803F004FA08B1FBF747
:10BE60002DF9214606A803F01FFA062802D008B1D2
:10BE7000FBF724F905AB18AA04A90AA803F0FCF9FA
:10BE8000DDE904231343224C01D0237833B1214848
:10BE9000002105F01FFF08B1FBF710F90023237004
:10BEA00038B070BD082CD5D025F8020B013403F052
:10BEB0000FFACDE740680028F2D038B0BDE87040F6
:10BEC000FBF7FCB84168144C14488B784A78001B87
:10BED0008C7903944C7902940C790194C008C97848
:10BEE000009100040E4940F00300FAF7AEFDD7E7D9
:10BEF000094B0A480B49C01AC008000440F003006F
:10BF0000FAF762FD38B0BDE87040FFF763BD00BFCF
:10BF10006845002018450020D081030000820300FE
:10BF20000D9003003B90030008B50849084800F055
:10BF30001BFD08B1FBF7C2F80548F72100F02CFD06
:10BF400018B1BDE80840FBF7B9B808BD79BD0200DB
:10BF5000FC44002008B5037883B10B4B0B480C4917
:10BF6000C01AC008000440F00300FAF72DFD03F0EA
:10BF7000CDF938B1BDE80840FBF7A0B8BDE80840EE
:10BF8000FFF728BD08BD00BFD08103000082030079
:10BF90004B90030000B58FB000204FF480418DF826
:10BFA0000F00FAF773FB08B1FBF788F8FAF7ACFA61
:10BFB000FBF7D6F908B1FBF781F86E4D0FCD08AC51
:10BFC0000FC495E803006C4B6C4A04934FF48073E4
:10BFD00084E80300CDE906230593694A072304A9F1
:10BFE00008A8FBF7B5FB08B1FBF768F86549012025
:10BFF000FFF776FB08B1FBF761F808A90020FFF70F
:10C0000055FC08B1FBF75AF8FCF7F6F908B1FBF755
:10C0100055F806F023F908B1FBF750F8002308A9FA
:10C020000120089306F0ECF908B1FBF747F808A8DF
:10C0300006F0AAFA08B1FBF741F8FFF775FF9DF883
:10C040000F4003F057F808B1FBF738F824B103F0BC
:10C050005DF908B1FBF732F835238DF8203007235E
:10C060008DF8213010238DF8223008A803238DF895
:10C0700023308DF8243003F0DDF808B1FBF71EF80B
:10C08000414803F0BFF808B1FBF718F83F4B404CAC
:10C09000089308A8099404F0C7FF08B1FBF70EF84D
:10C0A0003C4B08933C4B3D4808A9CDE9093405F0C9
:10C0B0006DFF08B1FBF702F81022002108A807F075
:10C0C000A8FF0123364A37488DF8243008A98DF897
:10C0D0002C3005F065FD08B1FAF7F0FF324A31481F
:10C0E000032105F021FD08B1FAF7E8FF2D480022F1
:10C0F000042105F041FD08B1FAF7E0FF2B482C4C74
:10C1000007F01AFF2B482C49001BC008040444F018
:10C110000300FAF759FC0DF10F00FFF71BFF08A809
:10C12000FFF7E4FB44F004009DF822309DF8212045
:10C1300022490190FAF755FC9DF824309DF8232000
:10C140001E490198FAF74DFC9DF826309DF82520F0
:10C150001A490198FAF745FC02F0D4F830F00803C8
:10C1600001D0FAF7ABFFFAF7E3FA0028FBD1FCF7AE
:10C1700059F9F1E7A89003006945002069460020BD
:10C18000FDB80200D1BD0200F1BB020015BC0200E7
:10C190002032002021BC0200D1B90200E44400207A
:10C1A00005BE020018450020D490030058900300FB
:10C1B000D0810300008203007B9003009D90030068
:10C1C0000369C26893429CBF80681B18013B981AA0
:10C1D00070472DE9F843D0E902940546A9EB04081D
:10C1E0004068904520440F46144404D907F0E8FE07
:10C1F000EC60BDE8F8834246A4EB090407F0E0FEDA
:10C200006868224607EB0801F0E72DE9F843C568A6
:10C210000646894617464FF000083469B3687068CF
:10C22000A54228BFE418013C621B5C1BBC4228BF2E
:10C230003C46944228BF144649462844224607F00B
:10C24000BFFEB3682544AB4208BF00253F1BA04496
:10C25000A144F560E1D14046BDE8F88310B5114C2A
:10C26000114AA2610223C4E90433104BE361A264C2
:10C270004FF400730E4A0F492362E2640023102238
:10C28000E01DA3626362E362A3656365E365226503
:10C2900007F0F2FE0849204607F0EEFE2023A371C6
:10C2A00010BD00BF6C470020D8900300F447002069
:10C2B000E4470020E1900300E590030070B5164BC1
:10C2C000182400FB04451D4404FB00331646DC6AB9
:10C2D000012C0ED0022C18D0E4B92846FFF770FFCD
:10C2E000864204D832462846FFF773FF344620467C
:10C2F00070BD2846FFF764FF8642344628BF0446D7
:10C3000022462846FFF765FFF1E72846BDE8704062
:10C31000FFF77BBF0024EAE76C470020FFF79EBFD2
:10C3200064DF704730B5C8B1F2B10024651C8D429E
:10C3300006DA1588A54212D805196D789D420ED1EE
:10C34000A14211D9005D48B1013880B230B1023448
:10C35000A3B210FA84F4A14206DB138030BD055D60
:10C3600001352C44A4B2E1E70020F7E72DE9F043C2
:10C3700087B0002306460C461046ADF8063002AAE8
:10C3800010230DF105018DF80530FFF7C9FF1EB927
:10C39000002007B0BDE8F0830028F9D19DF80550D2
:10C3A000042D29D0102D29D0022DF2D10323BDF860
:10C3B00006206AB90DF1060221463046FFF7B2FFAA
:10C3C000BDF806301BB92B463046FFF7ABFF0446DD
:10C3D000BDF80670002FDBD09DF805800025C14612
:10C3E000AC42D5D9E819424602A9304407F06AFDAB
:10C3F00038B14D44ADB2F3E70523D8E7062507234E
:10C40000D5E70120C5E70000034B1A8882420CBF24
:10C4100018460020704700BF104A0020024B9B695D
:10C4200003B11847704700BFF449002037B50B46E9
:10C43000497A0F4A79B9D2E901141D7A0246002DD2
:10C4400018BF21465868FAF7CFFF78B103B0BDE8AE
:10C450003040FFF7E3BF00211972536933B1012265
:10C46000ADF806008DF8042001A8984703B030BD50
:10C47000F44900204B8802889A4212D842889A4296
:10C480000FD380888B8840F2F311884294BF021A40
:10C49000421A9A4205D80844984234BF002001202D
:10C4A00070470020704700000388122B70B50146CA
:10C4B00059D004D8102B1ED0112B44D070BD502B56
:10C4C000FCD12F4BC288DB899A42F7D1038A022B19
:10C4D000F4D186883046FFF797FF05460028EDD057
:10C4E00001F1120000F0E8F938BB6868FAF7AAFF1A
:10C4F0000028E3D009E0C37B012BDFD14FF6FF70AA
:10C50000FFF782FF054620B90420BDE87040FFF721
:10C5100085BF1C4A8E880680002303721368C0F80A
:10C520000A305368C0F80E3010310A30FFF7A2FF0E
:10C53000134B6872DB89002BC0D129463046BDE819
:10C540007040FFF773BF8088FFF75EFF0446002846
:10C55000B4D04068FAF776FF08B1FFF75FFF4FF6F7
:10C56000FF732380AAE786883046FFF74DFF054614
:10C570000028A3D008310A30FFF77CFF6872DCE79F
:10C58000F4490020244A0020F7B5174601900E46D2
:10C5900091B1019C6CB100252C46294601A8FBF7FE
:10C5A000B0FB18B13946A8B2B04701340135142D9B
:10C5B000F3D1204603B0F0BD0C46FAE70AB1FBF711
:10C5C0007FBBFBF794BB73B50191019C06466CB130
:10C5D00000252C46294601A8FBF793FB18B106EB72
:10C5E000440301349D800135142DF3D1304634606D
:10C5F00002B070BD2DE9F04703888488103B8CB0F1
:10C6000005460A2B21D8DFE803F006402020202031
:10C61000202020654700DFF8E880D8F80830DB43A9
:10C620000093D8F804106846FBF7D0FB009901A8E6
:10C63000FFF7C9FF0DF108090027019B9F4207D3AF
:10C64000132C12D90420FAF739FD0CB0BDE8F0879D
:10C6500039F802AB00260136514608EB8600FBF79D
:10C6600046FB1E2EF7D10137E7E71F482146FBF7AF
:10C6700027FB1E482146FBF723FBEB7B022BE4D173
:10C680001B482146FBF71CFBDFE7174821460CB08F
:10C69000BDE8F047FBF72BBB027A16483F2A4FEA6A
:10C6A0001215214694BF00220122FFF787FF022DB9
:10C6B00094BF0022012210482146FFF77FFF012D81
:10C6C0000E4894BF0022012221460CB0BDE8F0477D
:10C6D000FFF774BF037A002BB7D1427A0548C2F343
:10C6E000C0022146F1E700BF344A0020304A002052
:10C6F000384A0020444A0020404A00203C4A00209A
:10C700002C4A002037B5002401902546214601A877
:10C71000FBF7F7FA00B101350134142CF6D12846A5
:10C7200003B030BD1328014602D80248FBF7E9BA2E
:10C7300000207047304A002007B50190FFF7F2FF54
:10C74000019930B10448FBF7DCFA002814BF02203D
:10C75000012003B05DF804FB384A002007B50190C2
:10C76000FFF7E0FF019930B10448FBF7CAFA00284F
:10C7700014BF0220012003B05DF804FB344A0020FE
:10C7800007B50190FFF7CEFF019928B1044803B027
:10C790005DF804EBFBF7B5BA03B05DF804FB00BF2E
:10C7A0003C4A002007B50190FFF7BCFF019928B172
:10C7B000044803B05DF804EBFBF7A3BA03B05DF8DF
:10C7C00004FB00BF404A002007B50190FFF7AAFF15
:10C7D000019928B1044803B05DF804EBFBF791BA66
:10C7E00003B05DF804FB00BF444A002007B5064BC8
:10C7F000DA680192996801A8FBF7E8FA0198FFF757
:10C8000081FF03B05DF804FB2C4A002008B5182115
:10C810000248FBF77FFAC0B208BD00BF2C4A0020D7
:10C8200070B50A4E054630460C46FBF76AFA58B119
:10C830002846FFF777FF38B10734294606EB840016
:10C84000BDE87040FBF75DBA002070BD2C4A0020A7
:10C85000F8B50B4F054638460C461646FBF751FA1D
:10C8600060B12846FFF75EFF40B1073432462946E3
:10C8700007EB8400BDE8F840FFF7A0BEF8BD00BF9D
:10C880002C4A002073B50B4D019204460E4601461A
:10C890002846FBF736FA50B1063405EB8404019ABA
:10C8A0006068314602B0BDE87040FFF76DBE02B06F
:10C8B00070BD00BF2C4A0020008800F001007047C6
:10C8C00090DF7047A5DF7047B5DF70477FB5204B1D
:10C8D000204CE41AE40824040E4603460A460546A2
:10C8E0001D4944F00400FAF77CF800236A4602A9C7
:10C8F0002846ADF80860ADF80A60ADF80C30ADF828
:10C900000E300093ADF80430FFF7DAFF0646D8B1D9
:10C91000FBF76AFE44F00104034610492A4620460C
:10C92000FAF75FF8BDF80020BDF8023052EA0301C3
:10C9300003D00B492046FAF754F8BDF804201AB189
:10C9400008492046FAF744F8304604B070BD00BFED
:10C95000D081030040820300EC9003001B91030090
:10C9600065910300A491030088B14FF0F7130360B1
:10C97000FB230371074A8161F723C3801723C0E9B2
:10C980000232036141F6FB338382002070470E20A0
:10C99000704700BFFB1BF70030B1A1F11703E02B7C
:10C9A00004D84180002070470E2070470720704750
:10C9B0002DE9F04F8588012D87B007460C4600F21F
:10C9C0005E810388242B4FEAC50600F0F58025D848
:10C9D000112B00F0B980232B00F02A81102B69D095
:10C9E0003444A37A002B00F04A81E1882846FFF7FF
:10C9F00069FF002840F031814FF480736381A148C2
:10CA0000A14BE288A149C01AC00800042B4640F09F
:10CA1000040007B0BDE8F04FF9F7E3BF3A2B00F090
:10CA20009C80552BDCD1984B964FB0F806809849E6
:10CA3000FF1AFF083F0404EB060947F004004346D1
:10CA40002A460390F9F7CDFF4246B9F8063003981D
:10CA5000172A38BF17229A4228BF1A46002189F8A0
:10CA60000A10A9F808208B490095F9F7C4FFB9F816
:10CA700006102846FFF728FF38B1FBF7B5FD8649B9
:10CA8000024647F00100F9F7A3FF99F80B30002B9D
:10CA9000A6D1A369002BA3D040F67722ADF81020D1
:10CAA000B9F80820ADF81250ADF8142004A92046BA
:10CAB000984795E7C37B0A7901EB0608012B88F8B4
:10CAC0000C2029D0022B2BD0B8F80620B8F808305B
:10CAD000934216D26C4B6B4F7049FF1AFF083F040C
:10CAE00047F0040904EB060A48462B46F9F779FF9C
:10CAF000BAF806102846FFF7E5FE98B901238AF830
:10CB00000B3098F80C1098F80D308B42BFF468AFDA
:10CB10002846FFF7DBFE63E70B88A8F80630D3E76B
:10CB20004B88FAE7112808D101235D498AF80A30B9
:10CB30002A464846F9F74CFFE3E7FBF755FD59490C
:10CB4000024647F00100F5E78B19F722DA80172239
:10CB50009A6041F6FB329A8142E701EB060842896E
:10CB6000B8F80630474850499A4228BF1A46464B03
:10CB7000C01A172A4FEAD00038BF172200042B46EC
:10CB8000A8F8082040F00400F9F72BFFA3697BB157
:10CB900098F80B2062B140F67722ADF81020B8F873
:10CBA0000820ADF81250ADF8142004A9204698478B
:10CBB000A31900225A8113E7B0F808A0B0F80AB010
:10CBC000B0F80C80B0F80E90027A2F4B2D48C01AA6
:10CBD0008F19C00800042B4640F0040033497A73D3
:10CBE0000390F9F7FEFE324903985A46F9F7F0FE32
:10CBF000304903985246F9F7EBFE2F4903984A460D
:10CC0000F9F7E6FE2D4903984246F9F7E1FEA369DC
:10CC1000002B3FF4E5AE00228DF815204DF67A2268
:10CC2000ADF810207A7BADF812508DF814203DE756
:10CC300090F80880144B13482149C01AC00800041A
:10CC4000434640F004002A46F9F7CBFEA319B88802
:10CC5000197B414528BF41465BE711280FD0FBF700
:10CC6000C3FC084B0F49024607481B1ADB081B048C
:10CC700043F0010007B0BDE8F04FF9F7A9BE07B0D7
:10CC8000BDE8F08F40820300D08103004D94030083
:10CC9000F59203002F9303006E930300FA910300B3
:10CCA0003792030089920300BA9203009D93030018
:10CCB000CC930300DE930300F09303000094030081
:10CCC000109403002DE9F84F324D334CDFF8D49027
:10CCD000324FDFF8D4A0064631482D1AED082D0456
:10CCE00045F0040504F1A0084FF0FF3B637C1BB343
:10CCF000237C6BB3D4F80B30B34206D99B1BC4F82A
:10CD00000B309B4528BF9B4616E000232374E37B32
:10CD1000C3B9394628466374F9F756FE0622214600
:10CD20002846F9F7A5FE51462846F9F74DFE06229A
:10CD300021462846F9F79CFE14344445D6D158467E
:10CD4000BDE8F88FBBF5203F28BF4FF4203BEAE752
:10CD5000E27B12B962743946E6E7D4F8073033440F
:10CD6000B3F5203FC4F807300FD3013AD2B2A3F590
:10CD7000203349462846E273C4F80730F9F728FE05
:10CD8000062221462846F9F773FED4F80730C3F58A
:10CD90002033B6E780820300A94A00209F94030055
:10CDA000D081030000950300D694030010B5FFF76F
:10CDB00089FF0446FAF772FB0F4B1860631C19D009
:10CDC000224621460D480E4CFAF70EFB0D4BE41A95
:10CDD000E408240438B1FBF707FC0B49024644F091
:10CDE0000200F9F7F5FD44F004000849BDE81040E1
:10CDF000F9F7EABD10BD00BF484B002008380020FD
:10CE000080820300D0810300349503005295030013
:10CE1000024A03480021FAF7D5BA00BFADCD02009F
:10CE2000809603002DE9F04F85B002A9604C0546BD
:10CE300000F070FF5F4BE41AE408240458B1FBF7DC
:10CE4000D3FB5D4902462B4644F00200F9F7C9FDC9
:10CE500005B0BDE8F08F5948FAF7F4FA074640B13B
:10CE6000FBF7C2FB5649024644F00200F9F7B0FD59
:10CE7000EEE7544DFAF712FB2968FAF70AFBFFF7C1
:10CE800021FF0646FAF70AFB28604F4D082344F0BD
:10CE900004094FF001080193AA46AB7C002B7CD01B
:10CEA00005F1010B062259460DF1090007F00AF8B9
:10CEB00090BB95F810804FF47A6303FA08F3B3F54A
:10CEC0007A4FBCBF08F101085FFA88F84FF47A6C1A
:10CED0000CFA08FC4FF4004E00234FF47A70002146
:10CEE000CCFB0E0185F81080AB604FF4FA62002392
:10CEF00006F0B5FE0123864228BF06464246334966
:10CF0000E8606B744846F9F763FD062259464846C7
:10CF1000F9F7AEFD4FF000080137082F05F11405B1
:10CF2000BBD1B8F1000F3FD0019B082B37D014259F
:10CF30006B4302AA92E803001D46534404334AF8A7
:10CF4000050023F8021B090C19704FF480320AEB1C
:10CF500005030021C3E902124FF480721A820122F4
:10CF60001B499A74B6F5803F484628BF4FF4803677
:10CF7000F9F72AFD691C062251444846F9F778FD65
:10CF80000E4832463146FAF72FFA00283FF460AFD8
:10CF9000FBF72AFB0F49024666E70197BCE70E49FB
:10CFA00044F00200F9F710FD731C3FF451AFE7E7BE
:10CFB00080820300D08103006795030008380020B9
:10CFC000B5950300484B0020A84A0020D2950300E5
:10CFD0001C960300349503004696030037B5694656
:10CFE000054600F097FE044680B1FBF7FDFA114CB0
:10CFF000114902461148241AE408240444F00200AE
:10D000002B46F9F7EEFC012003B030BD0C4DAB7C94
:10D010004BB10622691C0DF1010006F053FF10B957
:10D02000687C0028F0D10134082C05F11405EED1FC
:10D030000020E9E78082030067950300D0810300A8
:10D04000A84A0020A0DF7047A1DF7047ADDF70471E
:10D05000B3DF7047B4DF704710B50446408800F076
:10D0600047FEA0802046BDE8104002F03DB830B534
:10D0700087B005460C461422002101A806F0C9FF1E
:10D08000082301A88DF80430ADF806500394FFF78B
:10D09000E3FF07B030BD000070B586B0054614222E
:10D0A000002101A806F0B5FF4FF6FF739D42ADF8D1
:10D0B00006503FD0284600F09DFC1128044633D08E
:10D0C00016D8D8B10B2820D02046FBF78DFA1A4E7F
:10D0D0001A4902461A48361AF608360446F0010084
:10D0E0002B46F9F77EFC21462846FFF7C0FF03E0F8
:10D0F00043F202039842E7D1002216E00F238DF895
:10D10000043001A8FFF7A8FFF6E710238DF80430DC
:10D1100009480B4B0B49C01AC00800042A4640F0CE
:10D120000200F9F755FCECE70122074B2846197875
:10D13000FFF78EFB06B070BD8882030004970300E2
:10D14000D081030084960300534B0020FFF7A4BF57
:10D15000024B034918780022FFF794BB554B00207F
:10D1600065D102002DE9F047524F88B03978044666
:10D17000FFF756FB0646002840F09880204600F056
:10D180009DFC0828054635D019D820B3062870D054
:10D190002846FBF729FA484B484902464848A3EB82
:10D1A000000C4FEADC0C4FEA0C4C4CF0010023461B
:10D1B000F9F717FC29462046FFF759FF09E043F22B
:10D1C0000203984205D043F2014398426AD01128E5
:10D1D000DED1012558E03146142203A806F019FFDC
:10D1E000112303A88DF80C30ADF80E400126FFF78F
:10D1F00033FFEEE70DF10600FFF72AFF35464FF04B
:10D2000001084FF0020A0DF10809BDF80630434548
:10D2100001D8052020E0002249464046CDE903A977
:10D22000FFF718FFC0B9BDF808304DB942F6052523
:10D230005B1B5D425D4108F101081FFA88F8E4E7D5
:10D2400042F602129342F6D101AB03AA41462046B0
:10D250000493FFF7FBFE98B1FBF7C6F9164B19498B
:10D26000024617481B1ADB081B0443F00400F9F7B9
:10D27000AFFB204600F03CFD00F04CFC002503E035
:10D28000BDF80430002BF4D00F4B2A461978204605
:10D29000FFF7DEFA39783246204608B0BDE8F0479D
:10D2A000FFF7D6BA2046FFF7F7FE92E708B0BDE8D1
:10D2B000F08700BF564B0020888203009097030040
:10D2C000D081030055970300554B002013B5044649
:10D2D00000F00EFD00236A46092101F089FA0528B5
:10D2E00005D1044B012219782046FFF7B1FA02B0AC
:10D2F00010BD00BF514B002008B5084B08491878F5
:10D300000022FFF7BFFA024630B9064B06491878EB
:10D31000BDE80840FFF7B6BA08BD00BF544B002077
:10D3200069D30200514B00202DD3020037B542F6DD
:10D33000A623ADF800300A4B044618680190012579
:10D3400001AA69462046ADF80250FFF77BFE28B9D6
:10D35000044B2A4619782046FFF77AFA03B030BD0D
:10D36000CE990300504B002070B5012186B00646CF
:10D370002B48FAF7FCFC0446BFF35F8F00284AD124
:10D38000304600F0A1FA1128054639D018D80028F7
:10D3900043D00B2832D02846FBF726F9214C2249EE
:10D3A00002462248241AE408240444F001003346CB
:10D3B000F9F717FB29463046FFF759FE00241DE018
:10D3C000862803D043F202039842E3E71422214661
:10D3D00001A806F01EFE07238DF804301148134BF8
:10D3E0001349ADF80660C01AC008000440F00200FE
:10D3F0003246F9F7EDFA01A8FFF72EFE224600E0CB
:10D4000001220C4B30461978FFF722FA1CB9BFF302
:10D410005F8F034B1C6006B070BD01240246F0E72D
:10D420004C4B00208882030005980300D081030044
:10D43000D0970300544B002038B503780446A3B9B5
:10D440004088FFF729FE6588284600F025FB28B1B3
:10D45000064B012219782846FFF7FAF96088FFF792
:10D4600035FFBDE83840FFF747BF38BD554B0020BA
:10D4700037B50378092B044630D1427A72BB057A5E
:10D48000072D1BD0082D2ED0012D27D180886A466C
:10D49000294601F035FC08BB019B1B78F3B1A0883D
:10D4A00000F054FC4FF6FF73984217D0124B2A46F7
:10D4B0001978FFF7CDF9FFF74BFE0FE0808800F0F9
:10D4C00045FC4FF6FF739842044607D00B4B0122F0
:10D4D0001978FFF7BDF92046FFF7F8FE03B0BDE865
:10D4E0003040FFF709BF064B19680129F6D1BFF399
:10D4F0005F8F1A60F2E700BF554B0020544B0020AD
:10D500004C4B00202DE9F843FFF780F9DFF8B0908D
:10D51000DFF8B08089F80000FFF778F988F800009C
:10D52000FFF774F91D4F1E4E3870FFF76FF930701A
:10D53000FFF76CF91B4D1C4C2870FFF767F9207042
:10D54000FFF764F9194B187099F80030182B11D0B7
:10D5500098F80030182B0DD03B78182B0AD0337870
:10D56000182B07D02B78182B04D02378182B01D038
:10D5700018280CD10E4B0F480F49C01AC0080004E0
:10D5800040F00100F9F720FA0320BDE8F8830B4BC7
:10D5900000201860BFF35F8FF7E700BF554B0020F6
:10D5A000564B0020514B0020504B0020524B002086
:10D5B000D081030088820300429803004C4B002076
:10D5C000544B0020534B002037B5134B0022CDE9BC
:10D5D0000032124B0D4619780446FFF739F910490D
:10D5E000104B2046002D08BF0B46019300F080FB36
:10D5F0000022694601F068F960B1FAF7F5FF0A4BBD
:10D600000A4902460A481B1ADB081B0443F00200C1
:10D61000F9F7DEF903B030BD01000900514B0020DD
:10D62000D4990300D899030088820300B1980300BD
:10D63000D081030070B503888488502B86B00546DE
:10D6400039D00FD8352B49D0362B00F08D80584B70
:10D65000584918780022FFF715F906B0BDE8704068
:10D66000FFF776BD522B22D0542BF0D1142200218B
:10D6700001A806F0CEFC122320468DF80430ADF848
:10D68000064000F035FBADF8080000F043FA4A4BC5
:10D69000204619780022FFF7DBF8484B204619781E
:10D6A0000022FFF7D5F801A8FFF7D6FCCFE7204608
:10D6B000FFF7F2FCCBE7037B012BC8D1827A012A6A
:10D6C000C5D1018942F602139942C0D13C4B204694
:10D6D0001978FFF7BDF8FFF70FFEB8E7394E20467F
:10D6E0003178FFF79DF80028B1D00022317820462C
:10D6F000FFF7AEF8EA88B2F5857F0AD072B13248FA
:10D70000324BC01AC0080004314940F00200F9F75A
:10D710005FF900212046FFF757FF98E76A89012A41
:10D7200009D02948294B2B49C01AC008000440F0F1
:10D730000200F9F74DF9AE89012E07D02248234B9C
:10D74000C01AC008000432462349DEE7E9890022F6
:10D750002046FFF779FC0028DBD1204B32461978B0
:10D760002046FFF775F872E71C4E20463178FFF728
:10D7700057F800283FF46BAF317800222046FFF7BE
:10D7800067F8EE8836B11048104BC01AC008000484
:10D790003246B9E7EA89012A05D00B480B4BC01A7B
:10D7A000C0080004D0E7297C003918BF0121B1E787
:10D7B000534B00204DD10200564B0020554B00200A
:10D7C000544B0020504B002088820300D08103007E
:10D7D0000E9903004899030082990300524B0020E0
:10D7E000AFDF7047B1DF7047B2DF7047B3DF70471C
:10D7F00010B50446808800F0A9FA60802046BDE894
:10D80000104001F073BC0000F0B5204B204E93E8AF
:10D81000030089B001AD85E803004FF6FF7730883B
:10D82000B84217D00022294601F04EF8044638B31A
:10D830001422002103A806F0ECFB3388ADF8103069
:10D84000112C07D0862C07D107238DF80C3003A8A4
:10D85000FFF7CEFF09B0F0BD2046FAF7C5FE0D4D2B
:10D8600033880D4902460D482D1AED082D0445F068
:10D870000100F9F7B6F808238DF80C300594E6E7B7
:10D88000308801F090F83080C9E700BFF09B0300BA
:10D89000584B002090820300DC990300D0810300E4
:10D8A000044B1A884FF6FF739A4201D0FFF7ACBFC2
:10D8B000704700BF584B0020024B4FF6FF721A8092
:10D8C00000207047584B00202DE9F04F87B00746E5
:10D8D00000F00EFA4FF6FF73984205467CD0404B9D
:10D8E000404EF61AF6083604012346F0010A00936A
:10D8F000009A531C9BB20093082102AB284601F00A
:10D9000003FA0446002862D1DDF80CB0D9464FF086
:10D91000030849F8068B43460BF104024946384692
:10D92000FFF762FF0346C0BB04AA0821284601F0A6
:10D93000E7F958B1052814D0FAF756FE2A490246ED
:10D940003B465046F9F74DF8434610E00599BBF8C1
:10D9500004308A889A4204D10631484606F0B2FA69
:10D9600048B12A460821284601F092FA0346184693
:10D9700007B0BDE8F08F1D4946F00400F9F724F820
:10D980000821284601F032FA28B1FAF72DFE18498D
:10D9900003462A46D5E70B23E9E70C2815D00528CE
:10D9A00000D1234608212846019301F01FFA019B6C
:10D9B00040B1FAF719FE0E4903462A465046F9F7D8
:10D9C00010F80323002C93D1D1E70124EAE70728BC
:10D9D00014BF03460C23CAE743F20203C7E700BFA4
:10D9E000D081030090820300319A0300699A0300FA
:10D9F000999A03002DE9F341054600F079F94FF6B5
:10DA0000FF73984222D10024032627464FF00108D5
:10DA10003346224639462846FFF7E4FE04282BD039
:10DA2000082830D00B2828D116F0020319D1E7B905
:10DA3000FCB91648164B17491B1ADB081B042A466B
:10DA400043F00100F8F7C4FF0B2019E06A460821F3
:10DA500001F056F90028D6D1019B9C881E689F1DB5
:10DA6000D4E701264FF00008D2E703261C461F46E4
:10DA7000F8E703263C46F5E71120B8F1000FE3D0A4
:10DA800002B0BDE8F0810020F7E700BFD0810300BD
:10DA900090820300189B03001FB50DF10703039349
:10DAA00000F026F902AA012101F02AF920B9039B0E
:10DAB000187805B05DF804FB0020FAE770B505465C
:10DAC0001048FFF793FE70B90E4C43F2030621880D
:10DAD0004FF6FF722846FFF783FEB04211D123882C
:10DAE00001332380F3E7FAF77FFD074B074902462E
:10DAF00007481B1ADB081B0443F00100F8F768FF16
:10DB0000032070BD5A4B002090820300909B0300BD
:10DB1000D081030013B5074A044692E803006B4620
:10DB200083E8030000221946204600F0CDFE02B033
:10DB300010BD00BFF89B03006EDF70476FDF7047BA
:10DB400046DF70472DE9F04F9BB01D465023259FBF
:10DB500001908A4603931646BAB1C5B100232B60E3
:10DB60004FF00108249A00239AB1AFB13B604FF007
:10DB700001090DF1180B0493CDF814B0002454459D
:10DB80000CD100201BB0BDE8F08F9046EAE7A84614
:10DB9000E8E7DDF89090ECE7B946EAE7502200218B
:10DBA000584606F036FA019803AB30F8140004AA80
:10DBB000072100F01DFE20F002000528E2D09DF8AC
:10DBC0002930032B26D8B8F1000F0ED0C4EBC402C5
:10DBD000B318DDF82910B150BDF82D209A809DF8BA
:10DBE0002F209A712B6801332B60B9F1000F0FD0F1
:10DBF000249A0DF1190302EB04120DF1290153F8D7
:10DC0000040B42F8040B8B42F9D13B6801333B60B3
:10DC10000134B4E743F20220B4E7421E00F10F03DF
:10DC200012F8010F10B99A42FAD1704701207047DB
:10DC300008B570B171B103780A78534013F0FE0F44
:10DC400008D106220131013006F03CF9B0FA80F02B
:10DC5000400908BD0020FCE72DE9F04700F101086C
:10DC60004F1C06460D4600F1110901F1110A102260
:10DC70003946404606F026F90446D0B94046FFF73B
:10DC8000CCFF18B13846FFF7C8FF04465146484656
:10DC9000FFF7CEFF737C03F0FC03042B05D06B7CF5
:10DCA00003F0FC03042B18BF044604F00100BDE898
:10DCB000F0870024EAE77FB505460E4600F0CEFD6A
:10DCC00002AA0DF10601072000F0D0FD10B94FF6B1
:10DCD000FF7409E0BDF80640B442F1D0039928462C
:10DCE000FFF7BAFF0028EBD0204604B070BD00005B
:10DCF000132810B5044602D94FF6FF7010BDFEF789
:10DD000011FD0028F8D00A20014B4443185BF5E7C9
:10DD10005C4B0020132838B505460C4602D943F267
:10DD2000020038BDFEF7FEFC0028F8D0064B0A20A2
:10DD300000FB0530D0F802302360C388A380037A4B
:10DD4000A3710020EDE700BF5C4B00204FF6FF738E
:10DD500098422DE9F04105460CD00C4F00244FF0BD
:10DD60000A0808FB04F3A6B2DB5BAB4205D0013422
:10DD7000142CF6D14FF6FF7604E03046FEF7D2FCC5
:10DD80000028F4D03046BDE8F08100BF5C4B002095
:10DD9000038843B9821C0A3012F8013B1BB9824246
:10DDA000FAD1184670470120704710B50446FFF7B6
:10DDB000EFFF58B122880B889A4208D1082202311D
:10DDC000A01C06F07FF8B0FA80F0400910BD0020DA
:10DDD000FCE730B585B0044600F040FD02AA0DF125
:10DDE0000601072000F042FD10B94FF6FF700FE06A
:10DDF000039D204605F14601FFF7D7FF30B905F135
:10DE00002A012046FFF7D1FF0028E7D0BDF8060021
:10DE100005B030BD13289FBF0A235843014B195248
:10DE2000704700BF5C4B002038B50546FFF78EFFFA
:10DE30000446284600F0E4FF38B9132C05D80A231D
:10DE40005C43024B4FF6FF721A5338BD5C4B002007
:10DE50002DE9F04F0829CFB00446884670D800B1AC
:10DE600039B90022114610464FB0BDE8F04FFFF718
:10DE700065BE5023B82200210DF1300920A801937E
:10DE8000CDF80C9020AE06F0C4F804A93246002369
:10DE90008A460133082B41F8042B02F11702F8D10E
:10DEA00004EB480B274650220021484606F0B1F803
:10DEB000388801AB02AA072100F09AFC20F0020585
:10DEC000052D04F102040ED11E481F4B3A881F494C
:10DED000C01AC008000440F00200F8F779FD284697
:10DEE0004FB0BDE8F08F99F81130032B0DD9164BC8
:10DEF00014483A881649C01AC008000440F00200CD
:10DF0000F8F766FD43F20225E9E70DF131033246E9
:10DF10000DF1450153F8040B42F8040B8B42F9D183
:10DF2000198811809B7893705C4506F11706B9D16A
:10DF30005FFA88F200215046FFF700FE0546CEE763
:10DF40000725CCE7A0820300D0810300089C0300D2
:10DF5000709C030037B51C460A4B1D780B4611B167
:10DF60000968A9420CD314B12168A94208D3CDE9AC
:10DF70000024294602460448FFF7E4FD03B030BD03
:10DF80000420FBE7244C0020264C0020F0B5102292
:10DF90009BB005460C461C48002106F03AF81B4B86
:10DFA00005B13CB90021084619701BB0BDE8F0402E
:10DFB000FFF7C2BD0026620029461348E7B21F7072
:10DFC00005F0FEFF382231460CA8039606F021F832
:10DFD00003ABCDE900660CAA21462846FFF7B2FD47
:10DFE000034668B904A90CAA08460133082B41F876
:10DFF000042B02F10702F8D13946FFF79DFD0346D5
:10E0000018461BB0F0BD00BF264C0020244C002059
:10E0100070B58CB014466A460D4600F110031646E2
:10E0200013F8011D02F8011B9842F9D10D220021BD
:10E0300004A805F0EEFF2B788DF81F306B788DF873
:10E040001E303046AB788DF81D30FFF779FD9DF816
:10E050002F3023709DF82E3063709DF82D30A37003
:10E060000CB070BD1FB5034608461A7802F0FE02D8
:10E07000042A1BD1DA78B3F801108DF806209A88AB
:10E08000ADF804109B79ADF80C2003A902AA8DF815
:10E090000E30FFF7BDFF032202A901A805F012FF11
:10E0A000B0FA80F0400905B05DF804FB0020FAE703
:10E0B00030B50388102B93B04ED1041D0FCC07ADA3
:10E0C0000FC50FCC0FC594E807009DF8203003F072
:10E0D000FE03062B85E8070009D000F0BFFB9DF882
:10E0E0002030032B4FEA530204D9022A3DD04FF6C9
:10E0F000FF7310E002AA0DF10601072000F0B6FB45
:10E100000028F4D0039908A81131FFF791FD0028E9
:10E11000F0D0BDF80630BDF81C4018480A22624312
:10E12000811883529DF8262008980A724FF6FF72D4
:10E13000C1F802009342BDF82400C8800CD0ADF8AD
:10E140000C3002A80023ADF80A408DF8083000F02A
:10E15000CFFF02A8FFF770F913B030BD039908A8EC
:10E160000131FFF77FFF0028D3D102AA0DF106018C
:10E17000072000F07BFB0028F0D1B8E75C4B0020C3
:10E1800076DF704780DF704781DF704784DF70473C
:10E19000F7B5224B93F8492040270197002A3AD13E
:10E1A00093F89530002B36D11D4A1E4E13703370F4
:10E1B0001D4D1E4B1E49ED1AED082D0445F00400BF
:10E1C000F8F702FC1B4B1C4A1C491D4805F0F2F9EC
:10E1D000044640B11B49024645F00100F8F7F8FB40
:10E1E000204603B0F0BD1849124801AA05F040FAD4
:10E1F000044610B115490246EEE7134A0F483B4664
:10E20000114605F057FA044610B111490246E3E7FA
:10E2100001233370E4E71124E2E700BFD44C00206F
:10E220008C4C0020684C002050820300D0810300F9
:10E23000069D0300B44D00206C4D002054BF030028
:10E24000644C00201E9D0300944C0020569D03004A
:10E250008E9D030013B598220021144805F0D9FEC5
:10E2600005F092FA124B134A9B1ADB081B04044672
:10E2700090B943F0040010490190F8F7A5FB0F494D
:10E280000198F8F7A1FB0E4B1C700E4B1C7002B0EE
:10E29000BDE81040FFF77CBF02460B4943F0010088
:10E2A000F8F796FB204602B010BD00BFD44C00200A
:10E2B00050820300D0810300ED9D0300059E030002
:10E2C000364C0020684C0020C69D0300084B10B55A
:10E2D0001C785CB90748084B08491B1ADB081B046B
:10E2E00043F00100F8F770FB204610BD0448FCE73E
:10E2F000684C0020D0810300508203001F9E030061
:10E30000944C00202DE9F04F2D4B1E7885B0002E47
:10E3100053D12C4C2C4B2D4DDFF8CCA02C4FE41AB4
:10E32000E408240444F0020944F0030495F848305A
:10E330001FFA86FB3BB94C351EB1002005B0BDE885
:10E34000F08F0126F2E7234B1B784FF02008CDF821
:10E350000C8083B395F8493023B303AB00931E4977
:10E360001E483B462A4605F0C7F9D8B918491C484B
:10E3700043463A4605F09EF940B91A4920463246CE
:10E38000F8F726FB39465846FFF7FEFE002385F8CE
:10E39000483085F8493085F84A3085F84B300028F8
:10E3A000C9D0CBE751464846F8F70EFB2021384646
:10E3B00005F076FBE0E70320E8E70320BEE700BFB7
:10E3C000364C002050820300D0810300D44C002042
:10E3D0006C4C0020684C00206C4D0020604C0020EC
:10E3E00054BF0300619E0300989E0300F0B50388AC
:10E3F0008588113B93B00646082B0CD8DFE803F064
:10E40000050B0B0B170B0D1FA500514B4C2202FBEC
:10E4100005350023AB6413B0F0BD027A012AFAD1AE
:10E420004B4B4C2101FB053585F84A20F3E7484B5F
:10E430004C2202FB0535012385F84B30EBE7454BB9
:10E44000454C4649E41AE408240444F00400F8F773
:10E45000BBFA337BDB071AD5414B42491B78002BB3
:10E46000414B1A6808BF002122B12846019190470C
:10E47000019902462846FFF789FE024638B13B491A
:10E4800044F00100F8F7A4FA394B01221A70B16880
:10E4900038480191202205F015FD0199064638BB48
:10E4A000354944F00200F8F78FFA294B4C2202FB61
:10E4B000053393F84A2083F849604AB183F84A60EB
:10E4C000324631462846FFF75DFE0028A3D00BE018
:10E4D00093F84B1069B383F84B2013212846FFF7BC
:10E4E0004FFE30F0080396D0214B01221A7092E7BC
:10E4F0002248402302AA05F0DDF8074630B1024663
:10E500001F4944F00100F8F763FAEDE7104E1B488D
:10E510004C2303FB056602AA4023314605F084F82C
:10E52000024670B1174944F00100F8F751FA86F835
:10E530004970074B4C2202FB0535012385F8483012
:10E5400069E7012386F84930F3E7FFF721FEBCE7CE
:10E55000D44C0020D081030050820300218E0300A0
:10E560008C4C0020374C0020904C0020CA9E0300A9
:10E57000364C0020944C0020FE9E030054BF030044
:10E580008E9D0300299F0300012804D0043805282C
:10E590008CBF0020012070474FF6FF73438000F0CE
:10E5A000DDBA00002DE9F041264F00238AB04FF676
:10E5B000FF70CDE900333B7000F01EFD4FF6FF7891
:10E5C000044648F20966444513D0A4F58045ADB22F
:10E5D0006A4602A92846FAF7EDFEB0420CD028465A
:10E5E000FAF780FE48F20763984206460CD10123F1
:10E5F0003B700AB0BDE8F081204600F09FFC204649
:10E6000000F0FAFC0446DEE7002EF2D00E480F4D73
:10E610000F492D1AED082D042346324645F001001E
:10E62000F8F7DFF9142200210DEB020005F0F1FCF0
:10E63000082305A88DF81430ADF818400796FFF7A9
:10E64000ABFFD6E7044E0020D0810300B082030068
:10E65000709F030070B5044686B014263246002130
:10E6600001A805F0D6FCA0892378304D00F5804044
:10E6700080B2042BADF808003CD008D85A1E022AFC
:10E6800011D92B780BB1FFF78DFF06B070BD052BAC
:10E69000F7D16368002B43D18DF804604FF6FF7308
:10E6A000ADF808301DE043F6FE76B042E18904D9AA
:10E6B00001F5804292B2B242E3D8DA1E534253418E
:10E6C0008DF80D30A368049363688DF80C1063B95E
:10E6D00009238DF804309DF8143043F001038DF8C0
:10E6E000143001A8FFF758FFCBE70A228DF8042069
:10E6F0000593F6E743F6FE739842C2D8E389002BF0
:10E70000BFD163683BB90B238DF8043000F016FCD1
:10E7100001232B70E5E70C228DF804200393F7E723
:10E7200015228DF804200393B8E700BF044E0020A3
:10E7300007B50023A1F58041A0F58040CDE9003365
:10E7400089B26B4680B2FAF71BFE002818BF05207D
:10E7500003B05DF804FB000030B5204889B0FAF73B
:10E760003BFC70B11E4A1F4B1F499B1ADB081B0460
:10E77000024643F00100F8F72BF90324204609B0C4
:10E7800030BDFAF73FFC044660B1154B15481749F8
:10E79000C01AC0080004224640F00100F8F718F93A
:10E7A0008624EBE700F0AAFBCDE9034403AA05A900
:10E7B0004CF20700FAF7F1FD0028DFD101A905A806
:10E7C000FAF73AFD019B9D8805F58045ADB205A895
:10E7D000FAF758FD284600F099FBE7E755E60200F6
:10E7E000D0810300B0820300BC9F0300FE9F0300A2
:10E7F000F0B5FF2887B004460E4615461F462BD8B5
:10E800000846FFF7C1FE38B303AA2046FFF790FF82
:10E8100018B10524204607B0F0BD01A903A8FAF7F6
:10E820000BFD04460028F4D1019BAE705E8802996E
:10E830002E8027B9696003A8FAF724FDEAE73F684C
:10E840006868B600B74228BF37463A4605F0B8FBBD
:10E85000BE42F0D90C24DDE70724DBE7024B00229F
:10E86000C3E90022704700BFFC4D0020F0B587B01F
:10E870000646FFF789FE0F4615460446F8B1A6F591
:10E880008040104A03A980B2FAF787FD18B100242E
:10E89000204607B0F0BD01A903A8FAF7CDFC002877
:10E8A000F5D1019BAE705A889B882A8003F580437E
:10E8B000029A6A6003A83B80FAF7E4FCE8E70124C7
:10E8C000E6E700BFFC4D002070B5FF2886B0064685
:10E8D0000B4615464AD889780846FFF755FE0028AA
:10E8E00044D0A6F58042ADF80020A1F58042ADF8F5
:10E8F00002205A6801921B88029303AA3046FFF750
:10E9000017FF0528694603A812D1FAF7DFFC044671
:10E91000A8B1A0F50643023B0B2B19D80B2B17D837
:10E92000DFE803F014161616092616161616162614
:10E93000FAF7D0FCEBE78624204606B070BD002D28
:10E94000FAD0294603A8FAF742FDF5E71024F3E7C9
:10E950000848094D09492D1AED082D042246334671
:10E9600045F00100F8F73DF80324E5E70724E3E765
:10E970001124E1E7D0810300B08203003CA0030032
:10E980004FF6FF7000F0C2BAFF2808B505D800F0B6
:10E99000C3FAFFF707FE002008BD0720FCE700F0E0
:10E9A000E3BA00F0EBBA00F00DBB00F025BB0000AD
:10E9B0000A68084B70B50C25032A01D9002006E02F
:10E9C00005FB02F4E65A864202D10A60181970BDAE
:10E9D0000132F1E75C4F002037B500230D460446B5
:10E9E000019301A9FFF7E4FF38B18378AB4206D168
:10E9F000837A9B0703D143680BB903B030BD019BF9
:10EA00000133019301A92046ECE710B5044600F05C
:10EA100063FD204602F0D2F82046FEF741FF204673
:10EA2000BDE81040FEF724BD70B50E4E044600252B
:10EA3000237AAB420DD84FF6FF732380A3700023D7
:10EA400063604FF47F432381A37A23F00303A3720F
:10EA500070BD617A2944C9B2304601F0F8F9013538
:10EA6000E6E700BF4C4F002037B50023CDE9003367
:10EA7000417A83788DF802300446324801F0CEF9AD
:10EA800060B93148314B627A3149C01AC00800047C
:10EA900040F00100F7F79CFF032046E0237AA278BC
:10EAA0008DF8022003EB83039B00ADF80030531E6A
:10EAB0000190072B08D8DFE803F022070707072299
:10EAC00004241423ADF800302246694632F8040BC2
:10EAD000FFF7FAFE11282AD017D810B3072824D040
:10EAE000F9F782FD184D23881A49024617482D1A56
:10EAF000ED082D0445F00100F7F773FFCCE7012383
:10EB0000E0E7838809339B08DCE78628E8D1A37A0D
:10EB100023F0030343F00103A3720F4B01221A7089
:10EB200003E0A37A23F00303A37203B030BDA37AFA
:10EB300023F0030343F00203A372074B01221A7070
:10EB40000020F2E74C4F0020A8820300D081030090
:10EB5000A3A00300E3A00300484F00202DE9F047E5
:10EB60003E4FC16886B005463A4600233E4650688F
:10EB700081421BD10C2000FB03602B78DFF8EC8076
:10EB80000A2B1AD0142B4AD0092B4AD16C7A002CAC
:10EB900047D1002847D0FFF747FF2846FFF735FF4A
:10EBA00098F800308BB906B0BDE8F0870133042B2C
:10EBB00002F10C02DBD10020DFE76C7A8CBB90B352
:10EBC000837A446043F002038372002588F8005082
:10EBD0004FF00C094FF0010A09FB05639B7A990776
:10EBE000C3F3400201D4DB0732D588F800A002B994
:10EBF00074B33846FFF738FF50B34FF6FF72ADF8E5
:10EC000006200C2255438628725BADF808200CD1F3
:10EC100007238DF8043001A8FFF7F7FEC3E70124AE
:10EC2000BBE70024B9E70446B7E708228DF80420C3
:10EC30000390F9F7D9FC0A4C735B0A4902460A486B
:10EC4000241AE408240444F00100F7F7CAFEE2E7BE
:10EC50000135042D07F10C07BED1A4E75C4F00205D
:10EC6000A882030012A10300D0810300484F0020B6
:10EC70001C4BF7B500221E464FF6FF754FF0FF0CF8
:10EC80000C27104607FB02641D809D7083F809C0A5
:10EC9000A17A013221F00301042AA17203F10C03CD
:10ECA00003F8040C43F8080CECD15023CDE9002301
:10ECB0000D490E4B0E484FF4A07201F09BF803462D
:10ECC00068B1F9F791FC0B4B0B4902460B481B1A34
:10ECD000DB081B0443F00100F7F77AFE0323184614
:10ECE00003B0F0BD5C4F0020084E00208C4F002088
:10ECF0004C4F0020A882030072A10300D0810300C2
:10ED00000023FFF775BD00002DE9F04180460E4657
:10ED100014461F46002B5DD0CB1F012B5CD8531E21
:10ED2000032B59D8FFF758FE054610BBFF214FF6BD
:10ED3000FF70FFF751FE0546C8B1A0F8008086704D
:10ED40006B7AFF2B1AD12548214601F098F8FF284D
:10ED5000687229D14FF6FF732B8000236B604FF44C
:10ED60007F432B81AB7AA87023F00303AB72112091
:10ED700018E0037AA342E3D00F2013E04FF000081D
:10ED8000697A16482C7201F049F880B9144B15487D
:10ED90006A7A1549C01AC008000440F00100F7F76C
:10EDA00017FE0320BDE8F0814FF00108E8E704EB0F
:10EDB000840424010334C4F38D04BE7078603C8065
:10EDC000B8F1000F04D0082E02D1A400063C8480C4
:10EDD0000020E7E70E20E5E70720E3E74C4F00209F
:10EDE000D0810300A882030090A1030008B5FFF7BB
:10EDF000F3FD18B1FFF718FE002008BD0520FCE761
:10EE00007FB500230546039303A9FFF7D1FD044610
:10EE1000A8B92846FFF7B8FD014640B3072826D019
:10EE2000F9F7E2FB164C174903461748241AE40881
:10EE300024042A4644F00100F7F7D3FD16E0A17838
:10EE40002846FFF7D3FFA8B1052813D0F9F7CCFB6C
:10EE50000B4EA378009302460B480C49361AF6086D
:10EE600036042B4646F00100F7F7C5FD032108469E
:10EE700004B070BD039B0133039303A92846C4E784
:10EE8000A88203005AA20300D081030004A2030059
:10EE9000CB1F012B70B506460C46154601D907203D
:10EEA00070BD1046FFF77BFD0028F8D021463046A4
:10EEB000FFF792FD28B184700580BDE87040FFF730
:10EEC000D3BD0520ECE710B54FF6FF7304469C4216
:10EED00008460AD14FF48071F8F71CFF84B2B4F5EC
:10EEE000807F09D14FF6FF7406E0FF2CFAD8214647
:10EEF000F8F7EFFE0028F5D1204610BD0248402269
:10EF0000002105F086B800BF904F00200149FFF7AF
:10EF1000DABF00BF904F00204FF6FF73984210B544
:10EF2000044606D00449FFF7CEFF231A5842584141
:10EF300010BD0020FCE700BFB04F0020FF2807B540
:10EF400001460AD801900648F8F7D1FE0199054814
:10EF500003B05DF804EBF8F7CABE03B05DF804FB3C
:10EF6000904F0020B04F0020FF28014602D80248F1
:10EF7000F8F7C7BE00207047904F0020FF280146D9
:10EF800002D80248F8F7BDBE00207047B04F0020FD
:10EF90004FF6FF73984270B518BF441C0E4614BF5D
:10EFA000A4B20024A5B2FF2D02D94FF6FF7506E0EA
:10EFB00021463046F8F7A5FE01340028F2D0284655
:10EFC00070BD000070B50B490A4EFFF7E1FF4FF628
:10EFD000FF750446AC4201D1204670BD2046FFF7C4
:10EFE000CDFF0028F8D020463146FFF7D1FF044678
:10EFF000F0E700BF904F00200149FFF7C9BF00BFF5
:10F00000B04F0020F8B5074D074E0746002433786F
:10F01000A34200DCF8BD55F8043B3846984701345C
:10F02000F5E700BFD84F0020E74F002070B5274B11
:10F030001B7886B00446002B46D003888588244E72
:10F04000102B30D10021142201A88DF8031004F0F8
:10F05000E0FF01238DF804304FF6FF73ADF8083060
:10F0600004F10803039301A80DF103030493ADF821
:10F070000650FFF7C7FF28469DF803203178FDF7BB
:10F08000E7FB9DF8030098B1124B134822881349FF
:10F09000C01AC008A388000440F0040006B0BDE810
:10F0A0007040F7F79EBC31782846FDF7B9FBEAE7D8
:10F0B0002046FEF7FDFF204601F0D0FD204606B0B9
:10F0C000BDE87040FEF7B6BA06B070BDE64F00204E
:10F0D00028380020D081030078820300BDA20300FD
:10F0E00008B1FFF78FBF7047FFF78CBFFFF78ABFEC
:10F0F000FFF788BF10B5FFF72FFB80B1F9F774FA5F
:10F10000324C334A334903463348241AE408240472
:10F1100044F00100F7F765FC0324204610BDFFF71B
:10F12000A7FD50B1F9F760FA284C294A2B4903464C
:10F130002948241AE4082404EAE701F05FFD50B1ED
:10F14000F9F752FA214C224A254903462248241A4B
:10F15000E4082404DCE700F0C9FF50B1F9F744FAF1
:10F160001A4C1B4A1F4903461B48241AE40824046E
:10F17000CEE7FEF7C7F950B1F9F736FA134C144A47
:10F18000194903461448241AE4082404C0E7FEF78A
:10F1900093FB044650B1F9F727FA0C4C0C4A13497B
:10F1A00003460D48241AE4082404B1E7104B4FF637
:10F1B000FF721A800F4B18600F4B18700F4B012213
:10F1C0001A70FDF723FB0E4B1870A6E77882030038
:10F1D000F8A4030004A30300D08103002EA30300BE
:10F1E00058A3030081A30300ABA30300D5A303002E
:10F1F000E44F0020EC4F0020E84F0020E64F0020B5
:10F2000028380020084B1B7853B1084A1378022B8A
:10F2100008D8074941F823000133137000207047D4
:10F220000820704704207047E64F0020E74F002079
:10F23000D84F0020034B1B780BB101F02DBD0820E7
:10F24000704700BFE64F002008B5054B1B782BB177
:10F2500001F040FD082808BF112008BD0820FCE788
:10F26000E64F0020034B1B780BB1FEF78FBE082042
:10F27000704700BFE64F002010B40A4C247864B1F8
:10F2800010B922B90E2009E00029FBD00AB1002BE9
:10F29000F8D05DF8044BFEF75DBE08205DF8044B26
:10F2A000704700BFE64F0020034B1B780BB1FEF701
:10F2B000CFBD0820704700BFE64F0020034B1B78EE
:10F2C0000BB101F0D9BB0820704700BFE64F00200A
:10F2D000084B1B7810B504464BB12046FFF763FB83
:10F2E0000446FFF75EFB0028F7D1204610BD4FF61D
:10F2F000FF74FAE7E64F0020034B1B780BB1FEF7D3
:10F3000093BD0820704700BFE64F0020F0B5224BA8
:10F310001B7889B0002B3CD0204F01234FF6FF70A3
:10F320003B70FFF740FB4FF6FF76B042044619D121
:10F3300000251422294603A83D7004F06AFE0D231F
:10F3400003A88DF80C30ADF81040ADF80E40FFF773
:10F3500059FE284609B0F0BD2046FFF724FBB04215
:10F360000446F6D02046FFF7C7FF05460028F3D035
:10F37000F9F73AF90A4D0B4A0B49009403460B483A
:10F380002D1AED082D0445F00100F7F734FB032595
:10F39000DFE70825DDE700BFE64F0020D44F00205F
:10F3A00078820300E8A4030000A40300D0810300D6
:10F3B0002DE9F04F87B081460193334B1B78884687
:10F3C0001646002B5ED04FF6FF70FFF7ECFA0025D3
:10F3D0000423CDE9025302AB059304AA03AB062133
:10F3E00004460495FFF704FA072849D04FF6FF7743
:10F3F000BB464FF0FF3AF0B1052825D04FF6FF731A
:10F400009C422DD1A34529D0A7420CBF0520002046
:10F41000B9F1000F01D0A9F800B0B8F1000F01D088
:10F42000C8F8005006B13780019B0BB1C3F800A0AB
:10F4300007B0BDE8F08F029BAB4224BFA3461D4638
:10F4400053453CBF27469A462046FFF7ACFA03AB2C
:10F4500004AA06210446FFF7CBF9CCE70520D7E73D
:10F46000F9F7C2F8094D0A4902460A482D1AED0873
:10F470002D0445F001002346F7F7B3FA0320D7E740
:10F480000520D5E70820D3E7E64F00207882030067
:10F4900048A40300D081030038B50C4C0C4D002368
:10F4A0001A4621462846FFF783FF05280AD14FF662
:10F4B000FF732B8000232360431F58425841054BA4
:10F4C000187038BD0028F7D10120F8E7D04F002090
:10F4D000E44F0020E84F0020F0B5044687B0808854
:10F4E000FEF734FC23786080093B032B20D8DFE84B
:10F4F00003F002253569637A5BB9414A116851B15D
:10F50000E068814207D113603E4AA1881180E36020
:10F510000EE0012B0CD13C4B1B784BB1394BA28830
:10F520001B889A4204D1237A062B01D1FFF7B4FF3E
:10F53000204607B0BDE8F040FFF764BD637A002BBA
:10F54000F6D12F4A11680029F2D0E0688142EFD14C
:10F550002E4913600A68013A0A60D8E72C4F3B78BD
:10F560006BB90125284B1B7833B1264BA2881B8829
:10F570009A4201D1FFF790FF002D3ED0D8E74FF619
:10F58000FF70FFF710FA4FF6FF7398420546E8D177
:10F59000FFF70BFAA8420646E3D1002514222946BC
:10F5A00001A83D7004F035FD0D2320468DF8043090
:10F5B000ADF80860ADF80660FFF724FD01A8FFF77D
:10F5C00021FDCFE7124B1A78002AB1D00021142276
:10F5D00001A8197004F01DFD0E238DF804304FF6BC
:10F5E000FF73ADF80830ADF806302046A3680393EA
:10F5F000FFF708FD01A8FFF705FD07B0F0BD00BF4C
:10F60000EC4F0020E44F0020E84F0020D04F0020B6
:10F61000D44F00202DE9F041374B1B7888B00546C8
:10F62000002B65D0354B364C93E80300237801AFAF
:10F6300087E803004BB1DFF8D480D8F8004054B11C
:10F640001124204608B0BDE8F081FFF725FF23789C
:10F65000002BF5D0EFE72B4A2B4E12883368AA42D5
:10F660001DD1F3B11422214603A804F0D2FC0923D2
:10F6700028468DF80C30FEF769FB0623ADF81430F0
:10F680009DF81C30ADF80E0064F3000303A8ADF83C
:10F69000105006948DF81C30FFF7B4FCD1E75A1CCB
:10F6A00028D00133194A336039462846FFF70CF950
:10F6B00004460028C5D00023C8F80030336811285C
:10F6C00003F1FF333360BBD08628BAD00728B8D007
:10F6D000F8F78AFF0E4C0F4902460F48241AE40837
:10F6E000240444F001002B46F7F77BF90324A8E734
:10F6F0000824A6E71324A4E7E64F0020E0A40300B3
:10F70000E84F0020E44F0020D04F0020EC4F0020B5
:10F710007882030090A40300D081030076DF704755
:10F7200073B50546C9B901A9FFF7C8FD43F2020246
:10F73000904202D008B1F7F7C1FC9DF804309B0756
:10F740000BD52B482B4B2C49C01AC008000440F0A5
:10F750000400F7F739F902B070BD00212846FFF721
:10F7600073FD06460028F6D01128F4D0204C214B1A
:10F77000E41AE4080D284FEA044417D144F00204C7
:10F780001E4920462A46F7F723F913212846FFF79A
:10F79000C5FF0028DFD0F8F727FF194902462B469E
:10F7A000204602B0BDE87040F7F71BB90B2808D11E
:10F7B00014492A4644F0020002B0BDE87040F7F751
:10F7C00007B943F20203984202D10F492A46F1E7F2
:10F7D000F8F70AFF0D4902462B4644F00100F7F7FF
:10F7E00000F9304602B0BDE87040F7F767BC00BFD3
:10F7F00098820300D081030000A5030026A5030022
:10F8000097A50300CEA503002CA6030076A603004F
:10F810002DE9F0410378152B86B0044604D8062B59
:10F8200005D84BB3032B61D006B0BDE8F081073B90
:10F830000E2BF9D801A252F823F000BF0BF90200F9
:10F8400029F80200C9F9020029F80200C9F90200EA
:10F8500029F8020029F8020029F8020029F802001C
:10F8600029F8020029F8020029F8020029F802000C
:10F87000D1F902001DFA02008088FFF7CBFE86282E
:10F88000034601D0112813D16B496C4A0B68A0883C
:10F8900022F8130001335A4202F0070203F0070373
:10F8A00058BF53420B6006B0BDE8F04100F0DCB831
:10F8B000821F012A08D9132806D00028B4D006B028
:10F8C000BDE8F041F7F7FABB1846F8F78DFE5C4D3E
:10F8D000A3885C4902465C482D1AED082D0445F0CA
:10F8E000040006B0BDE8F041F7F77BB8037A012BBE
:10F8F0009AD884881422002101A804F08AFB01A868
:10F90000ADF80840FFF784FF8EE7504E3378002BA8
:10F910008AD14D4B4A4D4E4F4E49ED1AED082D04FC
:10F9200045F003084046F7F74FF83B78002B3AD1F3
:10F9300001A8F9F755FD044608B1F7F7BFFBBDF87C
:10F940000A30002B14BF012200223A7028D101AAEC
:10F9500019461846FFF72CFD044678B9BDF8042077
:10F960003D494046F7F734F8BDF80400FFF7C4FC02
:10F97000044608B1F7F7A2FB01233B70052C05D123
:10F98000364945F00100F7F71FF84DE7062C03D183
:10F99000334945F00200F6E72CB12046F7F78EFB1D
:10F9A000002C7FF441AFF9F7C5FC38B92D4945F07B
:10F9B0000400F7F709F80123337035E748F20762CE
:10F9C00090423FF431AF7AE7214B01221A702BE7C6
:10F9D0001E4B1A4D00241C701D4B1C70164B1F68CB
:10F9E0004FF6FF76E3195A4202F0070203F00703CD
:10F9F00058BF534235F81380B0450BD025F813603B
:10FA00001422002101A804F004FB01A8ADF808802D
:10FA1000FFF7FEFE0134082CE4D105E70B4B002272
:10FA20001A70836848F20D6293423FF43CAFB3F51D
:10FA3000064F7FF4F9AE36E7105000202A38002038
:10FA400098820300B1A60300D08103000E5000206D
:10FA500029380020E3A60300FEA6030028A7030020
:10FA600046A7030085A703007FB51422002101A843
:10FA700004F0CFFA072301A88DF80430FFF7C8FE81
:10FA800007B05DF804FB00007FB58D4B8D4D02780B
:10FA90008D49ED1AED088D4B2D04044645F0040602
:10FAA00053F822203046F6F793FF2278152A00F209
:10FAB0000481DFE812F0160025002C003A004A000D
:10FAC0008D008F00910095009D00B500CB00CE0009
:10FAD000DD00E100E700EC00F200F400F600F800C1
:10FAE000FA006088FCF728FE794AA388009352F850
:10FAF0002020638877493046F6F77DFF04B070BD5B
:10FB00007549304604B0BDE87040F6F75DBF6088C7
:10FB1000FCF712FE227A714B714953F822306C4A7D
:10FB2000009352F820206388E5E76088FCF704FE24
:10FB3000227A6A4B6B4953F82230654A009352F897
:10FB40002020638845F00300D6E76088FCF7F4FDC9
:10FB50006389227A0193614B634953F822305C4AEE
:10FB6000009352F82020638845F00300F6F74FFF1A
:10FB7000628941F206039A421ED041F23D039A4245
:10FB800020D0B2F5885F1FD041F201139A421DD0F8
:10FB90005649574B0092B2F5805F38BF0B46554827
:10FBA000554A1E2104F0E2F9524A5449304604B045
:10FBB000BDE87040F6F70CBF0023514A02EBC303C7
:10FBC0005A68F2E70123F8E70223F6E70323F4E794
:10FBD0004C4996E74C4994E74C4945F0020091E7BF
:10FBE000A068F8F701FD4A49024645F00100DEE74A
:10FBF000484B617A484853F82110237C227A13F04D
:10FC0000010F464B18BF0346CDE90013444B45494D
:10FC100053F82230A28845F00300F6F7F8FE6DE7AE
:10FC2000217A3F4B607A53F821303A49A28851F843
:10FC30002060206903920293F8F7D6FCDDE90232D6
:10FC4000CDE90060384945F00200E6E7A28837496F
:10FC5000CBE7A288A0680292F8F7C6FC029A344962
:10FC6000034645F0010004B0BDE87040F6F7B9BEA8
:10FC7000304945F0030045E7A068F8F7B5FC2E4988
:10FC80000246B2E7A38862882C493046EBE7A38896
:10FC900062882B4945F00200E5E72A4931E72A4905
:10FCA0002FE72A492DE72A492BE7A068F8F79CFCA3
:10FCB0002849024645F0020079E72749FAE700BFE4
:10FCC000D081030098820300CCA7030068B0030032
:10FCD000E0B00300D5A703001EA80300ECB00300AA
:10FCE0003FA803008FA80300CCA80300A7A7030028
:10FCF000BAA70300F04F00201EA9030027A90300A4
:10FD0000C0B003003BA903005AA9030075A9030072
:10FD10008BA9030038B0030077830300B6A9030062
:10FD200040B00300C2A9030005AA03004FAA0300C4
:10FD300076AA0300A3AA0300B6AA0300DAAA030066
:10FD40001BAB030057AB03007BAB0300A1AB03006D
:10FD5000C6AB0300E9AB030018AC030010B50446C2
:10FD6000FFF792FE217821B96088BDE81040FFF7C7
:10FD7000D7BC08290FD10848084B09491B1ADB08D2
:10FD80001B0443F00100F6F71FFEA06818B1BDE8A0
:10FD90001040F7F793B910BDD0810300988203009B
:10FDA00036AC030010B50378042B04461AD10E4874
:10FDB0000E4B62880E491B1ADB081B0443F002003D
:10FDC000F6F706FE60881321FFF7A8FC43F2020253
:10FDD0009042034606D033F0080303D0BDE810403C
:10FDE000F7F76CB910BD00BFD08103009882030003
:10FDF00079A5030070B5DDE9045468B161B15BB168
:10FE000004FB05F6964207D835B12CB1C0E90013C2
:10FE1000C0E90254002070BD0720FCE738B50D464C
:10FE2000044608B9002038BD0368002BFAD04068AA
:10FE30000028F7D0FF29F5D0BFF35F8FF7F761FFF8
:10FE40000028EFD0E068236800FB0530EBE738B509
:10FE50000D46044690B1036883B1406870B1FF2934
:10FE60000CD0BFF35F8FF7F74CFF38B16068BFF37A
:10FE70005F8F2946BDE83840F7F739BF38BD2DE917
:10FE8000F0418846064618B9FF242046BDE8F081B7
:10FE90000368002BF8D04368002BF5D00027FF241F
:10FEA000B368FDB2AB42EFD970682946F7F711FF8E
:10FEB000BFF35F8F40B9FF2C08BF2C462D1B0135C7
:10FEC0004545E2D00137EBE7FF2C07D1FF24F9E7E6
:10FED00021463046FFF7BBFF0134E4B2AC42F7D312
:10FEE000F4E77EDF70477FDF704785DF704786DF8E
:10FEF000704710B50378182B044602D1FCF786FC36
:10FF0000207010BD10B504464088FDF7F1FEA080BA
:10FF10002046BDE8104000F013BE10B586B0044680
:10FF20001422002101A804F074F8052301A88DF81B
:10FF30000430ADF80640FFF7E5FF06B010BD30B560
:10FF400087B005460C461422002101A804F061F890
:10FF5000082301A88DF80430ADF806500394FFF78C
:10FF6000D1FF07B030BD0000F0B587B004460F46A2
:10FF700016460021142201A81D4604F04AF8042365
:10FF80008DF80430094BADF8064019788DF80C70E7
:10FF900000222046ADF80E608DF81050FCF758FC9A
:10FFA00001A8FFF7AFFF07B0F0BD00BF3B3800204E
:10FFB0007FB503238DF804300388ADF8063043790C
:10FFC0008DF80D1013F0040F14BF0123022301A8B4
:10FFD0008DF80C30FFF796FF07B05DF804FB0000CA
:10FFE00070B5154B0E4686B014460A46197805467C
:10FFF000FCF72EFCF6B1114B221E197818BF012216
:020000023000CC
:100000002846FCF725FC631E5A425A410C4B2846F1
:100010001978FCF71DFC1422002101A803F0F9FF58
:10002000022301A88DF80430ADF806508DF80C407D
:10003000FFF768FF06B070BD3B3800203D38002058
:100040003C3800202DE9F047224B0F461978044632
:100050009046FCF7E5FB002839D01F4B2046197865
:10006000FCF7DEFB014678B31C4B20461978FCF701
:10007000D7FB002804F580704FF0070180B214BF51
:100080004FF001094FF00209FEF7B0FE064698B1A5
:10009000052811D0F8F7A8FA114D12490246124866
:1000A0002D1AED082D0445F001002346F6F799FCC2
:1000B00031462046FFF743FF43463A46494620462D
:1000C000BDE8F047FFF750BF43463A46F7E7BDE8C3
:1000D000F08700BF3B3800203D3800203C3800202E
:1000E000C0820300F8B00300D0810300F8B5164FBA
:1000F000164E174D174C3846FFF7FBFE3046FFF7FC
:10010000F8FE2846FFF7F5FE2046FFF7F2FE3B78A3
:10011000182B0CD03378182B09D02B78182B06D03D
:100120002378182B03D0BDE8F840FCF771BE0A4BCA
:100130000A480B49C01AC008000440F00100F6F755
:1001400043FC0320F8BD00BF3B3800203D380020B1
:100150003C3800203A380020D0810300C0820300E0
:10016000429803002DE9F0418AB00F4690460446BC
:10017000FCF7E2FA20220546002102A803F049FF1D
:10018000012D17D1454B002219782046FCF760FB62
:100190002046FCF723FF00287ED187B98526012D54
:1001A000314602AB0CBF3A4600222046FFF79BFEC9
:1001B000014645E0002DEBD143F2020140E020462C
:1001C000FDF796FD4FF6FF73984208D100263B7865
:1001D000DB0718D4324BCDF814800993DFE7012DEB
:1001E000F4D12E4E20463178FCF71AFB0028EDD1D1
:1001F0002046FFF792FE31782046FCF711FB0028DD
:10020000E4D18526E3E7852EC8D004F58070072168
:100210006B46012280B2FEF777FD112801460FD010
:1002200090B1F8F7E1F91F4D1F4902461F482D1AFA
:10023000ED082D04234645F00100F6F7D2FB03211B
:1002400008460AB0BDE8F0810198502203F0E1FEB3
:1002500001990B46204603F8345B029301F1180321
:1002600006934B1C079311310D4BCDF81480099365
:10027000FDF750FD002892D0F8F7B6F9094D0C496A
:1002800002460A482D1AED082D04234645F00200C7
:10029000F6F7A7FB0821D3E7892680E73A38002044
:1002A00014500020C082030061B10300D08103001C
:1002B00067950300F0B585B005460E461446FCF779
:1002C0003BFA012866D0022868D156B93146284643
:1002D000FFF707FE0428044600D11124204605B08C
:1002E000F0BD324B224619782846FCF7B1FA284671
:1002F000FDF7FEFC4FF6FF73984207463BD0002CFB
:1003000039D102AA0721FEF7FBFC0446002848D198
:10031000039991F84430DB0721D501F134044631CB
:1003200022462846FFF7E1FD044610E0112C0ED0CE
:10033000F8F75AF91E4C1F4902461F48241AE408D0
:10034000240444F001003B46F6F74BFB0324002253
:10035000B4FA84F149092846FFF742FEBEE701F1ED
:1003600018042A3108460191FDF712FD0199002871
:10037000D6D10B24EBE731462846FFF7B2FD3278A1
:1003800002F001020428C2F102020446D2B208BF00
:100390001124DDE7002E99D134469FE743F2020491
:1003A0009CE70528C2D11124D1E700BF3A380020CC
:1003B000C0820300C3B10300D08103002DE9F047E0
:1003C0000388113B8AB004460D2B6BD8DFE813F08D
:1003D0000E006A001D003F006A006A006A006A00A1
:1003E000C30077016A006A006A00AC00037A808863
:1003F0003D2B41F23D014FF0000218BF4FF48851F0
:100400000AB0BDE8F047FFF71DBE8088FCF794F9FD
:100410000128014608D1227AA08802F00102C2F127
:100420000202D2B2FFF7DCFD34F8045F142200218F
:100430000DEB020003F0EDFD043406238DF81430BB
:10044000ADF81650079405A8FFF75CFD2AE000F10F
:1004500010073846FDF7BDFC4FF6FF73984205467E
:10046000A08822D1FDF744FC0546A0880022012186
:10047000FFF7B6FD4FF6FF739D421AD10026002309
:10048000A0881A463146FFF732FD0828074629D1D1
:10049000A848A94BA949C01AC008000440F00200AE
:1004A000F6F792FA0AB0BDE8F0872946FDF7B2FCEC
:1004B000DBE705AA07212846FEF722FC0028DDD14C
:1004C000A37ED907DAD5069E96F84430DA0701D51F
:1004D0003436D4E7394606F14600FDF766FC0028BD
:1004E000F6D1CBE798B1F8F77FF8924E0095024627
:1004F0009148A3889249361AF608360446F001005E
:10050000F6F779FAA0883946FFF719FDCAE7A37E06
:10051000DB07C7D5002EC5D1A088334641F20602BD
:100520003146FFF721FDBDE7864B80881978FCF73F
:1005300077F901460028B5D114220DEB020003F033
:1005400068FD13238DF81430A388ADF81630237A94
:100550008DF81C3077E790F808808588B8F1000F97
:1005600040F0A080774B061D197842462846FCF7DC
:100570006FF9617A11F0040105D130460AB0BDE887
:10058000F047FFF715BD05F580791FFA89F903AB30
:10059000012207214846FEF7B7FB0746B0B1F8F73E
:1005A00023F8644C684902466348241AE40824048A
:1005B0002B4644F00100F6F714FA39462846FFF7B7
:1005C000BEFC41463046FFF7F3FC6BE72846FDF7DB
:1005D0008FFB4FF6FF7398420446824630D10146A6
:1005E0000498FDF768FB50450446804600F08C8077
:1005F000DFF864A101462846FDF70CFC9AF80010CC
:100600002846FCF70DF98046D0B92846FFF785FC4F
:100610009AF800102846FCF703F901460028D1D0CB
:10062000484622460721FEF733FC814650B9012196
:10063000C8E721462846FDF7EDFB4FF00108EFE73C
:10064000B846EDE786280ED1142200210DEB0200FA
:1006500003F0DFFC072305A88DF81430ADF8165021
:10066000FFF750FCE3E7F7F7BFFF324F374900943D
:10067000024631483F1AFF083F042B4647F001006D
:10068000F6F7B9F949462846FFF759FC00213046EC
:10069000FFF78EFCB8F1000F3FF404AF2046FDF7E2
:1006A000C3FBFFE6427A4146284602F00302FFF709
:1006B000C9FCA0880AB0BDE8F047FCF7B3BB244BE7
:1006C00080881978FCF7ACF8054600287FF4EAAE7C
:1006D000A088FCF755F80146A08839B9012341F2FA
:1006E00006020AB0BDE8F047FFF73EBC154B2A46AC
:1006F0001978FCF7ADF803238DF81430A388ADF812
:100700001630ADF81C509EE6FEF73AF94045044617
:100710008FD1094B07480F49C01AC008000440F0A8
:100720000100F6F751F904212846FFF708FC394685
:1007300048E700BFC0820300D081030014B2030069
:1007400084B203003B380020F4B2030081B30300FD
:100750003D3800204FB303003A38002058B30278E8
:1007600002F08203802B25D0C2F30213042B21D880
:1007700002F0F203322B1DD041788378994219D8C8
:10078000062917D9102B15D8C17811F0040311D1FF
:10079000007943070ED4084301070BD4D30700F0B8
:1007A000030003D4B0FA80F040097047003818BF46
:1007B000012070470020704770B515460E46142280
:1007C0000021044603F025FC2846FDF791FA267027
:1007D000A0806580204670BDFEF782BC10B503780E
:1007E000182B044602D1FCF711F8207010BD000050
:1007F000F0B531F0080387B006460D46174628D0FD
:10080000112926D01D4C1E4BE41AE4080D294FEA8D
:10081000044422D102461B4944F00200F6F7D8F8FE
:10082000042132460DEB0100FFF7C6FF9FB13B7874
:1008300003F00103C3F10203DBB28DF80C30002397
:100840008DF8103041F20113ADF80E3001A8FFF71A
:10085000C3FF07B0F0BD0223EFE70846F7F7C4FE79
:1008600009490246334644F00100F6F7BAF8324629
:10087000082101A8FFF7A0FF0395E7E7B88203006E
:10088000D0810300E8B303009DB403002DE9F041DB
:100890001B4B88B00027CDE904771B68039303AD99
:1008A0000446884695E807006E4686E8070022461B
:1008B00006212846FFF780FF2846CDE90586FFF789
:1008C0008BFFFDF703FD009902462046FFF74AFC27
:1008D000A0F111035A425A410A4B054619782046A5
:1008E000FBF7B6FF084B3A4619782046FBF7B0FFF6
:1008F000009A29462046FFF77BFF08B0BDE8F0814B
:100900005C50002041380020403800200021FFF7D3
:10091000BDBF00002DE9F043054689B091469846D9
:100920000E4601BB3F4BCDE904111B68039303AC9A
:1009300094E807006F4687E807002A46062120460C
:10094000FFF73AFF2046CDE90567FFF745FF364B35
:10095000009F1B7843B99DF809302BB90526304616
:1009600009B0BDE8F08300274A4639462846FFF71C
:10097000A1FCA0F111035A425A412C4B04461978AC
:100980002846FBF765FF112C20D8072C02D80CBB9A
:1009900026463DE0A4F10803092B1BD801A252F81A
:1009A00023F000BF91090300D5090300D509030016
:1009B00091090300D509030091090300D50903003B
:1009C000D5090300D5090300F709030043F2020328
:1009D0009C42DDD02046F7F707FE154E154902462A
:1009E0001548361AF608360446F001002B46F5F78E
:1009F000F8FF03260CE0114B324619782846FBF726
:100A000027FF0F4B4A4619782846FBF721FF00269F
:100A1000B8F1000FA3D03A4621462846FFF7E8FE7A
:100A20009DE700BF5C500020595000204038002056
:100A3000B882030008B50300D08103003F380020CE
:100A40003E38002013B50A4B19780446FBF7E8FE40
:100A5000084B019019782046FBF7E2FE019A014607
:100A60000123204602B0BDE81040FFF753BF00BF8E
:100A70003E3800203F380020F7B507460C460029D5
:100A800045D0FBF76BFE0546002842D03846FDF7FF
:100A90002FF906464FF6FF70301AA5F1020318BF72
:100AA00001205D425D41237845EAC00523F009033A
:100AB0001D4325703846FBF763FE237860F341033E
:100AC00023703846FBF76EFE237860F382032370B1
:100AD0003846FBF779FE0546B8B93846FBF750FEB5
:100AE00050B16A4607213046FEF70AF958B9019B12
:100AF00093F8440000F00100237860F3041323709E
:100B0000002003B0F0BD2846F6E70120F4E70E20F0
:100B1000F7E743F20200F4E713B5E0230C4601A91E
:100B20008DF80430FFF7A8FF9DF80420237828B93A
:100B300093430CBF0120002002B010BD0020FBE752
:100B400013B50378062B044607D0132B0CD0204690
:100B500002B0BDE81040FFF73FBE8168408802B098
:100B6000BDE81040FFF792BE134B1A68FAB14088F7
:100B7000FBF706FE0146E0B1227A6088C2F340032B
:100B8000C2F300019B00C2F3800243EAC10343EABF
:100B9000021301A98DF80430FFF7BEFF80F00100B9
:100BA000C2B2002160880123FFF7B4FECFE7012124
:100BB000F8E70246F6E700BF5C50002008B503786E
:100BC0000C2B0FD8082B0FD9084B09491878002295
:100BD000FBF758FE074B084918780022BDE808408B
:100BE000FBF750BE142BEFD008BD00BF41380020EA
:100BF0000D09030040380020450A030038B5FDF711
:100C000029FB0446D0B90E480E4DFFF7E7FD0E480C
:100C1000FFF7E4FD0D48FFF7E1FD2846FFF7DEFD95
:100C20002B78182B0AD10A4B0A480B49C01AC00866
:100C3000000440F00100F5F7C7FE0324204638BD4C
:100C400040380020413800203E3800203F38002046
:100C5000D0810300B88203004298030010B5044617
:100C6000FFF7ACFB2046FDF7C1FB074B074918789F
:100C70000022FBF707FE064B06491878BDE8104036
:100C80000022FBF7FFBD00BF413800200D09030023
:100C900040380020450A030010B5044630B90A4B1D
:100CA00018600A4B01221A70002010BDFFF756FD94
:100CB00038B1074B22681A6022791A71024A136010
:100CC000EFE70720F1E700BF5C50002059500020FB
:100CD0005450002000230A461946FFF71BBE0000AF
:100CE00030B50B4B19680B4B0022914201D100200B
:100CF00009E09D788478A54206D11D880488A54224
:100D000002D1054B186830BD01320433EDE700BF56
:100D1000685000206C500020605000202DE9F84FF2
:100D200090F8C6A24FF0760B04460AFB0B008846EB
:100D30009146FFF7D5FF074668B3D4F8CC52052D8E
:100D400029D804EBC5165A46A6F8D2920BFB0A41E5
:100D500006F5357003F034F9B8F1000FC6F84C739E
:100D60000E4F14BF0023022386F8D0323B680135B2
:100D70009D42C4F8CC520ED104F534750026EB6FB9
:100D8000284698473B6801369E4205F18005F6D318
:100D90000023C4F8CC32BDE8F88F00BF68500020B3
:100DA00030B5A1B004460D467C22002101A803F015
:100DB00030F903238DF80430044BADF806501B685E
:100DC00002940BB101A8984721B030BD60500020BB
:100DD0002DE9F041074691F8C60276234FF000084E
:100DE000A0B081F8C88200FB03100C461546FFF73F
:100DF00077FF064660B17C22414601A803F009F95D
:100E000001238DF80430ADF80650029701A8B047D1
:100E10002946204620B0BDE8F041FFF7C1BF0000E1
:100E200030B504468BB00D462022002102A803F005
:100E3000F0F894F8C53294F8C61213B3013BDAB255
:100E400076234B43122000FB023323445B8A013399
:100E50009BB2ADF80430762303FB01412A460B898F
:100E6000ADF8063003238DF80830019BCDE905432A
:100E7000064B0493064B02A9186800F0BDFC0BB0AA
:100E800030BD762303FB0143DB88E2E7D10D03008D
:100E900084500020F0B5044689B020220E466846F2
:100EA000002103F0B6F894F8C732244A01331268DF
:100EB000DBB2934284F8C7324FF0000336D294F885
:100EC000C6521F4884F8C5320135EDB2762715FBAE
:100ED00007F2A11850F8250084F8C652A0500B71F3
:100EE0001848194BA25A1949C01AC00800043346C1
:100EF00040F00400F5F775FD7D4302238DF80030C6
:100F00000123ADF810306359CDF81230104B029325
:100F1000104B039418683246694600F06DFC18B116
:100F200032462146FFF754FF09B0F0BD84F8C832BD
:100F300031462046FFF734FFF6E700BF6850002037
:100F40006C50002018820300D08103006DB50300AF
:100F5000D10D0300845000202DE9F047044688B0ED
:100F60000D46164600212022684603F052F894F8F8
:100F7000C6C294F8C51276231CFB03F2A0184FF0EA
:100F8000120E07791EFB012301F1010C0A33BC4547
:100F900023441CD004F11C0C00F1220807F1FF3996
:100FA0009444CAB2974216D989451B8919D00EFBC1
:100FB00001FA013338F80A2093422AD10CEB0A03D4
:100FC00094F8C522013284F8C5220131E9E71B8972
:100FD0000289934208D101232B70002008B0BDE89C
:100FE000F0870289934218D001339BB2ADF81030DC
:100FF0000B4B029300210B4B297004218DF800103C
:10100000ADF81220186803943246694600F0F4FBEC
:10101000E4E7013A9BB292B2E8E70023D0E700BFD1
:10102000D10D03008450002010B570B1026862B188
:10103000436853B1064900200860064901240C703A
:1010400005490A60054A136010BD0E20FCE700BF89
:101050006850002064500020605000208450002020
:1010600010B5044680B10C4B1B787BB1FFF738FEFE
:1010700070B90A4A1368052B0CD80949246841F84D
:1010800023400133136010BD0E20FCE70820FAE76F
:101090000020F8E70420F6E76450002068500020A4
:1010A0006C500020F0B50F468BB00446002848D0A5
:1010B000274B1B78002B46D0264B1B68002B42D0B9
:1010C00090F8C812002940D14FF4BA62224E019123
:1010D00002F09FFF0199202202A802F09AFF3068D7
:1010E000394600F069FC50BB1C4BC4F8CC0284F8B4
:1010F000C502A4F8C6021A4D18681A4B1A49206096
:10110000ED1AED082D0482B23B4645F00400A4F828
:10111000CA72F5F766FC2068CDF81A0002238DF834
:1011200008300125114B3068ADF818503A4602A935
:101130000594049300F060FB08B984F8C8520BB022
:10114000F0BD0E20FBE70820F9E71120F7E700BF0C
:101150006450002068500020845000206C50002013
:1011600018820300D08103006DB50300D10D030088
:101170002DE9F0430C4685B0054660B159B1B94B35
:101180001B7843B10388322B7FD007D8112B00F096
:101190005B81302B2CD005B0BDE8F083332BFAD126
:1011A0008288B1F8CA329342F5D1C08891F8C662FC
:1011B00091F8C572002800F0F68000238DF80F30FA
:1011C000762316FB03F6A1197B1C09798B4200F0EC
:1011D000308184F8C5320DF10F012046FFF7BCFEC7
:1011E000002840F0BE809DF80F30002BD3D023E1C3
:1011F0008288B1F8CA329A42CDD191F8C6329A4863
:101200009A4E762213FB02F3361ACA5ACF18F60802
:10121000EB88360446F0040043BB9549F5F7D8FB4C
:101220002B69C7F8063094F8C432AA7A1344062B07
:101230000EDC84F8C432A9882046FFF7F1FD0028AF
:10124000A9D0AA88214605B0BDE8F043FFF7C0BD8C
:10125000062346F00200874984F8C4320190F5F76E
:10126000B3FB85490198F5F7AFFBE4E78349F5F750
:10127000AFFB2046AA880021FFF750FDA988204631
:1012800005B0BDE8F043FFF705BE8288B1F8CA3269
:101290009A4280D1C38891F8C672002B57D1762329
:1012A00017FB03F801EB0809837A99F804603344CB
:1012B000062B26DC89F8043006EBC60208EB420256
:1012C000334605F10C012244002099F80460B34232
:1012D00001F10A0102F1120228D31222013B02FBA2
:1012E000034394F8C6227621434401FB0242598A03
:1012F000138999422BD2062E29D0A98884F8C56279
:101300009AE7062389F804305848574B31F80820EB
:101310005B49C01AC008000440F002000190F5F7D4
:1013200057FB58490198F5F74FFBC5E751F80A6C90
:1013300042F8086C51F8066C42F8046C31F8026C03
:10134000168050809080D08010810133BDE700234B
:1013500084F8C532AA880DF10F012046FFF7FCFD85
:1013600020B1AA882146FFF733FD14E79DF80F301E
:10137000002B3FF410AF76235F433C483A4BE25BCF
:10138000C01AC008AB8800043F4940F00400F5F7DC
:1013900028FB2046AA880121FFF7C0FCA988204627
:1013A000FFF778FDF7E6762373434FF0120C0CFB42
:1013B0000733B5F80AE0294623447045BFF4FDAE73
:1013C000B1F80EC0ACF5245CBCF1080F0AD8DFE818
:1013D0000CF021260509090909092B00B1F80CC0F8
:1013E000A3F814C0B3F814C0BCF1000F0FD0B3F8C9
:1013F00016C0BCF1000F0AD0B3F818C0BCF1000F42
:1014000005D0B3F81AC0BCF1000F7FF4D6AE01309E
:101410000631D2E7B1F80CC0A3F816C0E2E7B1F884
:101420000CC0A3F818C0DDE7B1F80CC0A3F81AC0CF
:10143000D8E701238DF80F300B4B0C48A25BC01A84
:10144000C008AB8800049FE7B1F8CA3282889A428C
:1014500001BF002381F8C8324FF6FF73A1F8CA32EA
:1014600099E600BF64500020D08103001882030079
:10147000B5B50300CEB50300EDB5030032B60300E9
:101480004FB6030095B60300EFB603009BDF70472D
:101490009DDF70479EDF7047A1DF7047A3DF704775
:1014A000AEDF704730B5048800239AB2944206D963
:1014B000456835F813508D4203F10103F5D110460C
:1014C00030BD00008B6910B50C46198810291ED854
:1014D000023189B2F6F737FF6060D0B1A16900230D
:1014E0000222F6F771FFA269E1691288606802239F
:1014F000F6F76AFF084B094862680949C01AC00834
:10150000000440F00400F5F763FA002010BD092044
:10151000FCE70420FAE700BFD08103004882030003
:1015200051B7030010B50C46C98A102915D8F6F733
:101530000AFF606098B1E28AA1690023F6F744FFD0
:10154000084B094862680949C01AC008000440F005
:101550000400F5F73DFA002010BD0920FCE7042047
:10156000FAE700BFD08103004882030051B70300AF
:101570002DE9F0438BB006460022C068204CDFF80E
:101580008C80DFF88C900DF10601F8F73DFB1D4BC8
:10159000E41AE4082404054644F0040415B10BB031
:1015A000BDE8F083BDF8062041462046F5F710FA65
:1015B000BDF80630B768142202FB037702A92A4659
:1015C0003846F8F721FB104D38B1F06800220DF1D4
:1015D0000601F8F719FB0546E0E79DF8083059F8D1
:1015E00023303BB10398F6F798FE039A294620462C
:1015F000F5F7EEF9002202A93846F8F705FBE3E714
:1016000048820300D08103009AB7030078B7030033
:10161000C4BA03007FB50646124C1348241A154677
:10162000E40832780B4620043DB9104940F004002C
:1016300004B0BDE87040F5F7D4B9039100950C49AA
:1016400040F00100F5F7D7F9B46844B1039BF168A5
:101650001A462846234604B0BDE87040184704B037
:1016600070BD00BF48820300D0810300BDB70300F6
:10167000F8B703002DE9F041524B534FFF1AFF0812
:101680003F0447F004068EB080460D4630464F4971
:10169000F5F79AF9012206A94046F8F7B5FA04468B
:1016A000D8B99DF81830052B00F28680DFE803F0EA
:1016B000031829353E4746493046F5F785F9BDF808
:1016C0002A20BDF828102846FFF7E6FE0446112C14
:1016D00059D140493046F5F777F90EB0BDE8F081B1
:1016E00002A9BDF82E2007980C910023F6F776FE8C
:1016F00030463949F5F768F90AA92846FFF7CEFEC2
:10170000E4E730463549F5F75FF9BDF828100DF1EB
:101710002A022846FFF7BAFED8E730463049F5F7E7
:1017200053F90AA92846FFF7B3FECFE730462D4903
:10173000F5F74AF90AA92846FFF7ACFEC6E70DF10E
:10174000060402AB214607980D9302220023F6F708
:1017500045FEBDF806200D9907980C940223F6F774
:101760003DFE2149BDF806703046F5F72DF90AA96E
:101770002846FFF795FE04460028A8D1BDF806309C
:10178000BB4218BF0C249DF81820184B53F8223088
:101790003BB10798F6F7C1FD079A15493046F5F7B2
:1017A00017F906A900224046F8F72EFA22462946E4
:1017B00006A8FFF72FFF90E70E4947F00200F5F764
:1017C00003F9E0E7D08103004882030042B8030038
:1017D00062B803002FB9030075B8030089B803008D
:1017E000B1B80300D8B803000AB90300C4BA0300B3
:1017F0009AB7030014B903002DE9F047614B154671
:10180000614AA3EB02094FEAD9094FEA094949F0B5
:10181000040706460C4638465C49F5F7D5F826B964
:101820004FF00E094846BDE8F087002CF8D030464E
:10183000FFF79EFE2378052B00F2A0802946304654
:10184000FFF730FE3388834200F098804FF0140891
:1018500008FB00F8B0684044F8F7CFF9B0B123783E
:10186000052B6CD8DFE803F00327313C465048498C
:101870003846F5F7A9F8628A218A2846FFF70CFE58
:10188000112854D143493846F5F79EF8DFF824A1D2
:1018900023785AF82330002B58D1B06821464044B1
:1018A000F8F723F9814600285AD1B0682946404408
:1018B000FFF7E0FEB6E738463749F5F785F804F15B
:1018C00010012846FFF7EAFDDAE738463349F5F715
:1018D0007BF8218A04F112022846FFF7D7FDCFE7F3
:1018E00038462F49F5F770F804F110012846FFF744
:1018F000CFFDC5E738462B49F5F766F804F110012E
:101900002846FFF7C7FDBBE7A3692749B3F8009056
:101910003846F5F759F804F110012846FFF7C0FDE5
:101920000028ADD1A3691B884B4518BF0C20024687
:1019300029462046FFF76EFE4FF0000972E749F096
:1019400002001A49F5F740F80020F0E73069002856
:101950003FF466AF21469847814600289DD061E755
:1019600023785AF82330002B9FD06068F6F7D5FC17
:1019700062680F493846F5F72BF896E74FF00709EC
:1019800050E700BF48820300D081030099B90300EB
:1019900062B803002CBA030075B80300BAB903009B
:1019A000B1B80300E3B903000BBA030014B9030094
:1019B0009AB70300C4BA0300F8B50D4604460028E0
:1019C0003AD0FFF7D5FD29462046FFF76BFD238867
:1019D00083422FD1194B1A481A49C01AC008000473
:1019E00040F004002A46F4F7F3FF218800234FF665
:1019F000FF709AB2914203D82069F6F78CFC06E09A
:101A0000626832F81320824203F10103F1D020888A
:101A100000234FF6FF769AB2824201D30420F8BD2C
:101A200061685A0001EB43078A5AB24203F101038D
:101A3000F1D13D800020F2E70E20F0E7D0810300D5
:101A40004882030092BA030037B50C4608B301B3CD
:101A50000588112D15D181882046FFF723FD2388A5
:101A6000ADF80600834214D0112D14D163684FF6EF
:101A7000FF7223F810200DF10601E068F8F735F841
:101A800007E0A5F130031F2BE5D9A5F150031F2B6B
:101A9000E1D903B030BDA368142202FB0030FFF788
:101AA000E9FDF6E78ADF70478BDF70478CDF704710
:101AB00030B5037A89B004460D4653B3837C019355
:101AC000FFF7F2FF1422002103A802F0A2FA04F1AA
:101AD0000A02019B04F11401A81CFFF7E7FF0E4B5B
:101AE0000E4905460E481B1ADB081B0443F0040090
:101AF0000190F4F769FF05230A4901988DF80C302D
:101B00002A460495F4F764FF1DB1636A0BB103A87C
:101B1000984709B030BD00BF30820300DCBA030033
:101B2000D0810300E7BA030010B5C8B1C2B10329E0
:101B300018D10479C4B90188138899420ED00123C1
:101B40000371136803600948094B12880949C01AD8
:101B5000C008000440F00400F4F73AFF204600E01B
:101B60000E2010BD0720FCE70420FAE730820300B6
:101B7000D0810300FDBA030050B1CB060AD011F0AA
:101B8000040116BF01234171437182710020704727
:101B90000E20704707207047007DC0F3C0007047DB
:101BA000F0B503460C46002851D042620022026084
:101BB0004260002938D00A7902720A7B82740A686E
:101BC000FAB100F1140502F10807106851682E46B9
:101BD00003C60832BA423546F7D1106830609288A1
:101BE000B280A168C1B10A68C3F80A204A68C3F884
:101BF0000E2003F128029A641F22A3F84C20002033
:101C0000F0BD426902F0E30242F4200242F4827223
:101C1000426150228261E4E706225A811822DA608A
:101C20004FF4C8721A82E4E74269017202F0E302DB
:101C300042F4200242F48272426150228261062202
:101C400042811822C2604FF4C8720282D1E70E208E
:101C5000D6E7000030B5044687B088B314220021CF
:101C600001A802F0D6F9FFF71FFF2046FFF794FF07
:101C700030B1636A23B101228DF8042001A898478E
:101C800004F1480104F11400FFF70CFF0D4B04466A
:101C90000D481B1ADB0834F008054FEA034009D051
:101CA0000A49224640F00100F4F792FE25462846F4
:101CB00007B030BD064940F00400F4F785FEF6E7B2
:101CC0000E25F4E730820300D081030015BB03002A
:101CD00039BB030038B50D46044640B3FFF7E4FEB8
:101CE000D5B12B461434083518685968224603C20A
:101CF0000833AB421446F7D1186810609B88938074
:101D00000C4B0D480D49C01AC008000440F00400F7
:101D1000F4F75AFE002038BD636903F0E30343F48F
:101D2000200343F4827363615023A361E8E70E202C
:101D3000F1E700BFD08103003082030042BB030003
:101D40002DE9F04F07468BB037F8082B1B2A0646C3
:101D50000C4600F091801D2A14D0102A2FD10021AA
:101D600005A802F056F906238DF81430B388ADF8B3
:101D70001C3004F114030993636A0697002B40F0AA
:101D800099801CE01022002105A802F042F904F11C
:101D9000140320460993FFF7FFFE04F1480A88B1B7
:101DA00002238DF8143005A8636A069798475146B8
:101DB0000020FFF777FE39462046FFF779FE0BB08B
:101DC000BDE8F08F94F8058094F80690B8F1000F04
:101DD00045D094F804B0B18C224604EB8B03054641
:101DE00093420CD1B9F1000F18D0AB4518D19DF832
:101DF0001C3043F004038DF81C30012313E0306ADB
:101E00000191CDE90223FAF7B1FADDE90112039B52
:101E100000B30135EDB2B9F1000F1ED1002DE6D1AE
:101E20004FF00008434601220697B9F1000F19D080
:101E30009A421DD100238DF8143039462046FFF711
:101E400037FE636A0BB105A8984751460020FFF79B
:101E500029FEB4E7B9F1000FC7D10432C0E7434609
:101E60004246E1E7B8F1000F02D08DF81490E4E7A4
:101E700003238DF81430E4E7142200210DEB020057
:101E800002F0C7F8337A012B99D10C4B0C480D495D
:101E9000C01AC008000440F00400F4F795FD636A1E
:101EA000002B8CD004228DF814201434327A09943B
:101EB0008DF8182005A8984781E700BFD08103005E
:101EC0003082030075BB030062DF704770B5094BB9
:101ED000044609481B1ADB081B040D4643F00400A6
:101EE0000649F4F775FD2B691BB12046BDE870402B
:101EF000184770BD28820300D08103009BBB0300FC
:101F00002DE9F0410C4686B005461422002101A8B7
:101F100002F07FF8237813BBA288012A1FD1A17990
:101F20002A7891421BD194F8088022461E46184612
:101F30009C461F461946884514D8BCF1000F01D0B5
:101F4000ADF816701EB1ADF81200ADF81430EB68A4
:101F50002BB16288ADF8062001A92846984706B043
:101F6000BDE8F081B2F80EE0BEF1020F05D0BEF17F
:101F7000030F06D001311232DDE7D78A4FF0010C92
:101F8000F8E7D08A138B0126F4E70000F0B5184B70
:101F900087B002AA04460D4603F1100C17461868D4
:101FA0005968164603C6083363453246F7D1ECB18B
:101FB000E5B1AB68D3B121463846FFF785FF98B944
:101FC00023788DF806300123ADF804304FF6FF7307
:101FD00063802B68E3606B682361AB68A08020811D
:101FE000636101A8FFF73CF807B0F0BD0E20FBE7E6
:101FF0001DBC030010B5034686B0084649B343B381
:1020000049884FF6FF72914223D09C888C4220D1A0
:10201000198811291FD039291BD18288CAB1598941
:10202000914216D1C268A2B101218DF8041003F1CA
:102030001001DB890391ADF8103001A990470B48DE
:102040000B4B0C49C01AC008000440F00400F4F720
:10205000BBFC06B010BDC368002BFAD002218DF87E
:102060000410428001A99847F3E700BF28820300CB
:10207000D0810300D1BB030070B504468AB040B3E1
:1020800045884FF6FF739D4225D0C6881EB3202297
:10209000002102A801F0BDFF01238DF804308DF866
:1020A00008300E4B6069ADF81A60CDE904340223A4
:1020B0000022ADF81E3001AB8DF8052008932A46AA
:1020C00040F2011302A9ADF81830FFF795FB0AB0F2
:1020D00070BD0E20FBE70820F9E700BFCD1E03000E
:1020E00070B50E4688B015460446002839D0202227
:1020F0000021684601F08DFFF42D0CD91A4B1B48C6
:102100001B49C01AC008000440F00200F4F75CFC50
:10211000072008B070BD62884FF6FF739A420BD15A
:10212000114B12481349C01AC008000440F00200C5
:10213000F4F74AFC0820ECE701238DF800300E4B41
:102140006069ADF81650CDE902342389ADF812303C
:1021500069464FF481730696ADF81030FFF74CFBDB
:10216000D7E70E20D5E700BFD08103002882030007
:10217000E6BB0300F8BB0300CD1E030050B1418055
:102180002AB15388C3801388838093880381406970
:10219000FFF712BC0E20704710DF704711DF704749
:1021A00013B5044609496846F6F7C3F9019808B91A
:1021B00002B010BDD0E900212046904718B1684612
:1021C000F6F7C1F9F2E71120F2E700BF3CBC0300CB
:1021D00013B5044607496846F6F7ABF9019B0BB9FE
:1021E00002B010BD2046D3E9002190476846F6F7BB
:1021F000AAF9F3E754BC0300084B9A6822B11A68A5
:1022000022F480021A607047054B4FF48002C3F835
:102210008020BFF34F8FBFF36F8F7047003F0020C8
:1022200000E100E00B4991F816335A09EC23134101
:10223000DB0706D5084B9A683AB94FF480030B6068
:10224000704742F20200F4F739BF1A6842F4800284
:102250001A60704700E100E0003F0020F7B5194F19
:102260003C7864BB184E012520463570FFF798FF77
:10227000112821D02046FFF7ABFF144B8DF8034007
:10228000186801900DF10300F5F7F8FA104901A85C
:10229000FFF782FF0446B0FA80F0400938709DF8DD
:1022A0000300F5F70FFB3CB90A4B34701C70FFF7C5
:1022B000B9FF2846FFF78CFF204603B0F0BD082485
:1022C000FAE700BF895000208850002035BC030089
:1022D000D97002008A500020F7B5154F3B781BB328
:1022E000144E01203070FFF75BFF11284FF00005FE
:1022F0001CD00220FFF76CFF0DF107008DF807508E
:10230000F5F7BCFAFFF74AFF04469DF807003D7059
:10231000F5F7D8FA2CB903203470FFF76DFFFFF7FB
:1023200057FF204603B0F0BD0824FAE72C46F8E733
:102330008950002088500020054B1B7833B1054B95
:102340001B780BB1FFF7C8BFFFF788BF08207047A5
:102350008850002089500020014B1878704700BF3A
:102360008950002007B508496846F6F7E2F8019B56
:1023700013B903B05DF804FBD3E900209047684629
:10238000F6F7E1F8F3E700BF48BC0300FFF7EABF48
:1023900060DF704769DF704761DF704730B5134D0C
:1023A000ADF5017D4FF4FA740DF1020103A8ADF80B
:1023B0000240FFF7F1FF70B9294601A8F6F7B9F816
:1023C000029B002BF0D003A8D3E90021904701A87D
:1023D000F6F7B9F8F4E7052805D00DF5017DBDE85D
:1023E0003040F4F76BBE0DF5017D30BDDCBE03005F
:1023F000024B1B780BB1FFF7D1BF70478B50002009
:1024000030B5054685B00C46002900F0A8800023B1
:10241000CDE90133534A039301230A608DF8040088
:102420008DF8063001A906232020ADF80830FFF70B
:10243000B1FF60B1F6F7D8F84B4B4C4902464C4817
:102440001B1ADB081B0443F00100F4F7C1FA002358
:10245000CDE90133039301238DF80530226840F262
:10246000011301A94020ADF80630FFF793FF60B1DA
:10247000F6F7BAF83C4B3F4902463D481B1ADB08C9
:102480001B0443F00100F4F7A3FA0023CDE9013364
:10249000039322688DF80450F72301A92320ADF897
:1024A0000630FFF777FF60B1F6F79EF82E4B324902
:1024B00002462F481B1ADB081B0443F00100F4F707
:1024C00087FA002301202268039301A9CDE9013393
:1024D0008DF80400FFF75EFF60B1F6F785F8224B38
:1024E0002649024622481B1ADB081B0443F0010060
:1024F000F4F76EFA0023CDE9023322684FF4B0639B
:1025000001A9A1200193FFF745FF60B1F6F76CF830
:10251000154B1B49024616481B1ADB081B0443F0E7
:102520000100F4F755FA00252268039501A9A020BF
:10253000CDE90155FFF72EFF034668B1F6F754F8D1
:10254000094B104902460A481B1ADB081B0443F0DA
:102550000100F4F73DFA2B46184605B030BD0E23B6
:10256000FAE700BF603100206882030060BC03000E
:10257000D0810300A6BC0300F2BC030039BD0300F8
:1025800085BD0300D6BD030073B505460668FFF799
:10259000FFFE2B68B34204461DD91A481A4B1B494B
:1025A0001B1ADB081B0443F002000190F4F70CFA3D
:1025B0002B68174901983246F4F713FA4FF080530D
:1025C0002A68D3F80C31134901989B0203F1005398
:1025D0009A1AF4F7FDF92CB90F4B01221A70204614
:1025E00002B070BD2046F5F7FFFF074B0B490246CE
:1025F00004481B1ADB081B0443F00100F4F7E8F958
:10260000EDE700BFD08103006882030029BE03000C
:1026100058BE030089BE03008B500020B3BE0300E8
:102620004BDF70471FB50E4C01A8FFF7F9FF70B9DB
:10263000214602A8F5F77DFF039B002BF4D00198FB
:10264000D3E90021904702A8F5F77DFFF4E70528BC
:1026500004D004B0BDE81040F4F730BD04B010BDA4
:10266000F4BE03002DE9F04FADF6240D08AC0123B4
:10267000002226460DF5846113F0800041F82320E6
:1026800018BF1B2044F8043B013283EA4303434054
:10269000B2F5807FDBB2EFD16D4C0123002213F045
:1026A000800018BF1B20013244F8043B0A2A80EA4C
:1026B0004303DBB2F3D1674D674C63232B700023D8
:1026C00084F86330012051F82030C3F1FF0356F83D
:1026D00023804FEAE81242EA48025FFA82FEC2F320
:1026E000C01242EA4E025FFA82FCC2F3C01242EA12
:1026F0004C02D7B2C2F3C01242EA4702D3B283EA15
:10270000080383EA0E0383EA0C037B4083F0630330
:102710002B54E0540130B0F5807FD4D18B6B039300
:102720004B6A04934B6B0693CB6A07934B4B029314
:1027300048484B4BDFF838C14A4F4B4EDFF834A1C5
:10274000DFF83491DFF83481DFF80CE101930DF507
:102750008465FF2410F8013B13F0800F14BF1B2287
:10276000002282EA43021904D2B241EA0321514015
:10277000534041EA0361019B43F8041B01934FEA74
:1027800031634AF8043B4FEA314349F8043B1EF8F1
:10279000013B4FEA312148F8041B002B52D055F879
:1027A00023200399114491FBF4FBCBEB0B2BA1EB02
:1027B0000B0B08A951F82BB004990A4492FBF4F1D1
:1027C000C1EB0121511A08AA52F82120120282EA13
:1027D0000B020592002B38D0069A55F823101144AD
:1027E00091FBF4FBCBEB0B2BA1EB0B0108AA52F8EE
:1027F00021100904059A4A4063B1079955F823301E
:102800000B4493FBF4F1C1EB0121591A08AB53F8C7
:1028100021301B065A40029B43F8042B02934FEAD7
:1028200032634CF8043B4FEA324347F8043B0F4B0A
:102830004FEA3222834246F8042B8BD10DF6240D49
:10284000BDE8F08F9B461A46C1E71946D2E700BFA4
:102850008C6100208C500020B4610020B462002004
:102860008C510020B46A0020B46E00208C510020EE
:10287000B46600208C5500208C5900208C5D00200F
:102880004FF48C72002101F0C4BB18B14FF48C716D
:1028900000F060BE70470000C02AF8B504460D463F
:1028A00016464AD0B2F5807F49D0802A40F0D080C9
:1028B0000A23694F23603B681BB9FFF7D3FE01234E
:1028C0003B60224604F10803760942F8043F29469A
:1028D00005EB86068E4234D123680C2B3FD00E2B9D
:1028E0006ED00A2B27D15D4D5D49204604F1A0062C
:1028F000426955F8044B8768C2F307237C40CB5CE0
:102900006340140E10300C5D83EA0443D4B20C5DB6
:1029100083EA0463C2F307440C5D83EA042350F89E
:10292000044C836063400468C360634003615340A8
:1029300043618642DCD100208CE00C23B9E70E23F2
:10294000B7E78B7848781B0443EA002308780343F1
:10295000C87843EA006342F8043F0431BAE72046EE
:102960003F493E4C00F1C005C26954F8046B8768CA
:10297000C2F307237E40CB5C7340160E18308E5D89
:1029800083EA0643D6B28E5D83EA0663C2F3074646
:102990008E5D83EA062350F80C6C8360734050F818
:1029A000086CC360734050F8046C036173400668A0
:1029B0004361734083615340C3618542D4D1BAE718
:1029C000264D2749204604F1E006446A55F8042BB9
:1029D0008768C4F307237A40CB5C87695340220E93
:1029E00020308A5C83EA0243E2B28A5C83EA0263B3
:1029F000C4F307428A5C83EA022350F8142C8360F4
:102A0000534050F8102CC360534050F80C2C036115
:102A10005340DAB243618A5C7A401F0ECF5D82EA8E
:102A20000762C3F30727C3F30743CF5DCB5C82EA9A
:102A3000072282EA034350F8042C83615340026862
:102A4000C36153400362634043628642BDD172E773
:102A50006FF01F00F8BD00BFB47200208C61002031
:102A60008C5000202DE9F04F91B043680D68089517
:102A70001C68DFF848C3CD4FCD4E6C404D680995BA
:102A800008945C686C408D680A9509949C686C4059
:102A90000A94CC680B9403F110010791D968C54DD5
:102AA00061400B9101684910019101390291303365
:102AB0000091DDE9089ADDE90A815FFA89F4080EE0
:102AC0005CF8244057F820004440CAF307205FFA1E
:102AD00081FE56F820005CF82EE04440C8F3074021
:102AE0005FFA88FB55F820005CF82BB0444053F89F
:102AF000200C6040C4B20394040E0494C0F3074455
:102B00000594C0F3072406944FEA1864C8F3072815
:102B100057F824408EEA040EC9F30724203356F8F0
:102B200024408EEA040ECAF3074455F824408EEA86
:102B3000040E4FEA1A645FFA8AFA57F824405CF8E8
:102B40002AA08BEA0404C1F3072BC1F3074156F80E
:102B50002BB055F8211084EA0B04C9F3074B4FEA58
:102B6000196955F82BB057F829908AEA090956F8DF
:102B700028A089EA0A0A8AEA01090099002984EA58
:102B80000B0400F39780029B0C905E01019B002BCD
:102B9000079BD8BF002633441E46596889EA0101C5
:102BA0000D91986860400E90DB688EEA0304250E54
:102BB000814B0F9413F805C0039D5F5D35696F402D
:102BC000C1F3072587EA0C675D5D87EA0527C0F337
:102BD00007455D5D87EA0547049D089713F805C022
:102BE000756985EA0C6CCDB25D5D8CEA050CC0F3AD
:102BF00007255D5D8CEA052CC4F307455D5D8CEA15
:102C0000054C059DCDF824C013F80580B56985EA0B
:102C10000848C5B2000E5D5D88EA05080D0EC1F3D7
:102C200007415D5D88EA0568C4F307255D5D88EAB4
:102C30000528069DCDF8288013F805E0F569185C95
:102C400085EA0E255FFA84FE13F80E405B5C177070
:102C5000390A5170390C91704FEA1C2151714FEAB9
:102C60001C41917165404FEA182185EA0065517257
:102C70004FEA184185EA034391724FEA1861D17215
:102C8000190A5173190C4FEA1C600B93137391735B
:102C90001B0E20213C0ED071D4700DEB010082F888
:102CA00004C082F80880D37300F054FC002011B0F7
:102CB000BDE8F08F0C9053F83C1C89EA0109CDF86F
:102CC000349053F8380C039960400E9053F8344C0C
:102CD0008EEA04040F944FEA14685CF821E053F87C
:102CE000301C57F8288081EA0E0E8EEA080EC9F3D0
:102CF0000728049956F828808EEA080EC0F3074882
:102D000055F828808EEA080ECDF820E05FFA89F8A1
:102D100057F821E053F82C1C5CF8288081EA0E0E4D
:102D20008EEA080EC0F30728059956F828808EEA27
:102D3000080EC4F3074855F828808EEA080ECDF82F
:102D400024E05FFA80FE55F821805CF82EE053F80D
:102D5000281C8EEA080E4FEA19688EEA010E57F811
:102D6000288006998EEA080EC4F30728E4B256F8C4
:102D700028805CF824408EEA080ECDF828E056F84A
:102D800021E0000E84EA0E0EC9F3074153F8244CEB
:102D900057F8200055F821108EEA040444404C40B6
:102DA00000990B940139009183E600BF8C5D0020EF
:102DB0008C5500208C5900208C5000208C51002014
:102DC0002DE9F04F91B043680D6808951C68DFF855
:102DD00050C3CF4FCF4E6C404D68099508945C6846
:102DE0006C408D680A9509949C686C400A94CC6884
:102DF0000B9403F110010791D968C74D61400B9105
:102E00000168491001910139029130330091DDF8D8
:102E10002080DDF824A05FFA88F44FEA1A60DDE92B
:102E20000A9157F820005CF824404440C1F3072081
:102E30005FFA81FE56F820005CF82EE04440C9F3AA
:102E400007405FFA89FB55F820005CF82BB044403E
:102E500053F8200C6040C4B20394C0F307240494D8
:102E6000C0F307440594040E06944FEA1864203317
:102E700057F824408EEA040EC9F307244FEA196973
:102E800056F8244057F829908EEA040ECAF30744F6
:102E900055F824408EEA040E0C0EC1F3074157F892
:102EA000244055F821108BEA0404CAF3072B5FFA7B
:102EB0008AFA56F82BB05CF82AA084EA0B04C8F30F
:102EC000074BC8F307288AEA090956F828A055F8DD
:102ED0002BB089EA0A0A8AEA01090099002984EAE2
:102EE0000B0400F39780029B0C905E01019B002B6A
:102EF000079BD8BF002633441E46596889EA010162
:102F00000D91986860400E90DB680D0E8EEA030408
:102F1000824B0F9413F805C0039D5F5D35696F40C8
:102F2000C4F3072587EA0C675D5D87EA0527C0F3D0
:102F300007455D5D87EA0547049D089713F805C0BE
:102F4000756985EA0C2CCDB25D5D8CEA050C050E29
:102F50005D5D8CEA056CC4F307455D5D8CEA054C4C
:102F6000059DCDF824C013F80580B56985EA0848A9
:102F7000C5B2C0F307205D5D88EA0508250E5D5DDA
:102F800088EA0568C1F30725C1F307415D5D88EA5A
:102F90000528069DCDF8288013F805E0F569185C32
:102FA00085EA0E655FFA84FE13F80E405B5C1770CD
:102FB000390A5170390C91704FEA1C2151714FEA56
:102FC0001C41917165404FEA182185EA0025517234
:102FD0004FEA184185EA034391724FEA1861D172B2
:102FE000190A5173190C4FEA1C600B9313739173F8
:102FF0001B0E20213C0ED071D4700DEB010082F825
:1030000004C082F80880D37300F0A4FA002011B045
:10301000BDE8F08F0C9053F83C1C89EA0109CDF80B
:10302000349053F8380C039960400E9053F8344CA8
:103030008EEA04040F944FEA19685CF821E053F813
:10304000301C57F8288081EA0E0E8EEA080EC4F371
:103050000728049956F828808EEA080EC0F307481E
:1030600055F828808EEA080ECDF820E05FFA89FE38
:1030700056F821805CF82EE053F82C1C8EEA080EDE
:103080004FEA10688EEA010E57F8288005998EEAFB
:10309000080EC4F3074855F828808EEA080ECDF8CC
:1030A00024E05FFA80FE55F821805CF82EE053F8AA
:1030B000281C8EEA080E4FEA14688EEA010E57F8B3
:1030C000288006998EEA080EC9F30728E4B256F85C
:1030D00028805CF824408EEA080ECDF828E057F8E6
:1030E000218053F8241CC0F3072081EA0808C9F3A3
:1030F000074156F8200055F8211088EA040E8EEAA0
:10310000000E8EEA01010B910099013900917EE6D3
:10311000B46E0020B4660020B46A0020B4610020C0
:10312000B462002010B40C46012C11461A4603D19B
:103130005DF8044BFFF796BC5DF8044BFFF740BE0B
:103140002DE9F04FB2F5C07FADF5477D07468846C3
:10315000154600F2B5804FF4D07200215EA818AE7B
:1031600000F057FF3046FFF78BFB2B0A8DF88A31B2
:1031700030238DF88F3164AB00242A46414618462F
:103180008DF888418DF889418DF88B5100F018FF3A
:103190008022425504AA2346904602F8013B01339F
:1031A000202BFAD14FF4807241463046FFF774FB72
:1031B0000446002865D11935814610220021684651
:1031C00000F027FFAB460DF5BC7A6A460AF1FF33E3
:1031D0000AF10F00117813F8014F6140984202F88C
:1031E000011BF7D1BBF1100F6B466A464FF001018E
:1031F000304694BFABEB0B0BABF1100BFFF792FF1C
:103200000AF1100A044600283BD1BBF1000FDCD1C3
:103210000CAB6C4609EB0302234603CB434510601D
:1032200051601C4602F10802F6D19DF87B3109F18C
:1032300010090133B9F1300F8DF87B31BDD14FF456
:1032400080720CA93046FFF727FB0446C8B907F186
:1032500030093D4614AB1A4601213046FFF762FFA4
:10326000044670B90DF1500C2A46634603CBB342B5
:10327000106051609C4602F10802F6D11035A94554
:10328000E8D13046FFF701FB4FF4D0715EA800F0A3
:1032900061F930210DEB010000F05CF9202140467E
:1032A00000F058F91021684600F054F91CB13021A3
:1032B000384600F04FF920460DF5477DBDE8F08F08
:1032C0006FF03704F7E72DE9F0438DB004460E4662
:1032D00030220021684600F09CFE002704F12009FE
:1032E000E8460DEB070304F10F010A780132D2B270
:1032F000084601F801290AB9A042F6D12246012167
:103300004846FFF70FFF054600BB1037302FE7D1C7
:10331000731E2F3698F8002013F8011F4A40B3425D
:1033200008F8012BF6D14FF4807269464846FFF742
:10333000B3FA054650B908AA0CAE134603CBB34204
:10334000206061601A4604F10804F6D16846302115
:1033500000F000F928460DB0BDE8F08310B5044632
:103360002030FFF792FA4FF4A071204600F0F2F8F7
:1033700042F21073E36110BD10B54FF4A072044621
:10338000002100F046FE42F21073E36110BD08B167
:10339000FFF7E4BF7047F0B58669B6F5C07FE1B0CE
:1033A00005460F46144632D8C6F5C07393422ED355
:1033B0004FF4C0720021684600F02BFED5F838317A
:1033C000D5F83C0132466946984718BBAE693FB113
:1033D00034B10DEB06002246394600F0F1FD2644DB
:1033E000324669466846FFF7ABFE044638B969467F
:1033F0002846FFF768FF044608B901232B614FF404
:10340000C071684600F0A6F8204661B0F0BD6FF0CC
:103410003704F9E76FF03304F6E7F0B58BB00446F4
:103420000F4616460021202202A81D4600F0F1FD9D
:1034300004F120000190FFF723FAA3690198C4E981
:103440004E760BB93023A3614FF4807202A9FFF7C7
:1034500023FA20B9109A29462046FFF79CFF0BB0AB
:10346000F0BD2DE9F04190B0B2F5806FDDF85880E5
:1034700005460F4616461C465ED8B8F5807F5ED8D6
:103480003022002104A800F0C4FD2A69EB699A42A9
:1034900001DC6B699BB1214642462846FFF77BFF62
:1034A000044628BB05F1200836BB04A92846FFF7CF
:1034B0000AFF0446A0B92B6901332B6110E0B8F173
:1034C000000FEFD02146424604A8FFF739FE04461C
:1034D00030B904A92846FFF7F6FE04460028E1D0DB
:1034E000302104A800F036F81021684600F032F8C8
:1034F000204610B0BDE8F08105F10F0213780133CA
:10350000DBB2114602F801390BB9A942F6D16B467C
:103510002A4601214046FFF705FE04460028DFD178
:10352000102E344628BF102438462246694600F043
:1035300047FD2744361BB7E76FF03504D8E76FF037
:103540003704D5E707B500230093FFF78AFF03B0E0
:103550005DF804FB0A4619B1024B00211B681847AD
:10356000704700BF4438002028B139B10023C1E9B9
:1035700000301846704748F21050704748F2135018
:10358000704730B1036848F240508B4208BF0020BA
:10359000704748F21050704730B119B10B68934230
:1035A00005D30A600020704748F21350704748F274
:1035B000145070472DE9F0410C4600AF804611468B
:1035C000204615461E46FFF7CFFF00BB314620467A
:1035D000FFF7CAFFD8B92279104B53F82230CBB18C
:1035E000B8F1000F0AD10E4931F8124034B1073456
:1035F0006A46E408A2EBC4029546E84632462946EC
:103600004046984718B9074B2B60063B3360BD46D0
:10361000BDE8F08148F20350F9E700BF08BF03009E
:1036200000BF03007652464D70B505460C461E4657
:10363000FFF79AFF70B9AB796AB1B3420ED129791D
:10364000094B53F8213063B111462046984708B919
:10365000064B236070BD48F21050FBE748F2115052
:10366000F8E748F20350F5E714BF03007052464DE7
:103670002DE9F0410D460D4904461646FFF781FF3E
:1036800090B967683146BA792846FFF785FF58B97F
:103690003A79074B53F8223023B129462046BDE83A
:1036A000F041184748F20350BDE8F0817052464D92
:1036B00020BF0300F0B530B14079B3B1C9B18AB9C8
:1036C00048F2135313E01846F7E7441E00254E5DF9
:1036D0000F5D575516550135013CA542F7D91B1A08
:1036E000014402448342F0D20BB148F21153184610
:1036F000F0BD48F21053FAE72DE9F8430D4600AF4C
:1037000004461D49284616469846FFF73AFF48BB2F
:103710001A493046FFF735FF20BBD5F8049073688F
:10372000994522D199F80520396A4046FFF734FFC0
:10373000C0B999F80430124A52F82390B9F1000F39
:1037400016D054B90F4A32F8133033B107336A46F2
:10375000DB08A2EBC3039D466C464346324629462E
:103760002046C847BD46BDE8F88348F24150F9E716
:1037700048F20350F6E700BF7652464D7052464D70
:103780002CBF030034BF0300F8B50A4F0A4C0B4EA0
:10379000E41B0123E40833700025A54203D1022372
:1037A00033700020F8BD57F8353098470028F9D11C
:1037B0000135F2E7C8810300D0810300B872002010
:1037C000054B1A78022A04D01878431E58425841F3
:1037D00070470120704700BFB872002030B5002349
:1037E000934201D1012006E0C55CCC5CA54203D028
:1037F0008CBF0120002030BD0133F1E72DE9F74FE8
:103800009DF830B01746054688461E46002296426F
:103810004FEAC2094DD1FF2309F108025B0033F0E2
:10382000FF0103D109F101094A45F7D1002D45D027
:10383000002E46D0B8F1000F46D0002F44D03246BB
:1038400041463846FFF7CAFF002840D009F0070379
:103850000093009AFF2313415BB24FEAD90A019308
:1038600005EBD9091B485B4600683246294600F043
:1038700059F90446C8B901465246284600F0C9FB2A
:10388000009B2BB199F80020019B1A4089F8002079
:10389000324641462846FFF7A1FF0028E2D02946DC
:1038A0003846FFF79BFF0028DCD0204603B0BDE878
:1038B000F08FBB5C002BAFD10132A8E748F2135464
:1038C000F3E748F21454F0E748F21054EDE748F2F9
:1038D0001754EAE70874002013B501240094FFF799
:1038E0008DFF02B010BD000070B506460D466A4659
:1038F000194B9A4205D3FFF763FF78B94FF405409F
:1039000070BD164B16481749C01AC008000440F095
:103910000100F3F759F848F21950F1E7124C236807
:1039200023B1124B1A68124B9A420FD086B97DB957
:1039300010481149206000F0D1F80028E0D10B4B6D
:103940000B4A1A6023680D4A1A60D9E70020D7E7AE
:1039500048F21750D4E700BF00E00020D0810300F8
:103960000082030038BF03000874002000740020A8
:103970006572E54BBC720020047400206169614DE2
:10398000094B0A4A196891420AD1094A1068094A42
:103990000168914204D1002202601A6000F0BAB8B6
:1039A00048F20250704700BF007400206572E54B7A
:1039B000087400206169614D10B56C46154B9C423E
:1039C0000FD3DAB9144B1C68144B9C421BD1E8B9D5
:1039D00013481346BDE810400A460068114900F03C
:1039E000A9B8114B11481249C01AC008000440F090
:1039F0000100F2F7E9FF48F2195010BD0029E1D1AA
:103A000048F21050F9E748F20250F6E748F2175032
:103A1000F3E700BF00E00020007400206572E54B72
:103A20000874002004740020D08103000082030089
:103A300038BF030073B513460D460446F8B111B301
:103A4000144A1168144A914220D1144E01932A4617
:103A50000146306800F066F848F27152904210D189
:103A6000002211461046FFF7A7FF50B9019B3068AE
:103A70002A46214602B0BDE8704000F053B848F233
:103A8000135002B070BD48F21450FAE748F20250E9
:103A9000F7E700BF007400206572E54B0874002052
:103AA0000122FFF7C7BF10F1360F0AD060B148F20C
:103AB000165348F2115210F1380F08BF134618463A
:103AC000704748F21453FAE70346F8E708B508468A
:103AD0001146F7F7D9FB002008BD000030B50446B9
:103AE00085B00020F7F752FB054678B9201D0390FA
:103AF000FFF742FC0649039800952B462A46FFF73C
:103B00008CFC05B0BDE83040FFF7CDBF05B030BD3F
:103B1000CD3A030008B50430FFF739FCF7F762FB34
:103B2000002008BD08B50430FFF70CFDBDE80840D3
:103B3000FFF7B9BF08B5114604301A46FFF72BFC52
:103B4000BDE80840FFF7AFBFFFF71ABF00210846E6
:103B5000FFF7CABE10B5436808309C689A79A04741
:103B6000002010BD10B5034608465A6803F108014D
:103B700094689279A047002010BD0000024A0349D2
:103B80002023FFF7A9BE00BF60BF030080BF030072
:103B900037B50831084615460191FFF7EFFF044697
:103BA00048B9019905F1080000F094FE48F2165357
:103BB000002818BF1C46204603B030BDF8B501F1FF
:103BC00008070C46384620211646FFF769FF0546D0
:103BD00080B9237A23F00703237294F8273003F087
:103BE0007F0343F0400384F82730394606F108008C
:103BF00000F06AFE2846F8BD2DE9F04101F1080801
:103C00000C46404620211646FFF74AFF074678B982
:103C100004F128054146284600F08CFE48342B4626
:103C200006F1080253F8041B42F8041BA342F9D121
:103C30003846BDE8F08108B508320831184600F072
:103C40005DFE002848F2165008BF002008BD08B5E8
:103C500018460832083100F063FD002008BD53EA21
:103C6000020C61D02DE9F04BB3FA83F51E0007BFBB
:103C7000B2FA82F502FA05F403FA05F41646C5F124
:103C800020051EBF22FA05F73C43203556EA044CB6
:103C90004FEA144418BF0134A3464FF00009C84648
:103CA000904271EB030C39D3094207BFB0FA80F799
:103CB00000FA07F6B1FA81F701FA07F6C7F1200713
:103CC0001EBF20FA07FC46EA0C062037B6FBFBFCB9
:103CD0007F1B103F07F01F04C4F120060CFA04F408
:103CE0002CFA06F644BF34460026202FA4BF2646F1
:103CF000002454EA060C08BF012418EB040849EB21
:103D00000609A4FB027CC01B06FB02CC04FB03CC0F
:103D100071EB0C01904271EB030CC5D20B460246CD
:103D200049464046BDE8F08BB2FBF3F27F2805D848
:103D3000034A044B105C5B5C1840704700207047DE
:103D4000ACBF03002CC00300A0F16103192B98BF86
:103D500020387047A0F14103192B98BF20307047DD
:103D60007F299ABF017001206FF02E00704700BFBD
:103D70005AB10A787F2A0AD800B102600021501A8D
:103D8000C3E9001118BF01207047104670476FF05B
:103D90002E007047A0F16103192B98BF203870479F
:103DA000A0F14103192B98BF203070477F2805D818
:103DB000034A044B105C5B5C18407047002070475E
:103DC000ACBF03002CC0030038B585680446084624
:103DD00045B122686168531C8B4208BF00208A42AB
:103DE0000AD2A854E26823682AB161688B4202D2E1
:103DF0002146904723680133236038BD70B54D1EBE
:103E000022D413681446C6B20EE0D0542368E26888
:103E10002AB16168994202D9214690472368013D41
:103E200001336A1C23600FD0A26872B1616803F18C
:103E3000010C8C4514BF304600209942E5D8013D65
:103E400063466A1C2360EFD170BD3046DFE700BFD8
:103E5000C3062BD410F4007F70B514BF3026202683
:103E60004D1E22D413681446F6B20EE0D0542368D7
:103E7000E2682AB16168994202D9214690472368D5
:103E8000013D01336A1C23600FD0A2687AB16168DA
:103E900003F1010C8C4514BF304600209942E5D84F
:103EA000013D63466A1C2360EFD170BD7047304608
:103EB000DEE700BF024B5B689B6809211B6818475F
:103EC000483800206AB30F2A70B511D8013A2FD0B4
:103ED000034600EB020C01E09C4524D08E461C46B4
:103EE00011F8012B13F8010B9042F5D0801A70BD28
:103EF00040EA010C1CF0030F04460B4606D0013AC1
:103F0000E6E7043A042A20461946DFD91946204636
:103F10000E680568B54203F1040304F10404F0D00F
:103F2000D4E71046704760789EF80120801A70BD73
:103F300000780A78DAE700BF10B582B0441E00F0BE
:103F4000EBFB03E0F4F75AFB431C08D014F8010F15
:103F500000210028F6D101460A20F4F74FFB01901A
:103F600000F0DCFB019802B010BD00BF0CB430B50E
:103F700087B00AAA002452F8045B01920B46CDE9EF
:103F80000404294602A8039300F0C8F807B0BDE86E
:103F9000304002B0704700BF027862B169B100EBF7
:103FA000010C034601E0634503D013F8011F00290B
:103FB000F9D1181A7047104670470846704700BF7D
:103FC000844640EA010313F0030F18D18446202AE7
:103FD0000BD32DE9F007B1E8F807A0E8F807A2F144
:103FE0002002202AF7D2BDE8F007042A07D351F8AF
:103FF000043B40F8043BA2F10402042AF7D2002A51
:1040000005D011F8013B00F8013B013AF9D16046B7
:1040100070478446002A2DD010F0030F04D000F81A
:10402000011B013A26D0F7E7C9B241EA012141EA72
:104030000141202A12D3A2F120022DE9F0030B4600
:104040000C460D460E460F4688468946A0E8FA0300
:10405000203AFBD2BDE8F00320320BD0042A05D36E
:1040600040F8041B043A05D0042AF9D200F8011BD9
:10407000013AFBD160467047024610F0030F16D19B
:1040800011F0030F13D12DE9F0004FF001374FF07D
:10409000803351F8044BA4EB070525EA04051D40C5
:1040A00002D142F8044BF4E7A1F10401F0BC11F88D
:1040B000013B02F8013B002BF9D1704700F10101EF
:1040C00010F0030F11D010F8012B002A23D010F0AC
:1040D000030F0AD010F8012B002A1CD010F0030F98
:1040E00003D010F8012B002A15D02DE970004FF0F5
:1040F00001324FF0803350F8044BA4EB020525EA5F
:1041000004051D4000D1F6E7A0F1040070BC10F8D2
:10411000012B002AFBD1A0EB010070472DE9F04FE5
:1041200000230C46036089B014F8011B0392074674
:10413000002900F0E582DFF8DC9507E03846FFF75C
:1041400043FE14F8011B002900F058812529F5D100
:104150002246002612F8010B302800F29E801F280C
:104160000ED9A0F12003102B0AD8DFE803F0AC0928
:1041700009A8090909A4090909A0099C09098D00D0
:104180002A2840F0FC80039B10781D680433002D22
:104190000393BCBF6D4246F01006A21C2E2800F00F
:1041A00004810021742800F092807A2800F08F802A
:1041B0006C2800F032814C2800F03581682800F02E
:1041C000BE811446002800F08880A0F12503DAB2F1
:1041D000532A00F22B81532B00F22881DFE813F0E1
:1041E000EB012601260126012601260126012601D2
:1041F0002601260126012601260126012601260187
:104200002601260126012601260126012601260176
:104210002601260126012601260126012601260166
:104220002601260126012601260126012601260156
:104230002601260126012601260126012601260146
:1042400026012601260182002601260126012601DB
:10425000260126012601260126012601D601F600A7
:104260002601260126012601F60026012601260147
:10427000260150024802130226012601ED01260103
:10428000CB0126012601840046F40076144622461E
:1042900012F8010B30287FF662AF5E286FD146F42A
:1042A00080561446F3E746F010061446EFE746F052
:1042B00020061446EBE746F400461446E7E746F0CE
:1042C00080061446E3E746F040061446DFE714464E
:1042D00014F8010B00287FF478AF4FF0FF3009B0DD
:1042E000BDE8F08F46F4005616F0800A06D043F27F
:1042F000780A43F25803782818BF9A4616F4807358
:1043000007BF06F48042B04626F4007806F48042E7
:10431000002A61D1039A18F0040F02F104060396F3
:10432000126800F0A08092B2002B65D028F40078CB
:104330005838202800F29D80DFE810F073019B00C0
:104340009B009B009B009B009B009B009B009B0095
:104350009B009B00D4009B009B009B009B00D40013
:104360009B009B009B009B009B00090173019B002D
:104370009B009B009B00D4009B009B007301A0F15D
:104380003004E3B2092B4FF000053FF607AF12F8F7
:10439000010B05EB850504EB4505A0F13004E3B204
:1043A000092BF4D92E287FF4FCAE10782A2840F08F
:1043B0007781039B50781968941C04330029039378
:1043C0002246FFF6EFAE46F48076EBE646F48048F0
:1043D00006F480734FF0000A039A18F0040F02F1FC
:1043E00004060396126830D012B2002A31DA524223
:1043F0004FF02D0A002B99D1012199E73868BB684D
:10440000002B3FF46CAF7A6882427FF668AF0022DF
:104410001A54386809B0BDE8F08F144646F001061A
:1044200014F8010BCEE646F001061446B54BD3F85E
:104430000080B8F1000F3FF484AE009103A9019110
:104440002B4632463946C0477BE618F0080FCCD0E1
:10445000D2B218F0200F40F03E8118F0400F18BF84
:104460004FF0200A60E718F0080F3FF45DAFD2B2BA
:104470005AE74FF0FF36002321EAE17BA5EB0B055D
:10448000BAF1FF0FA5EB030540F20481CAF307213F
:104490003846023DFFF798FC5FFA8AF13846FFF78D
:1044A00093FC40463A462946FFF7D2FC3A46594625
:1044B0003020FFF7A3FC731C0AD001360DF1140A5B
:1044C000564416F8011D3846FFF77EFCB245F8D178
:1044D00018F0100F3FF435AE29463A462020FFF77A
:1044E0008DFC2EE61046002A00F0068108F4004CF0
:1044F000624600238C464FF02C0E114603F0030257
:1045000009B1032A14D01E46A9FB0032D20802EBDF
:10451000820306F1200BA0EB4303EB443033092860
:104520000BF80C3C06F1010340F2D2801046E5E79F
:1045300003F120026A445E1C02F80CECE4E71078F8
:10454000682800F0D480541C46F004063AE6104671
:10455000002A00F0D1800DF1140C002302F00702B4
:104560003032C0080CF8012B1E46024601330028E9
:10457000F4D1C91A80E716F4807300F0AF8026F4F6
:10458000007806F480424FF0000AC1E6039B013D2B
:10459000191D93F8008003913A4629463046FFF7EB
:1045A00057FC41463846FFF70FFCB3461BF0100F8F
:1045B0003FF4C7AD90E72521C0E5039B524A181D83
:1045C0000390D3F800A0BAF1000F08BF9246F2059D
:1045D000D04626F4007B504640F18580FFF7DCFC96
:1045E0000646AD1B3A4629465846FFF731FC002ED9
:1045F000DCD018F8011B3846FFF7E6FBAAEB0803EE
:10460000F342F6D1D2E7039B1A1D039216F0800FF6
:104610001A6846F480780CBF4FF0000A4FF0230A66
:1046200008211046002A67D008F4005C634605AAFA
:104630008C460026A346194609E0344B000913F8BE
:104640000E3002F8013B06F101030DD01E4600F0CA
:104650000F0E0029F1D12E4C000914F80E3002F88B
:10466000013B06F10103F1D161465C46C91A03E73B
:1046700016F0800F0CBF4FF0000A4FF0300A3DE6F5
:10468000039B3A68191D03911B6831074CBF1A70D0
:104690001A6056E5BAF1000F3FF403AF013DFBE6A7
:1046A000A0F13004E3B2092B02F101024FF0000146
:1046B0003FF689AE12F8010B01EB810104EB4101D9
:1046C000A0F13004E3B2092BF4D946F4807669E511
:1046D0006146C91AD0E64FF02B0A25E606F480425F
:1046E000B0469A4614E6FFF7E9FC064679E75078AB
:1046F00046F00806941C65E513464FF0FF36BBE60E
:1047000008467CE60C74002000C20300F0C10300E0
:10471000E0C10300CDCCCCCC704700BF704700BFD8
:104720002DE9F047CC7F91F800A0C2B00B4604F011
:104730003F04D1F80110D3F809E0D3F80DC0D3F845
:104740000580D3F81560D3F81950D3F81170CDF85F
:10475000491044F04004114681462AF0070202A89D
:1047600093F81DA09B7FCDF851E0CDF855C08DF892
:1047700066308DF867408DF84820CDF84D80CDF833
:104780005D60CDF86150CDF859708DF865A000F0EE
:1047900035FC202202A91AA801F096FC02A80121EA
:1047A00000F01AFC0AA8002100F016FC1AA922A8A1
:1047B000202201F089FC2AA8012100F00DFC1AAE8C
:1047C0000DF148080624002516F8017D47FA04F388
:1047D0002A4603F001056A4022A902A8019201F0CD
:1047E00027FB019A2AA90AA801F022FB0AAA02A91A
:1047F00032A801F0A9FE0AAA104602A901F0DCFEC7
:104800002AAA22A93AA801F09FFE2AAA104622A9A4
:1048100001F0D2FE3AA908460AAA01F009FF2AA926
:10482000084632AA01F004FF3AAA2AA922A801F0F8
:104830008BFE2AA93AAA084601F0BEFE22A9084624
:1048400001F0F4FE2AA9084601F0F0FE2AA91AAAEE
:10485000084601F0EDFE32A9084601F0E7FE0AA97C
:104860003AA801F0E3FE3AAA32A902A801F0E0FE5C
:1048700032A93AAA084601F09FFE32A90AA801F01F
:10488000E5FF0AA908463AAA01F05EFE0AA9013C22
:1048900032AA084601F0CCFE631C97D146454FF082
:1048A000070491D10AA90846012200F0D3FB02A90E
:1048B0000AAA084601F0BCFE02A9484600F0B2FB75
:1048C00042B0BDE8F08700BF014AFFF729BF00BF33
:1048D00008C2030030B599B00546684600F0CCFC2C
:1048E0006946044608A803F0F7FB08A904432846D4
:1048F00003F032FB204619B030BD00BF70B5A8B040
:1049000005466846164600F0B7FC3146044618A82E
:1049100003F0F0FA6A46034618A908A81C4303F0FE
:1049200029FB08A90443284603F014FB204628B0BD
:1049300070BD00BF10B52022B0B004460DEB0200E0
:1049400000F0F6FF9DF83F309DF8202003F07F0334
:1049500043F0400322F0070208A968468DF83F3073
:104960008DF8202000F0E2FC694618A800F0BCF9A0
:1049700018A9204600F096F930B010BD2DE9F0419D
:104980000D46A2B01646044620312A4602A81F460C
:1049900006F12008019101F00FFE01992A460AA8AC
:1049A00001F0D2FD4146324612A801F005FE414613
:1049B00032461AA801F0C8FD3A461AA912A801F019
:1049C00037FA02A912AA084601F032FE0AA91AAA69
:1049D000084601F02DFE4246314612A801F028FE9D
:1049E00012A905F16002084601F022FE12A908464C
:1049F000144A01F01DFE05F1400211461AA801F00B
:104A0000A3FD02AA0AA9204601F0D6FD04F1200563
:104A100002AA0AA904F1600001F096FD403428467C
:104A200012AA1AA901F0C8FD12AA1AA9204601F07B
:104A30008BFD3A462946204601F0FAF922B0BDE83E
:104A4000F08100BF68C8030070B598B0044601F15A
:104A5000200668460D4601F0E9FD314608A801F040
:104A6000E5FD05F1400110A801F0E0FD10AA114696
:104A7000104601F069FD32462946204601F064FDEA
:104A800004F160052146204601F0D0FD284608AA21
:104A9000694601F059FD04F140062A4621462046A8
:104AA00001F08AFD08A930466A4601F085FD10AA8A
:104AB000314604F1200001F07FFD6846202101F01D
:104AC0000BFB2A466946284601F076FD18B070BDFA
:104AD0002DE9F04102EBE27585EAE27582B00C4601
:104AE0000021064600F1200700F076FA691EC90F82
:104AF000384600F071FA0F4B03EB442440344FF07A
:104B0000010885EA0802013AD20F21463046019297
:104B100008F1010801F020F904F12001019A38465A
:104B200001F01AF9B8F1090F04F14004E9D102B01B
:104B3000BDE8F08128C203002DE9F04101EBE176E8
:104B4000074682B086EAE176002100F045FA07F1D7
:104B50002008711EC90F404600F03EFA0C4D01249A
:104B600086EA0402013AD20F2946384601920134FE
:104B700001F0F2F805F12001019A404601F0ECF84D
:104B8000092C05F14005EBD102B0BDE8F08100BF72
:104B900068C603002DE9F0410446B0B00D460A4650
:104BA000684604F160080021FFF792FF04F1200637
:104BB0004246214628A801F03BFD04F14007324659
:104BC000214610A801F034FD4246394618A801F0EC
:104BD0002FFD3A46314620A801F02AFDEB0F204672
:104BE0006A4610A9FFF7CAFE30B0BDE8F08100BFE9
:104BF0002DE9F0410446B0B00D460A46684604F17E
:104C000060080121FFF764FF04F1200642462146B7
:104C100028A801F00DFD04F140073246214610A8F6
:104C200001F006FD4246394618A801F001FD3A465A
:104C3000314620A801F0FCFCEB0F20466A4610A983
:104C4000FFF79CFE30B0BDE8F08100BF2DE9F041D8
:104C5000B0B0044600F1600868460D4604F1200635
:104C6000FFF76AFF4246214628A801F0E1FC04F163
:104C700040073246214610A801F0DAFC4246394688
:104C800018A801F0D5FC3A46314620A801F0D0FC26
:104C9000EB0F20466A4610A9FFF770FE30B0BDE862
:104CA000F08100BF30B599B004460D4610A84031E0
:104CB000012200F0CFF9294610AA684601F0B8FC9D
:104CC00010AA05F1200108A801F0B2FC08A92046AD
:104CD00000F0A8F9684600F089F9E37F83EAC01084
:104CE000E07719B030BD00BF2DE9F041B0B0E84623
:104CF0000446404600F04AFB04F140069DF93F108F
:104D00002046FFF719FF3046012100F065F904F154
:104D100020070DF11505214610A8FFF795FE18AAEA
:104D200010A9204601F084FC28AA20A9384601F0E9
:104D30007FFC20AA18A9304601F07AFC214610A871
:104D4000FFF782FE18AA10A9204601F071FC28AADC
:104D500020A9384601F06CFC20AA18A9304601F0C1
:104D600067FC214610A8FFF76FFE18AA10A920467D
:104D700001F05EFC28AA20A9384601F059FC20AABF
:104D800018A9304601F054FC214610A8FFF75CFE3C
:104D900015F9011D10A8FFF7FDFE95F9151010A8D3
:104DA000FFF726FF95F92A1010A8FFF74FFF18AA62
:104DB00010A9204601F03CFC28AA20A9384601F0A1
:104DC00037FC20AA18A9304601F032FCA845A2D130
:104DD00030B0BDE8F08100BF70B588B004460D4624
:104DE00068462021164601F077F90023294620461F
:104DF0002022009301F068F92A466946684601F0CE
:104E0000AFF932466946204601F012F808B070BD8D
:104E10000B681BBAC3614B681BBA83618B681BBAF2
:104E20004361CB681BBA03610B691BBAC3604B6952
:104E30001BBA83608B691BBA4360CB691BBA0360E2
:104E4000704700BFCB691BBA03608B691BBA436014
:104E50004B691BBA83600B691BBAC360CB681BBA72
:104E600003618B681BBA43614B681BBA83610B6893
:104E70001BBAC361704700BF70B598B00C460546B9
:104E800010A801F099F9224610A9684601F096F998
:104E9000694610A801F090F910A9084601F08CF9B4
:104EA0006A4610A908A801F089F908A910A801F01C
:104EB00083F910A9084601F07FF910A9084601F00E
:104EC0007BF910A9084601F077F910A908AA08464D
:104ED00001F074F910A9084601F06EF910A908460E
:104EE00001F06AF910A96A4608A801F067F90526D9
:104EF00008A910A801F060F910A9084601F05CF9B2
:104F0000013E10A9F5D108AA084601F057F9052677
:104F100010A9084601F050F910A9084601F04CF913
:104F2000013EF5D110A908AA084601F047F910A9D9
:104F300008A801F041F908A9084601F03DF908A9BF
:104F40006A46684601F03AF91026694610A801F051
:104F500033F910A9084601F02FF9013E10A9F5D147
:104F60002246084601F02AF9402610A9084601F019
:104F700023F910A9084601F01FF9013EF5D110A947
:104F80006A46084601F01AF9102610A9084601F0F1
:104F900013F910A9084601F00FF9013EF5D110A947
:104FA0006A46084601F00AF9102610A9084601F0E1
:104FB00003F910A9084601F0FFF8013EF5D110A948
:104FC00008AA084601F0FAF8224610A9284601F07E
:104FD000F5F818B070BD00BF0023C0E90013C0E9A8
:104FE0000233C0E90433C0E90633704710B5044604
:104FF00001F070FC206800F0010010BD0B68036038
:105000004B6843608B688360CB68C3600B69036146
:105010004B6943618B698361CB6923F00043C361B2
:10502000704700BF38B50C460546084601F052FCF3
:1050300023682B6063686B60A368AB60E368EB6018
:1050400023692B6163696B61A369AB61E369EB6100
:1050500038BD00BFF0B5A1B00446684616460D46FF
:1050600001F0E4FA694618A801F0E0FA18A9084628
:1050700001F0DCFA2A4618A908A801F0D9FA6A4614
:1050800008A9684601F0D4FA694618A801F0CEFADA
:1050900008AA104618A901F0CBFA08A918A801F02F
:1050A000C5FA18A9084601F0C1FA18A9084601F086
:1050B000BDFA18A9084601F0B9FA18A9084601F086
:1050C000B5FA08AA18A9104601F0B2FA022708A9F1
:1050D00000E0012718A801F0A9FA18A9084601F074
:1050E000A5FA18A9084601F0A1FA18A9084601F086
:1050F0009DFA18A9084601F099FA012F18A9E8D1DC
:1051000010A808AA01F094FA042710A918A801F021
:105110008DFA18A9084601F089FA18A9084601F085
:1051200085FA18A9084601F081FA18A9084601F085
:105130007DFA013F18A9E9D110AA084601F078FAD2
:10514000022700E0012718A9084601F06FFA18A904
:10515000084601F06BFA18A9084601F067FA18A989
:10516000084601F063FA18A9084601F05FFA012F1A
:10517000E8D118A908AA10A801F05AFA0A2710A91C
:1051800018A801F053FA18A9084601F04FFA18A917
:10519000084601F04BFA18A9084601F047FA18A989
:1051A000084601F043FA013F18A9E9D110AA08A85E
:1051B00001F03EFA142708A918A801F037FA18A937
:1051C000084601F033FA18A9084601F02FFA18A989
:1051D000084601F02BFA18A9084601F027FA013F0A
:1051E00018A9E9D108AA084601F022FA0A2718A945
:1051F000084601F01BFA18A9084601F017FA18A989
:10520000084601F013FA18A9084601F00FFA18A988
:10521000084601F00BFA013FE9D118A9084610AA87
:1052200001F006FA18A9084666B901F0FFF918A9B5
:10523000084601F0FBF92A4618A9204601F0F8F9C2
:1052400021B0F0BD01F0F2F918A9084601F0EEF91D
:1052500018A9084601F0EAF918A9084601F0E6F98C
:1052600018A9084601F0E2F96A4618A9204601F09B
:10527000DFF921B0F0BD00BF70B50B68124E1BBA4C
:10528000C3614B681BBA83618B681BBA4361CB68EF
:105290001BBA03610B691BBAC3604B691BBA8360FD
:1052A0008B691BBA4360CB691BBA03603246014667
:1052B000044600F031FD0546314620462A4600F0FE
:1052C0004BFD681E70BD00BF88C80300F0B5D1E972
:1052D00008328E6ACD69144F8DB00C46110F41EA29
:1052E00006114FEA137C1B014CEA021C43EA1573BA
:1052F0003A460546029104A86946360FCDF804C027
:105300000093039600F0A0FD009B21461B0704AA12
:1053100028460B9300F000FDEA693946D20F284673
:1053200000F01AFD0DB0F0BDA8C80300F0B54B07A2
:105330008DB01AD1D1E90023D1E90245CDE900238E
:10534000D1E90467D1E90623CDE90245CDE9046737
:10535000CDE906230022002300246946CDE9082375
:105360000A94FFF7B3FF0DB0F0BD4C688A68CB68B4
:105370000E694D69019402928C69CA6903930B68A6
:105380000093CDE90465CDE90642E3E7F0B40025DA
:10539000471E2C462E46E30814F0070F08BF51F8AD
:1053A000235005F00F03334403F1080202F47F6633
:1053B00001349B1B3F2C4FEA121607F8013F4FEABE
:1053C0001515C2F30712E6D12A4480F83F20F0BC3D
:1053D000704700BF2DE9F04FBDB07F2A0B9240F21D
:1053E00079818246A2F18004DAF818300193DAF864
:1053F0001C300293DAF820300393DAF82430049357
:10540000DAE90AB3D0E90020DAE9046524F07F0480
:1054100089468034DAE902174C440593DAE90D8EA7
:10542000DAF8303006930A94DAF83C30CDF81CB044
:1054300014462A463D461746D9F80C200C94D9F854
:10544000084008940D901197D9F81400099017BAE4
:10545000089A109616BA099A0F9515BA019A1292DF
:10546000029A1392039A1492049A1592079A16922A
:10547000059A1792069AD9F804B0D9F800C0D9F85D
:105480001040D9F81C000E91D9F81810CDE9182851
:10549000CDE91AE3D9F848300193D9F85430029392
:1054A000D9F850300393D9F85C300493D9F85830C8
:1054B0000593019BD9F82080D9F82CE0D9F84C202D
:1054C0009BFA8BFB9CFA8CFC24BA00BA09BA1BBA73
:1054D000CDE91CBCCDE91E76D9F824B0D9F828C096
:1054E000D9F83470D9F83060CDE92054CDE92201E3
:1054F000D9F83C50D9F83840D9F84400D9F84010D0
:105500002F93029B1BBA3093039B1BBA3193049BCE
:105510001BBA3293059B98FA88F89EFA8EFE9CFA85
:105520008CFC3FBA36BA2DBA24BA1BBA9BFA8BFB55
:10553000CDE926ECCDE92876D9F860E0D9F86CC041
:10554000D9F86870D9F874603393CDE92A54D9F842
:105550007830D9F87050D9F87C40CDE924B8D9F822
:10556000648000BA09BA12BA9EFA8EFE9CFA8CFCCC
:105570001BBACDE92C012E921CA90CAA574898FA07
:1055800088F83FBA36BA2DBA24BACDE9348ECDE9BF
:1055900036C7CDE93865CDE93A4301F0D1F91CA809
:1055A00001F0DAFF0CAA1CA94D4801F0C9F91CA8AA
:1055B00001F0D2FF0CAA1CA94A4801F0C1F91CA8AD
:1055C00001F0CAFF0CAA1CA9474801F0B9F91CA8B0
:1055D00001F0C2FF45480CAA1CA901F0B1F9DDE9B0
:1055E0000C40DAF80020DAF808300E99119F1419EF
:1055F000DAF80420CAF80040DAE9035642EB00006A
:1056000059180F9BDAF8242043EB0505109BF61878
:10561000DAF8143043EB0707DAF81830CAF81470D8
:105620009C46129B1CEB03030193DAF81C309C464A
:10563000139B4CEB030CDAF82030CDF808C09C46E5
:10564000149B1CEB030C159BCDF80CC043EB020222
:10565000019B0492CAE90101CAE90356CAF818304D
:10566000029BCAF81C30CAE908C2169BDAF8282047
:10567000D3180793179ACAF82830DAF82C30534118
:105680000593189ACAF82C30DAF830309B18069334
:10569000199ACAF83030DAF8343043EB0208DAF8F5
:1056A00038201B9BCAF8348094461A9A1CEB020ED1
:1056B000DAF83C2042EB03030A9A09F1800991458C
:1056C000CAE90EE37FF4B8AE0B9B03F07F003DB058
:1056D000BDE8F08F10463DB0BDE8F08FC8C80300AC
:1056E00048C90300C8C9030048CA0300C8CA030068
:1056F0002DE9F041D1F804C00D68CC688A684B6987
:105700000F69CE69B0B080469CFA8CFC2DBA24BAE1
:1057100012BA1BBACDE910C5CDE913231294D8E90A
:105720000223D8E900453FBA36BACDE91576CDE96E
:105730000045D8E90467D8E90645CDE90223D8E950
:105740000823CDE90467CDE90645D8E90A67D8E919
:105750000C45CDE908238869D8E90E2300BACDE9C4
:105760000A67CDE90C451790CDE90E23CF6A8E6A02
:105770004D6B0C6BC86B8A6B4B6CD1F824E0D1F885
:1057800020C03FBA36BA2DBA24BA00BA12BA1BBA30
:105790001A971B960F6CCE6C1C951D948D6C4C6DDE
:1057A0001E901F92086DCA6D20938B6D9EFA8EFE1F
:1057B0009CFA8CFC3FBA36BA2DBA24BA00BA12BA97
:1057C0001BBACDE92176CDE92354CDE92502CDE9F7
:1057D00018EC2793D1F864E0486FCA6F534CD1F8A6
:1057E00060C0CF6E8E6E0D6F8B6F00BA11BA9EFACD
:1057F0008EFE9CFA8CFC1BBA6A462C902E91204699
:1058000010A93FBA36BA2DBA2F93CDE928ECCDE9CD
:105810002A762D9501F094F810A801F09DFE6A46B5
:1058200010A904F1800001F08BF810A801F094FE9B
:105830006A4610A904F5807001F082F810A801F002
:105840008BFE6A4610A904F5C07001F079F810A823
:1058500001F082FE6A4610A904F5007001F070F8AC
:10586000D8F80000009DD8F80410019ED8F8083040
:10587000029CD8F80C20D8F81070401946EB0101B2
:10588000039DC8F800000498C8F804101B19059976
:10589000D8F81440D8F81860C8F8083045EB020270
:1058A000069B079DC8F80C203F1844EB0101D8F86F
:1058B0001C00089AC8F81070D8F82070C8F81410A6
:1058C000F6180999D8F82430C8F8186045EB00009C
:1058D000BA1841EB0303C8E90702C8F82430D8E935
:1058E0000A01DDE90A56D8F830300C9CD8F834208B
:1058F000D8F83870401946EB01010D9DC8F8280012
:105900000E98C8F82C101B190F99D8F83C40C8F80D
:10591000303045EB02023818C8E90D2044EB010194
:105920000020C8F83C1030B0BDE8F081C8C80300C2
:105930002DE9F04DC4A7D7E900670FF2143BDBE96E
:1059400000ABB4B0CDE90467C3A7D7E90067CDE9E0
:1059500002AB0FF20C3BDBE900ABCDE90867C2A755
:10596000D7E90067CDE906AB0FF2043BDBE900ABFA
:10597000CDE90C67C0A7D7E90067CDE90AAB0FF204
:10598000003BDBE900ABCDE910670026CDE90EABAB
:105990001446804633923296002A7FD180238DF8B8
:1059A00048307A27012002AD12A900F140032B44B0
:1059B00027F003021A44002643F8046B9342FBD1FC
:1059C00027F00303BB42184413D0431C34AA0244FB
:1059D00000267B2B02F8886C0BD034AA134479285C
:1059E00000F1020203F8886C03D034AB1A4402F8C9
:1059F000886C620F630D8DF8C3208DF8C430620B84
:105A000063092846E4008DF8C5208DF8C6308DF86E
:105A1000C740FFF76DFEDDE90641DDE90823DDE95A
:105A20000207DDE9046509BA12BA00BA3FBA36BA0C
:105A30002DBA24BA1BBAC8F81010C8F81C20DDE92A
:105A40000F12C8F80400C8F800700D980E9FC8F82F
:105A50000C60C8F808500A9E0B9DC8F81440C8F89E
:105A600018300C9C119B36BA2DBA24BA00BA3FBA32
:105A700009BA12BA1BBAC8F82460C8F82050C8F88E
:105A80002C40C8F82800C8F83470C8F83010C8F89E
:105A90003C20C8F8383034B0BDE8F08D02AD28465F
:105AA0000F46FFF797FC241A03463C44002800F0F9
:105AB000C180421E022A40F2BB8020F0030712A9D7
:105AC00027440846224652F8046B40F8046BBA4259
:105AD000F9D123F003069E42344414D034AA324450
:105AE000207802F8880C721C93420CD934A8024426
:105AF0000236607802F8880CB34204D934AA1644FE
:105B0000A27806F8882C34AA581C1A4480247028DD
:105B1000329302F8884C7CD97F2873D834AA104479
:105B20007E2B4FF0000200F8882C03F1020069D0B0
:105B300034AC20447D2B03F1030400F8882C61D0A1
:105B400034A804447C2B03F1040004F8882C59D0B9
:105B500034AC20447B2B03F1050400F8882C51D091
:105B600034A804447A2B03F1060004F8882C49D0A9
:105B700034AC2044792B03F1070400F8882C41D081
:105B800034A80444782B03F1080004F8882C39D099
:105B900034AC2044772B03F1090400F8882C31D071
:105BA00034AA1444762B4FF0000204F8882C03F139
:105BB0000A0027D034AC2044752B03F10B0400F805
:105BC000882C1FD034A80444742B03F10C0004F873
:105BD000882C17D034AC2044732B03F10D0400F84B
:105BE000882C0FD034A80444722B03F10E0004F863
:105BF000882C07D034AC2044702B00F8882C01D1BD
:105C00008DF8C72028460191FFF772FD7A28019987
:105C10000CD8431C7B2BC0F17A02C0F17B0788BFF4
:105C20000127022A339C3FF6C0AECFE6339CE0E664
:105C300012A953E780223290339C8DF8482001202E
:105C40007A2712A9B1E600BF3BA7CA8485AE67BB1D
:105C500008C9BCF367E6096AF1361D5F3AF54FA53E
:105C60002BF894FE72F36E3C1F6C3E2B8C68059BE8
:105C7000D182E6AD7F520E5179217E1319CDE05BC2
:105C80006BBD41FBABD9831F70B491E87800B2E8DB
:105C900002105B1854EB0C04B2E802104D4156EBB5
:105CA0000C0680E878008041013070BC704700BF6E
:105CB00070B491E87800B2E802105B1A74EB0C043F
:105CC000B2E802108D4176EB0C0680E87800804146
:105CD000404270BC704700BF2DE9F00791E8F8071B
:105CE000B2E802105B1854EB0C04B2E802104D410C
:105CF00056EB0C06B2E802104F4158EB0C08B2E824
:105D0000021059EB01095AEB0C0A80E8F8078041B0
:105D10000130BDE8F00770472DE9F00791E8F8077A
:105D2000B2E802105B1A74EB0C04B2E802108D4169
:105D300076EB0C06B2E802108F4178EB0C08B2E863
:105D4000021079EB01097AEB0C0A80E8F807804130
:105D50004042BDE8F00770472DE9F007524290E855
:105D60007800B1E880071740DB1918EA020854EB05
:105D7000080419EA020955EB09051AEA020A56EB6A
:105D80000A0678C090E87800B1E8800717407B41A8
:105D900018EA020854EB080419EA020955EB090550
:105DA0001AEA020A56EB0A0678C080410130BDE8C3
:105DB000F00770472DE9F007524290E87800B1E80B
:105DC00080071740DB1B18EA020874EB080419EA85
:105DD000020975EB09051AEA020A76EB0A0678C091
:105DE00090E87800B1E880071740BB4118EA020844
:105DF00074EB080419EA020975EB09051AEA020AAC
:105E000076EB0A0678C080414042BDE8F007704753
:105E100090E8300091E8C000A31B1340E41AF61884
:105E2000EB1B1340ED1AFF1830C0C0C1704700BF14
:105E3000F0B55242FFF7ECFFFFF7EAFFFFF7E8FF8C
:105E4000FFF7E6FFF0BD00BF2DE9F0073AC916687D
:105E5000A1FB069A4FF0000CE3FB06AC4FF00007E5
:105E6000E4FB06C74FF00008E5FB067840F8049B0A
:105E700056684FF00009E1FB06A9E3FB66C9E4FBA5
:105E80006679E5FB668940F804AB96684FF0000A36
:105E9000E1FB06CAE3FB667AE4FB668AE5FB669AE9
:105EA00040F804CBD6684FF0000CE1FB067CE3FB26
:105EB000668CE4FB669CE5FB66AC80E88017BDE879
:105EC000F00770470A4600BF2DE9F04F40EC171A63
:105ED00092EC080A1EC910EE100AA1FB00784FF0E0
:105EE0000009E2FB00894FF0000AE3FB009A4FF043
:105EF000000BE4FB00AB12EE100A4FF0000CE1FBCC
:105F000000BC4FF0000EE2FB00CE4FF00005E3FBBB
:105F100000E54FF00006E4FB005604EE107A10EEA8
:105F2000900A4FF00007E1FB0087E2FB6097E3FB7C
:105F300060A7E4FB60B712EE900AE1FB60C7E2FBEA
:105F400060E7E3FB6057E4FB606704EE908A11EEC4
:105F5000100A4FF00008E1FB0098E2FB60A8E3FBA9
:105F600060B8E4FB60C813EE100AE1FB60E8E2FBF6
:105F70006058E3FB6068E4FB607805EE109A11EE70
:105F8000900A4FF00009E1FB00A9E2FB60B9E3FBD6
:105F900060C9E4FB60E913EE900AE1FB6059E2FBA3
:105FA0006069E3FB6079E4FB608905EE90AA17EE77
:105FB000101A01F110011EC910EE100A4FF0000A6C
:105FC000E1FB00BAE2FB60CAE3FB60EAE4FB605A73
:105FD00012EE100AE1FB606AE2FB607AE3FB608A82
:105FE000E4FB609A06EE10BA10EE900A4FF0000B38
:105FF000E1FB00CBE2FB60EBE3FB605BE4FB606B8F
:1060000012EE900AE1FB607BE2FB608BE3FB609B9E
:10601000E4FB60AB06EE90CA11EE100A4FF0000CE4
:10602000E1FB00ECE2FB605CE3FB606CE4FB607CAA
:1060300013EE100AE1FB608CE2FB609CE3FB60ACBA
:10604000E4FB60BC07EE10EA11EE900A4FF0000E80
:10605000E1FB005EE2FB606EE3FB607EE4FB608ED2
:1060600013EE900AE1FB609EE2FB60AEE3FB60BED4
:10607000E4FB60CE17EE900AA0EC074A80E8E05FF0
:10608000BDE8F08F30B44FF0000310F8014B11F869
:10609000015B013A84EA050443EA0403F5D1A3F164
:1060A00001034FEAD37030BC704700BF4FF00003CC
:1060B00010F8012B013943EA0203F9D1A3F10103DE
:1060C0004FEAD370704700BF11F8013B00F8013B65
:1060D000013AF9D1704700BF002200F8012B0139C5
:1060E000FBD170472DE9F00791E8F807B2E80210FC
:1060F0005B1854EB0C04B2E802104D4156EB0C0651
:10610000B2E802104F4158EB0C08B2E8021059EB0C
:1061100001095AEB0C0A8941B3F1FF3374F1FF34E2
:1061200075F1FF3576F1000677F1000778F1000888
:1061300079F101097AF1FF3A51F100015B184C4104
:106140004D4156F1000657F1000758F1000859EB90
:10615000D1795AEB010A80E8F807BDE8F0077047EB
:106160002DE9F00791E8F807B2E802105B1A74EB2A
:106170000C04B2E802108D4176EB0C06B2E8021076
:106180008F4178EB0C08B2E8021079EB01097AEB49
:106190000C0A89415B184C414D4156F1000657F1FC
:1061A000000758F1000859EBD1795AEB010A80E851
:1061B000F807BDE8F00770470A4600BF2DE9F04F29
:1061C00040EC171A92EC080A1EC910EE100AA1FB47
:1061D00000784FF00009E2FB00894FF0000AE3FB72
:1061E000009A4FF0000BE4FB00AB12EE100A4FF0E8
:1061F000000CE1FB00BC4FF0000EE2FB00CE4FF0C4
:106200000005E3FB00E54FF00006E4FB005604EE5A
:10621000107A10EE900A4FF00007E1FB0087E2FBD6
:106220006097E3FB60A7E4FB60B712EE900AE1FB26
:1062300060C7E2FB60E7E3FB6057E4FB606704EEE6
:10624000908A11EE100A4FF00008E1FB0098E2FB83
:1062500060A8E3FB60B8E4FB60C813EE100AE1FB42
:1062600060E8E2FB6058E3FB6068E4FB607805EE01
:10627000109A11EE900A4FF00009E1FB00A9E2FB31
:1062800060B9E3FB60C9E4FB60E913EE900AE1FB4F
:106290006059E2FB6069E3FB6079E4FB608905EE2D
:1062A00090AA17EE101A01F110011EC910EE100A83
:1062B0004FF0000AE1FB00BAE2FB60CAE3FB60EAD0
:1062C000E4FB605A12EE100AE1FB606AE2FB607ABE
:1062D000E3FB608AE4FB609A06EE10BA10EE900AC7
:1062E0004FF0000BE1FB00CBE2FB60EBE3FB605BFC
:1062F000E4FB606B12EE900AE1FB607BE2FB608BDB
:10630000E3FB609BE4FB60AB06EE90CA11EE100A63
:106310004FF0000CE1FB00ECE2FB605CE3FB606C27
:10632000E4FB607C13EE100AE1FB608CE2FB609CF6
:10633000E3FB60ACE4FB60BC07EE10EA11EE900AF0
:106340004FF0000EE1FB005EE2FB606EE3FB607E5F
:10635000E4FB608E13EE900AE1FB609EE2FB60AE10
:10636000E3FB60BEE4FB60CE53EC162A17EE104A46
:1063700012EB0A0253EB0B0354EB0C0455EB0E0526
:10638000002040F1000012EB0B0253EB0C0354EB26
:106390000E0455EB0E0546410020474158EB00081E
:1063A00059EB0A0940F10000B2EB0E0273F1000351
:1063B00074F1000475EB0A0576EB0B0677EB0C071E
:1063C00078EB0A0879EB0C0960F10000B5EB0B05DE
:1063D00076EB0C0677EB0E0778EB0B0879EB0E09E2
:1063E00060F100006FEAE07AB2EB0A0273EB0A0395
:1063F00074EB0A0475F1000576F1000677F10007E9
:1064000078EBDA7879EB0A0960F100004FEAE07A7C
:1064100012EB0A0253EB0A0354EB0A0455F1000590
:1064200056F1000657F1000758EBDA7859EB0A09E4
:1064300040F100004FEAE07A12EB0A0253EB0A0344
:1064400054EB0A0455F1000556F1000657F1000718
:1064500058EBDA7859EB0A095BEC14AA51EC150AEF
:106460001AEB060A5BEB070B50EB080051EB090136
:106470005FF0000C4CF1000C1AEB070A5BEB080B09
:1064800050EB090051EB090152EB0C025FF0000CDC
:1064900053EB0C0354EB0C0475414CF1000CBAEBBC
:1064A000090A7BF1000B70F10000B141BA4173EBB6
:1064B0000803B44175EB08056CF1000CC91B72EBC5
:1064C000080273EB0903BC4175EB09056CF1000C84
:1064D0006FEAEC76BAEB060A7BEB060BB04171F182
:1064E000000172F1000273F1000374EBD674B54140
:1064F0006CF1000C4FEAEC761AEB060A5BEB060B2C
:10650000704151F1000152F1000253F1000354EBCC
:10651000D67475414CF1000C4FEAEC761AEB060A82
:106520005BEB060B704151F1000152F1000253F197
:10653000000354EBD674754117EE907AA7E8000C6F
:1065400087E83F00BDE8F08F2DE9F00791E8F807F4
:10655000B2E802105B1854EB0C04B2E802104D4193
:1065600056EB0C06B2E802104F4158EB0C08B2E8AB
:10657000021059EB01095AEB0C0A4FF0260261EBAD
:10658000010122EA01015B1854F1000455F10005F4
:1065900056F1000657F1000758F1000859F10009BB
:1065A0005AF1000A61EB010122EA01010B4480E883
:1065B000F807BDE8F00770472DE9F00791E8F80704
:1065C000B2E802105B1A74EB0C04B2E802108D41C1
:1065D00076EB0C06B2E802108F4178EB0C08B2E8BB
:1065E000021079EB01097AEB0C0A4FF0260261EBFD
:1065F000010102EA01015B1A74F1000475F1000562
:1066000076F1000677F1000778F1000879F10009CA
:106610007AF1000A61EB010102EA0101A3EB010337
:1066200080E8F807BDE8F007704700BF0A4600BFE2
:106630002DE9F04F40EC171A92EC080A1EC910EE33
:10664000100AA1FB00784FF00009E2FB00894FF02F
:10665000000AE3FB009A4FF0000BE4FB00AB12EEE4
:10666000100A4FF0000CE1FB00BC4FF0000EE2FB03
:1066700000CE4FF00005E3FB00E54FF00006E4FB21
:10668000005604EE107A10EE900A4FF00007E1FB7E
:106690000087E2FB6097E3FB60A7E4FB60B712EEC4
:1066A000900AE1FB60C7E2FB60E7E3FB6057E4FBB5
:1066B000606704EE908A11EE100A4FF00008E1FBCB
:1066C0000098E2FB60A8E3FB60B8E4FB60C813EE4F
:1066D000100AE1FB60E8E2FB6058E3FB6068E4FB62
:1066E000607805EE109A11EE900A4FF00009E1FB78
:1066F00000A9E2FB60B9E3FB60C9E4FB60E913EECB
:10670000900AE1FB6059E2FB6069E3FB6079E4FB1E
:10671000608905EE90AA17EE101A01F110011EC94A
:1067200010EE100A4FF0000AE1FB00BAE2FB60CA6B
:10673000E3FB60EAE4FB605A12EE100AE1FB606AD8
:10674000E2FB607AE3FB608AE4FB609A06EE10BA33
:1067500010EE900A4FF0000BE1FB00CBE2FB60EB88
:10676000E3FB605BE4FB606B12EE900AE1FB607B95
:10677000E2FB608BE3FB609BE4FB60AB06EE90CA40
:1067800011EE100A4FF0000CE1FB00ECE2FB605C44
:10679000E3FB606CE4FB607C13EE100AE1FB608CB1
:1067A000E2FB609CE3FB60ACE4FB60BC07EE10EA3C
:1067B00011EE900A4FF0000EE1FB005EE2FB606E0E
:1067C000E3FB607EE4FB608E13EE900AE1FB609ECB
:1067D000E2FB60AEE3FB60BEE4FB60CE4FF026015F
:1067E00053EC142A4FF00000E6FB0120E7FB613078
:1067F00057EC156AE8FB6160E9FB617059EC168A99
:10680000EAFB6180EBFB619017EE10AAECFB61A044
:10681000EEFB615001FB00F0121853F1000356F13A
:10682000000657F1000758F1000859F100095AF124
:10683000000A55F1000B60EB000021EA0000024461
:1068400017EE900A80E8CC0FBDE8F08F2DE9F00735
:1068500091E8F0174FF4EE31BE39A4FB01234FF05D
:106860000004E5FB01344FF00005E6FB01454FF065
:106870000006E7FB01564FF00007E8FB01674FF009
:106880000008E9FB01784FF00009EAFB01894FF0AD
:10689000000AECFB019A4FF0260101FB0AFA12EB09
:1068A0000A0253F1000354F1000455F1000556F1BA
:1068B000000657F1000758F1000859F100096AEB8A
:1068C0000A0A21EA0A010A4480E8FC03BDE8F0074D
:1068D000704700BF2DE9F00390E8F8134FEAEC721F
:1068E00002F013022CF0004C02F11301591854F17C
:1068F000000155F1000156F1000157F1000158F176
:10690000000159F100015CF100014FEAE17101F071
:10691000130111445B1854F1000455F1000556F1C0
:10692000000657F1000758F1000859F100094CF131
:10693000000C2CF0004C80E8F813BDE8F003704721
:106940002DE9F44F41EC140AB2EC020AC0CAB2ECD1
:10695000021AB2E80003B2EC022AB2E8000CB2EC70
:10696000023AB2E8005055EC124A84EAD46080EA58
:10697000451085EAD56181EA441180EA141080EA65
:10698000057081EA151181EA04711CEB903C4EEB15
:10699000913E1CEB814C4EEB804E53EC132A82EA65
:1069A0000A0083EA0B0120402940504059401CEB6B
:1069B000000C5EEB010E51EC140AD0E900451CEB13
:1069C000040C5EEB050ED1E900451CEB040C5EEBFC
:1069D000050E18EB0C0859EB0E09D0E90245121907
:1069E0006B41D1E9024512196B4155EC124A8AEA12
:1069F00004008BEA050110EA080011EA090190EA97
:106A00000A0091EA0B0112184B4188EAD86080EA2B
:106A1000491089EAD96181EA481180EA181080EAB0
:106A2000097081EA191181EA087112EB903243EB87
:106A3000913312EB814243EB804343EC132A53EC36
:106A4000102A55EC114A82EAD22080EA435083EAA8
:106A5000D32181EA425180EA921080EA836081EA80
:106A6000931181EA82611CEB107C4EEB117E1CEBD2
:106A7000011C4EEB001E82EA0601324001EA0400CE
:106A800050401CEB000C01EA0C00504083EA070266
:106A90003B4012EA050159405EEB010E02EA0E018D
:106AA000594053EC132AA4185D4145EC114A1218C1
:106AB0004B418CEADC2080EA4E508EEADE2181EAEE
:106AC0004C5180EA9C1080EA8E6081EA9E1181EA36
:106AD0008C6112EB107243EB117312EB011243EB5A
:106AE000001343EC132A84EAD46080EA451085EA57
:106AF000D56181EA441180EA141080EA057081EAC8
:106B0000151181EA04711AEB903A4BEB913B1AEBA9
:106B1000814A4BEB804B53EC122A82EA080083EA4D
:106B2000090120402940504059401AEB000A5BEB14
:106B3000010B51EC140AD0E904451AEB040A5BEB93
:106B4000050BD1E904451AEB040A5BEB050B16EBC8
:106B50000A0657EB0B07D0E9064512196B41D1E93C
:106B6000064512196B4155EC114A88EA040089EA7E
:106B700005013040394090EA080091EA09011218F5
:106B80004B4186EAD66080EA471087EAD76181EAFE
:106B9000461180EA161080EA077081EA171181EA2F
:106BA000067112EB903243EB913312EB814243EBCF
:106BB000804343EC122A53EC132A55EC104A82EA24
:106BC000D22080EA435083EAD32181EA425180EA0D
:106BD000921080EA836081EA931181EA82611AEB64
:106BE000107A4BEB117B1AEB011A4BEB001B82EA7C
:106BF0000C0112EA0C0201EA040050401AEB000AF0
:106C000001EA0A00504083EA0E0213EA0E0312EA78
:106C1000050159405BEB010B02EA0B01594053ECB3
:106C2000122AA4185D4145EC104A12184B418AEA19
:106C3000DA2080EA4B508BEADB2181EA4A5180EA74
:106C40009A1080EA8B6081EA9B1181EA8A6112EBDB
:106C5000107243EB117312EB011243EB001343EC80
:106C6000122A84EAD46080EA451085EAD56181EA77
:106C7000441180EA141080EA057081EA151181EA56
:106C8000047118EB903849EB913918EB814849EBC6
:106C9000804953EC112A82EA060083EA070120406A
:106CA00029405040594018EB000859EB010951ECBC
:106CB000140AD0E9084518EB040859EB0509D1E995
:106CC000084518EB040859EB05091CEB080C5EEBB2
:106CD000090ED0E90A4512196B41D1E90A4512198A
:106CE0006B4155EC104A86EA040087EA050110EA78
:106CF0000C0011EA0E017040794012184B418CEAE9
:106D0000DC6080EA4E108EEADE6181EA4C1180EA96
:106D10001C1080EA0E7081EA1E1181EA0C7112EBE0
:106D2000903243EB913312EB814243EB804343ECCF
:106D3000112A53EC122A55EC134A82EAD22080EA37
:106D4000435083EAD32181EA425180EA921080EADB
:106D5000836081EA931181EA826118EB107849EB34
:106D6000117918EB011849EB001982EA0A0112EABD
:106D70000A0201EA0400504018EB000801EA08008A
:106D8000504083EA0B0213EA0B0312EA0501594053
:106D900059EB010902EA0901594053EC112AA418E0
:106DA0005D4145EC134A12184B4188EAD82080EA2D
:106DB000495089EAD92181EA485180EA981080EA4D
:106DC000896081EA991181EA886112EB107243EBC4
:106DD000117312EB011243EB001343EC112A84EA06
:106DE000D46080EA451085EAD56181EA441180EAE1
:106DF000141080EA057081EA151181EA047116EB1E
:106E0000903647EB913716EB814647EB804753ECC2
:106E1000102A82EA0C0083EA0E01204029405040EB
:106E2000594036184F4151EC140AD0E90C45361937
:106E30006F41D1E90C4536196F411AEB060A5BEB3D
:106E4000070BD0E90E4512196B41D1E90E45121915
:106E50006B4155EC134A8CEA04008EEA050110EAF6
:106E60000A0011EA0B0190EA0C0091EA0E011218D7
:106E70004B418AEADA6080EA4B108BEADB6181EAF7
:106E80004A1180EA1A1080EA0B7081EA1B1181EA2C
:106E90000A7112EB903243EB913312EB814243EBD8
:106EA000804343EC102A53EC112A55EC124A82EA33
:106EB000D22080EA435083EAD32181EA425180EA1A
:106EC000921080EA836081EA931181EA826116EB75
:106ED000107647EB117716EB011647EB001782EAA5
:106EE000080112EA080201EA04005040361801EADB
:106EF0000600504083EA090213EA090312EA050179
:106F000059404F4102EA0701594053EC102AA41896
:106F10005D4145EC124A12184B4186EAD62080EAC0
:106F2000475087EAD72181EA465180EA961080EAE5
:106F3000876081EA971181EA866112EB107243EB58
:106F4000117312EB011243EB001343EC102A84EA95
:106F5000D46080EA451085EAD56181EA441180EA6F
:106F6000141080EA057081EA151181EA04711CEBA6
:106F7000903C4EEB913E1CEB814C4EEB804E53EC23
:106F8000132A82EA0A0083EA0B012040294050407C
:106F900059401CEB000C5EEB010E51EC140AD0E9D9
:106FA00010451CEB040C5EEB050ED1E910451CEB03
:106FB000040C5EEB050E18EB0C0859EB0E09D0E93A
:106FC000124512196B41D1E9124512196B4155EC6A
:106FD000124A8AEA04008BEA050110EA080011EA65
:106FE000090190EA0A0091EA0B0112184B4188EA64
:106FF000D86080EA491089EAD96181EA481180EABB
:10700000181080EA097081EA191181EA087112EBFF
:10701000903243EB913312EB814243EB804343ECDC
:10702000132A53EC102A55EC114A82EAD22080EA46
:10703000435083EAD32181EA425180EA921080EAE8
:10704000836081EA931181EA82611CEB107C4EEB34
:10705000117E1CEB011C4EEB001E82EA0601324041
:1070600001EA040050401CEB000C01EA0C00504007
:1070700083EA07023B4012EA050159405EEB010E2C
:1070800002EA0E01594053EC132AA4185D4145EC65
:10709000114A12184B418CEADC2080EA4E508EEAED
:1070A000DE2181EA4C5180EA9C1080EA8E6081EA00
:1070B0009E1181EA8C6112EB107243EB117312EB9B
:1070C000011243EB001343EC132A84EAD46080EAF4
:1070D000451085EAD56181EA441180EA141080EAFE
:1070E000057081EA151181EA04711AEB903A4BEBB5
:1070F000913B1AEB814A4BEB804B53EC122A82EA0C
:10710000080083EA090120402940504059401AEB09
:10711000000A5BEB010B51EC140AD0E914451AEBA1
:10712000040A5BEB050BD1E914451AEB040A5BEB8F
:10713000050B16EB0A0657EB0B07D0E9164512199B
:107140006B41D1E9164512196B4155EC114A88EA99
:10715000040089EA05013040394090EA080091EACC
:10716000090112184B4186EAD66080EA471087EA87
:10717000D76181EA461180EA161080EA077081EA39
:10718000171181EA067112EB903243EB913312EB47
:10719000814243EB804343EC122A53EC132A55EC13
:1071A000104A82EAD22080EA435083EAD32181EA5E
:1071B000425180EA921080EA836081EA931181EA69
:1071C00082611AEB107A4BEB117B1AEB011A4BEB35
:1071D000001B82EA0C0112EA0C0201EA0400504092
:1071E0001AEB000A01EA0A00504083EA0E0213EA91
:1071F0000E0312EA050159405BEB010B02EA0B0199
:10720000594053EC122AA4185D4145EC104A12185B
:107210004B418AEADA2080EA4B508BEADB2181EA93
:107220004A5180EA9A1080EA8B6081EA9B1181EAD8
:107230008A6112EB107243EB117312EB011243EBF4
:10724000001343EC122A84EAD46080EA451085EAF0
:10725000D56181EA441180EA141080EA057081EA60
:10726000151181EA047118EB903849EB913918EB4C
:10727000814849EB804953EC112A82EA060083EAEF
:107280000701204029405040594018EB000859EBB5
:10729000010951EC140AD0E9184518EB040859EB20
:1072A0000509D1E9184518EB040859EB05091CEB51
:1072B000080C5EEB090ED0E91A4512196B41D1E9B1
:1072C0001A4512196B4155EC104A86EA040087EA08
:1072D000050110EA0C0011EA0E0170407940121805
:1072E0004B418CEADC6080EA4E108EEADE6181EA76
:1072F0004C1180EA1C1080EA0E7081EA1E1181EAAE
:107300000C7112EB903243EB913312EB814243EB61
:10731000804343EC112A53EC122A55EC134A82EABB
:10732000D22080EA435083EAD32181EA425180EAA5
:10733000921080EA836081EA931181EA826118EBFE
:10734000107849EB117918EB011849EB001982EA22
:107350000A0112EA0A0201EA0400504018EB000890
:1073600001EA0800504083EA0B0213EA0B0312EA19
:107370000501594059EB010902EA0901594053EC52
:10738000112AA4185D4145EC134A12184B4188EAB2
:10739000D82080EA495089EAD92181EA485180EA17
:1073A000981080EA896081EA991181EA886112EB7C
:1073B000107243EB117312EB011243EB001343EC19
:1073C000112A84EAD46080EA451085EAD56181EA11
:1073D000441180EA141080EA057081EA151181EAEF
:1073E000047116EB903647EB913716EB814647EB6D
:1073F000804753EC102A82EA0C0083EA0E012040F9
:1074000029405040594036184F4151EC140AD0E9F8
:107410001C4536196F41D1E91C4536196F411AEBED
:10742000060A5BEB070BD0E91E4512196B41D1E947
:107430001E4512196B4155EC134A8CEA04008EEA82
:10744000050110EA0A0011EA0B0190EA0C0091EA2A
:107450000E0112184B418AEADA6080EA4B108BEA7F
:10746000DB6181EA4A1180EA1A1080EA0B7081EA36
:107470001B1181EA0A7112EB903243EB913312EB4C
:10748000814243EB804343EC102A53EC112A55EC24
:10749000124A82EAD22080EA435083EAD32181EA69
:1074A000425180EA921080EA836081EA931181EA76
:1074B000826116EB107647EB117716EB011647EB5E
:1074C000001782EA080112EA080201EA04005040AB
:1074D000361801EA0600504083EA090213EA09035C
:1074E00012EA050159404F4102EA0701594053ECA5
:1074F000102AA4185D4145EC124A12184B4186EA45
:10750000D62080EA475087EAD72181EA465180EAAF
:10751000961080EA876081EA971181EA866112EB12
:10752000107243EB117312EB011243EB001343ECA7
:10753000102A04BCA2EC020AC0C2A2EC021AA2E801
:107540000003A2EC022AA2E8000CA2EC023AA2E894
:107550000050BDE8F08F00BF2DE9F04F84469CE855
:10756000F00FDCE91201DCE91C23241845EB0105CE
:107570004FEA560E8EEAC77E8EEA162E8EEA076E08
:107580008EEAD61E8EEA476E14EB0E044FEA570EB3
:107590008EEAC67E8EEA172E8EEA066E8EEAD71E19
:1075A00045EB0E054FEAD24E8EEA433E8EEAC20EFE
:1075B0008EEA537E8EEA921E8EEA836E14EB0E04E0
:1075C0004FEAD34E8EEA423E8EEAC30E8EEA527ED8
:1075D0008EEA931E45EB0E05DCE91401DCE91E235F
:1075E000361847EB01074FEA580E8EEAC97E8EEA3D
:1075F000182E8EEA096E8EEAD81E8EEA496E16EBB8
:107600000E064FEA590E8EEAC87E8EEA192E8EEAD1
:10761000086E8EEAD91E47EB0E074FEAD24E8EEA6D
:10762000433E8EEAC20E8EEA537E8EEA921E8EEAA8
:10763000836E16EB0E064FEAD34E8EEA423E8EEA7A
:10764000C30E8EEA527E8EEA931E47EB0E07DCE9EC
:10765000160118EB000849EB01094FEA5A0E8EEAB1
:10766000CB7E8EEA1A2E8EEA0B6E8EEADA1E8EEA38
:107670004B6E18EB0E084FEA5B0E8EEACA7E8EEA5E
:107680001B2E8EEA0A6E8EEADB1E49EB0E094FEACC
:10769000D44E8EEA453E8EEAC40E8EEA557E8EEAC0
:1076A000941E8EEA856E18EB0E084FEAD54E8EEAD0
:1076B000443E8EEAC50E8EEA547E8EEA951E49EB54
:1076C0000E09DCE91801DCE908231AEB000A4BEB90
:1076D000010B4FEA520E8EEAC37E8EEA122E8EEA1C
:1076E000036E8EEAD21E8EEA436E1AEB0E0A4FEA42
:1076F000530E8EEAC27E8EEA132E8EEA026E8EEA58
:10770000D31E4BEB0E0B4FEAD64E8EEA473E8EEA67
:10771000C60E8EEA577E8EEA961E8EEA876E1AEBAA
:107720000E0A4FEAD74E8EEA463E8EEAC70E8EEA22
:10773000567E8EEA971E4BEB0E0BACE8F00FDCE9A1
:107740001201DCE90267121843EB01034FEA560EFF
:107750008EEAC77E8EEA162E8EEA076E8EEAD61E57
:107760008EEA476E12EB0E024FEA570E8EEAC67E85
:107770008EEA172E8EEA066E8EEAD71E43EB0E03B4
:107780004FEAD84E8EEA493E8EEAC80E8EEA597EFE
:107790008EEA981E8EEA896E12EB0E024FEAD94EDF
:1077A0008EEA483E8EEAC90E8EEA587E8EEA991E0F
:1077B00043EB0E03DCE91401DCE90489361847EBDE
:1077C00001074FEA580E8EEAC97E8EEA182E8EEA1D
:1077D000096E8EEAD81E8EEA496E16EB0E064FEA47
:1077E000590E8EEAC87E8EEA192E8EEA086E8EEA4F
:1077F000D91E47EB0E074FEADA4E8EEA4B3E8EEA71
:10780000CA0E8EEA5B7E8EEA9A1E8EEA8B6E16EBAD
:107810000E064FEADB4E8EEA4A3E8EEACB0E8EEA29
:107820005A7E8EEA9B1E47EB0E07DCE91601DCE967
:1078300006AB18EB000849EB01094FEA5A0E8EEA35
:10784000CB7E8EEA1A2E8EEA0B6E8EEADA1E8EEA56
:107850004B6E18EB0E084FEA5B0E8EEACA7E8EEA7C
:107860001B2E8EEA0A6E8EEADB1E49EB0E094FEAEA
:10787000D24E8EEA433E8EEAC20E8EEA537E8EEAE6
:10788000921E8EEA836E18EB0E084FEAD34E8EEAF4
:10789000423E8EEAC30E8EEA527E8EEA931E49EB7A
:1078A0000E09DCE908011AEB040A4BEB050B4FEA61
:1078B000500E8EEAC17E8EEA102E8EEA016E8EEA9E
:1078C000D01E8EEA416E1AEB0E0A4FEA510E8EEA76
:1078D000C07E8EEA112E8EEA006E8EEAD11E4BEB30
:1078E0000E0B4FEAD64E8EEA473E8EEAC60E8EEA61
:1078F000577E8EEA961E8EEA876E1AEB0E0A4FEAC4
:10790000D74E8EEA463E8EEAC70E8EEA567E8EEA45
:10791000971E4BEB0E0BACE8CC0F5CE90E45DCE997
:107920000267001941EB05014FEA560E8EEAC77E49
:107930008EEA162E8EEA076E8EEAD61E8EEA476E05
:1079400010EB0E004FEA570E8EEAC67E8EEA172E17
:107950008EEA066E8EEAD71E41EB0E014FEAD84E34
:107960008EEA493E8EEAC80E8EEA597E8EEA981E4D
:107970008EEA896E10EB0E004FEAD94E8EEA483E31
:107980008EEAC90E8EEA587E8EEA991E41EB0E01F0
:107990005CE90C45DCE90489361947EB05074FEA39
:1079A000580E8EEAC97E8EEA182E8EEA096E8EEA8D
:1079B000D81E8EEA496E16EB0E064FEA590E8EEA75
:1079C000C87E8EEA192E8EEA086E8EEAD91E47EB23
:1079D0000E074FEADA4E8EEA4B3E8EEACA0E8EEA68
:1079E0005B7E8EEA9A1E8EEA8B6E16EB0E064FEACF
:1079F000DB4E8EEA4A3E8EEACB0E8EEA5A7E8EEA45
:107A00009B1E47EB0E075CE90A45DCE906AB18EB69
:107A1000040849EB05094FEA5A0E8EEACB7E8EEA3E
:107A20001A2E8EEA0B6E8EEADA1E8EEA4B6E18EB79
:107A30000E084FEA5B0E8EEACA7E8EEA1B2E8EEA95
:107A40000A6E8EEADB1E49EB0E094FEAD04E8EEA33
:107A5000413E8EEAC00E8EEA517E8EEA901E8EEA7C
:107A6000816E18EB0E084FEAD14E8EEA403E8EEA48
:107A7000C10E8EEA507E8EEA911E49EB0E09DCE9BA
:107A800008451AEB020A4BEB030B4FEA540E8EEA41
:107A9000C57E8EEA142E8EEA056E8EEAD41E8EEA1C
:107AA000456E1AEB0E0A4FEA550E8EEAC47E8EEA38
:107AB000152E8EEA046E8EEAD51E4BEB0E0B4FEAA6
:107AC000D64E8EEA473E8EEAC60E8EEA577E8EEA84
:107AD000961E8EEA876E1AEB0E0A4FEAD74E8EEA92
:107AE000463E8EEAC70E8EEA567E8EEA971E4BEB16
:107AF0000E0BACE8C30F5CE90E23DCE90267A418A7
:107B000045EB03054FEA560E8EEAC77E8EEA162E27
:107B10008EEA076E8EEAD61E8EEA476E14EB0E04CE
:107B20004FEA570E8EEAC67E8EEA172E8EEA066E52
:107B30008EEAD71E45EB0E054FEAD84E8EEA493E37
:107B40008EEAC80E8EEA597E8EEA981E8EEA896EFB
:107B500014EB0E044FEAD94E8EEA483E8EEAC90E67
:107B60008EEA587E8EEA991E45EB0E055CE90C23E1
:107B7000DCE90489B61847EB03074FEA580E8EEA92
:107B8000C97E8EEA182E8EEA096E8EEAD81E8EEA1B
:107B9000496E16EB0E064FEA590E8EEAC87E8EEA43
:107BA000192E8EEA086E8EEAD91E47EB0E074FEAB1
:107BB000DA4E8EEA4B3E8EEACA0E8EEA5B7E8EEA83
:107BC0009A1E8EEA8B6E16EB0E064FEADB4E8EEA9D
:107BD0004A3E8EEACB0E8EEA5A7E8EEA9B1E47EB19
:107BE0000E075CE90A23DCE906AB18EB020849EB57
:107BF00003094FEA5A0E8EEACB7E8EEA1A2E8EEADF
